{
  "address": "0x14B9400C6ffE4B0a76ba4F5c3F98691e6d65b0A7",
  "abi": [
    {
      "inputs": [
        {
          "internalType": "address",
          "name": "admin",
          "type": "address"
        },
        {
          "internalType": "address",
          "name": "protocolSigner_",
          "type": "address"
        },
        {
          "internalType": "address",
          "name": "protocolWallet_",
          "type": "address"
        },
        {
          "internalType": "address",
          "name": "CHAIN_PRICE_FEED_",
          "type": "address"
        },
        {
          "internalType": "address",
          "name": "TOKEN_PRICE_FEED_",
          "type": "address"
        },
        {
          "internalType": "address",
          "name": "TOKEN_",
          "type": "address"
        },
        {
          "internalType": "uint8",
          "name": "TOKEN_DECIMALS_",
          "type": "uint8"
        }
      ],
      "stateMutability": "nonpayable",
      "type": "constructor"
    },
    {
      "inputs": [],
      "name": "ExcessOfRate",
      "type": "error"
    },
    {
      "inputs": [],
      "name": "ExcessOfSubscriptions",
      "type": "error"
    },
    {
      "inputs": [],
      "name": "InsufficialBalance",
      "type": "error"
    },
    {
      "inputs": [],
      "name": "InvalidNonce",
      "type": "error"
    },
    {
      "inputs": [],
      "name": "InvalidShortString",
      "type": "error"
    },
    {
      "inputs": [],
      "name": "NotLegal",
      "type": "error"
    },
    {
      "inputs": [],
      "name": "NotLiquidatable",
      "type": "error"
    },
    {
      "inputs": [],
      "name": "NotSubscribed",
      "type": "error"
    },
    {
      "inputs": [
        {
          "internalType": "address",
          "name": "owner",
          "type": "address"
        }
      ],
      "name": "OwnableInvalidOwner",
      "type": "error"
    },
    {
      "inputs": [
        {
          "internalType": "address",
          "name": "account",
          "type": "address"
        }
      ],
      "name": "OwnableUnauthorizedAccount",
      "type": "error"
    },
    {
      "inputs": [],
      "name": "Permit2TransferAmountTooHigh",
      "type": "error"
    },
    {
      "inputs": [],
      "name": "ReduceTheAmount",
      "type": "error"
    },
    {
      "inputs": [],
      "name": "SafeTransferFailed",
      "type": "error"
    },
    {
      "inputs": [],
      "name": "SafeTransferFromFailed",
      "type": "error"
    },
    {
      "inputs": [
        {
          "internalType": "string",
          "name": "str",
          "type": "string"
        }
      ],
      "name": "StringTooLong",
      "type": "error"
    },
    {
      "inputs": [],
      "name": "TopUpBalance",
      "type": "error"
    },
    {
      "inputs": [],
      "name": "WrongPercent",
      "type": "error"
    },
    {
      "anonymous": false,
      "inputs": [
        {
          "indexed": true,
          "internalType": "address",
          "name": "user",
          "type": "address"
        },
        {
          "indexed": false,
          "internalType": "uint96",
          "name": "rate",
          "type": "uint96"
        }
      ],
      "name": "ChangeSubscriptionRate",
      "type": "event"
    },
    {
      "anonymous": false,
      "inputs": [
        {
          "indexed": true,
          "internalType": "address",
          "name": "user",
          "type": "address"
        },
        {
          "indexed": false,
          "internalType": "uint256",
          "name": "amount",
          "type": "uint256"
        }
      ],
      "name": "Deposit",
      "type": "event"
    },
    {
      "anonymous": false,
      "inputs": [],
      "name": "EIP712DomainChanged",
      "type": "event"
    },
    {
      "anonymous": false,
      "inputs": [
        {
          "indexed": true,
          "internalType": "address",
          "name": "user",
          "type": "address"
        },
        {
          "indexed": true,
          "internalType": "address",
          "name": "liquidator",
          "type": "address"
        }
      ],
      "name": "Liquidate",
      "type": "event"
    },
    {
      "anonymous": false,
      "inputs": [
        {
          "indexed": true,
          "internalType": "address",
          "name": "previousOwner",
          "type": "address"
        },
        {
          "indexed": true,
          "internalType": "address",
          "name": "newOwner",
          "type": "address"
        }
      ],
      "name": "OwnershipTransferred",
      "type": "event"
    },
    {
      "anonymous": false,
      "inputs": [
        {
          "indexed": true,
          "internalType": "address",
          "name": "spender",
          "type": "address"
        },
        {
          "indexed": true,
          "internalType": "address",
          "name": "receiver",
          "type": "address"
        },
        {
          "indexed": false,
          "internalType": "address",
          "name": "executor",
          "type": "address"
        },
        {
          "indexed": false,
          "internalType": "bytes32",
          "name": "id",
          "type": "bytes32"
        },
        {
          "indexed": false,
          "internalType": "uint256",
          "name": "amount",
          "type": "uint256"
        }
      ],
      "name": "PayBySig",
      "type": "event"
    },
    {
      "anonymous": false,
      "inputs": [
        {
          "indexed": true,
          "internalType": "address",
          "name": "user",
          "type": "address"
        },
        {
          "indexed": true,
          "internalType": "address",
          "name": "author",
          "type": "address"
        },
        {
          "indexed": true,
          "internalType": "bytes32",
          "name": "id",
          "type": "bytes32"
        }
      ],
      "name": "Subscribe",
      "type": "event"
    },
    {
      "anonymous": false,
      "inputs": [
        {
          "indexed": true,
          "internalType": "address",
          "name": "_from",
          "type": "address"
        },
        {
          "indexed": true,
          "internalType": "address",
          "name": "_to",
          "type": "address"
        },
        {
          "indexed": false,
          "internalType": "uint256",
          "name": "_value",
          "type": "uint256"
        }
      ],
      "name": "Transfer",
      "type": "event"
    },
    {
      "anonymous": false,
      "inputs": [
        {
          "indexed": true,
          "internalType": "address",
          "name": "user",
          "type": "address"
        },
        {
          "indexed": true,
          "internalType": "address",
          "name": "author",
          "type": "address"
        },
        {
          "indexed": true,
          "internalType": "bytes32",
          "name": "id",
          "type": "bytes32"
        }
      ],
      "name": "Unsubscribe",
      "type": "event"
    },
    {
      "anonymous": false,
      "inputs": [
        {
          "indexed": true,
          "internalType": "address",
          "name": "user",
          "type": "address"
        },
        {
          "indexed": false,
          "internalType": "uint16",
          "name": "userFee",
          "type": "uint16"
        },
        {
          "indexed": false,
          "internalType": "uint16",
          "name": "protocolFee",
          "type": "uint16"
        }
      ],
      "name": "UpdateSettings",
      "type": "event"
    },
    {
      "inputs": [],
      "name": "APPROX_LIQUIDATE_GAS",
      "outputs": [
        {
          "internalType": "uint256",
          "name": "",
          "type": "uint256"
        }
      ],
      "stateMutability": "view",
      "type": "function"
    },
    {
      "inputs": [],
      "name": "APPROX_SUBSCRIPTION_GAS",
      "outputs": [
        {
          "internalType": "uint256",
          "name": "",
          "type": "uint256"
        }
      ],
      "stateMutability": "view",
      "type": "function"
    },
    {
      "inputs": [],
      "name": "COIN_DECIMALS",
      "outputs": [
        {
          "internalType": "uint8",
          "name": "",
          "type": "uint8"
        }
      ],
      "stateMutability": "view",
      "type": "function"
    },
    {
      "inputs": [],
      "name": "COIN_PRICE_FEED",
      "outputs": [
        {
          "internalType": "contract AggregatorV3Interface",
          "name": "",
          "type": "address"
        }
      ],
      "stateMutability": "view",
      "type": "function"
    },
    {
      "inputs": [],
      "name": "SUBSCRIPTION_THRESHOLD",
      "outputs": [
        {
          "internalType": "uint8",
          "name": "",
          "type": "uint8"
        }
      ],
      "stateMutability": "view",
      "type": "function"
    },
    {
      "inputs": [],
      "name": "TOKEN",
      "outputs": [
        {
          "internalType": "contract IERC20",
          "name": "",
          "type": "address"
        }
      ],
      "stateMutability": "view",
      "type": "function"
    },
    {
      "inputs": [],
      "name": "TOKEN_DECIMALS",
      "outputs": [
        {
          "internalType": "uint8",
          "name": "",
          "type": "uint8"
        }
      ],
      "stateMutability": "view",
      "type": "function"
    },
    {
      "inputs": [],
      "name": "TOKEN_PRICE_FEED",
      "outputs": [
        {
          "internalType": "contract AggregatorV3Interface",
          "name": "",
          "type": "address"
        }
      ],
      "stateMutability": "view",
      "type": "function"
    },
    {
      "inputs": [
        {
          "internalType": "address",
          "name": "account",
          "type": "address"
        }
      ],
      "name": "balanceOf",
      "outputs": [
        {
          "internalType": "uint256",
          "name": "",
          "type": "uint256"
        }
      ],
      "stateMutability": "view",
      "type": "function"
    },
    {
      "inputs": [
        {
          "internalType": "uint96",
          "name": "subscriptionRate",
          "type": "uint96"
        }
      ],
      "name": "changeSubscriptionRate",
      "outputs": [],
      "stateMutability": "nonpayable",
      "type": "function"
    },
    {
      "inputs": [
        {
          "internalType": "uint256",
          "name": "amount",
          "type": "uint256"
        }
      ],
      "name": "deposit",
      "outputs": [],
      "stateMutability": "nonpayable",
      "type": "function"
    },
    {
      "inputs": [
        {
          "components": [
            {
              "components": [
                {
                  "internalType": "address",
                  "name": "signer",
                  "type": "address"
                },
                {
                  "internalType": "uint256",
                  "name": "nonce",
                  "type": "uint256"
                },
                {
                  "internalType": "uint256",
                  "name": "executionFee",
                  "type": "uint256"
                }
              ],
              "internalType": "struct PayoutSigVerifier.Sig",
              "name": "sig",
              "type": "tuple"
            },
            {
              "internalType": "uint256",
              "name": "amount",
              "type": "uint256"
            }
          ],
          "internalType": "struct PayoutSigVerifier.DepositSig",
          "name": "depositsig",
          "type": "tuple"
        },
        {
          "internalType": "bytes",
          "name": "rvs",
          "type": "bytes"
        },
        {
          "internalType": "bytes",
          "name": "permitData",
          "type": "bytes"
        }
      ],
      "name": "depositBySig",
      "outputs": [],
      "stateMutability": "nonpayable",
      "type": "function"
    },
    {
      "inputs": [
        {
          "internalType": "uint256",
          "name": "amount",
          "type": "uint256"
        },
        {
          "internalType": "address",
          "name": "to",
          "type": "address"
        }
      ],
      "name": "depositFor",
      "outputs": [],
      "stateMutability": "nonpayable",
      "type": "function"
    },
    {
      "inputs": [
        {
          "internalType": "bytes",
          "name": "permitData",
          "type": "bytes"
        },
        {
          "internalType": "uint256",
          "name": "amount",
          "type": "uint256"
        }
      ],
      "name": "depositWithPermit",
      "outputs": [],
      "stateMutability": "nonpayable",
      "type": "function"
    },
    {
      "inputs": [],
      "name": "eip712Domain",
      "outputs": [
        {
          "internalType": "bytes1",
          "name": "fields",
          "type": "bytes1"
        },
        {
          "internalType": "string",
          "name": "name",
          "type": "string"
        },
        {
          "internalType": "string",
          "name": "version",
          "type": "string"
        },
        {
          "internalType": "uint256",
          "name": "chainId",
          "type": "uint256"
        },
        {
          "internalType": "address",
          "name": "verifyingContract",
          "type": "address"
        },
        {
          "internalType": "bytes32",
          "name": "salt",
          "type": "bytes32"
        },
        {
          "internalType": "uint256[]",
          "name": "extensions",
          "type": "uint256[]"
        }
      ],
      "stateMutability": "view",
      "type": "function"
    },
    {
      "inputs": [],
      "name": "getChainID",
      "outputs": [
        {
          "internalType": "uint256",
          "name": "",
          "type": "uint256"
        }
      ],
      "stateMutability": "view",
      "type": "function"
    },
    {
      "inputs": [
        {
          "internalType": "address",
          "name": "account",
          "type": "address"
        }
      ],
      "name": "liquidate",
      "outputs": [],
      "stateMutability": "nonpayable",
      "type": "function"
    },
    {
      "inputs": [
        {
          "internalType": "address",
          "name": "",
          "type": "address"
        }
      ],
      "name": "nonces",
      "outputs": [
        {
          "internalType": "uint256",
          "name": "",
          "type": "uint256"
        }
      ],
      "stateMutability": "view",
      "type": "function"
    },
    {
      "inputs": [],
      "name": "owner",
      "outputs": [
        {
          "internalType": "address",
          "name": "",
          "type": "address"
        }
      ],
      "stateMutability": "view",
      "type": "function"
    },
    {
      "inputs": [
        {
          "components": [
            {
              "components": [
                {
                  "internalType": "address",
                  "name": "signer",
                  "type": "address"
                },
                {
                  "internalType": "uint256",
                  "name": "nonce",
                  "type": "uint256"
                },
                {
                  "internalType": "uint256",
                  "name": "executionFee",
                  "type": "uint256"
                }
              ],
              "internalType": "struct PayoutSigVerifier.Sig",
              "name": "sig",
              "type": "tuple"
            },
            {
              "internalType": "address",
              "name": "receiver",
              "type": "address"
            },
            {
              "internalType": "uint256",
              "name": "amount",
              "type": "uint256"
            },
            {
              "internalType": "bytes32",
              "name": "id",
              "type": "bytes32"
            }
          ],
          "internalType": "struct PayoutSigVerifier.PaymentSig",
          "name": "payment",
          "type": "tuple"
        },
        {
          "internalType": "bytes",
          "name": "rvs",
          "type": "bytes"
        }
      ],
      "name": "payBySig",
      "outputs": [],
      "stateMutability": "nonpayable",
      "type": "function"
    },
    {
      "inputs": [],
      "name": "protocolWallet",
      "outputs": [
        {
          "internalType": "address",
          "name": "",
          "type": "address"
        }
      ],
      "stateMutability": "view",
      "type": "function"
    },
    {
      "inputs": [],
      "name": "renounceOwnership",
      "outputs": [],
      "stateMutability": "nonpayable",
      "type": "function"
    },
    {
      "inputs": [
        {
          "internalType": "contract IERC20",
          "name": "token",
          "type": "address"
        },
        {
          "internalType": "uint256",
          "name": "amount",
          "type": "uint256"
        }
      ],
      "name": "rescueFunds",
      "outputs": [],
      "stateMutability": "nonpayable",
      "type": "function"
    },
    {
      "inputs": [
        {
          "internalType": "address",
          "name": "author",
          "type": "address"
        },
        {
          "internalType": "uint256",
          "name": "maxRate",
          "type": "uint256"
        },
        {
          "internalType": "bytes32",
          "name": "id",
          "type": "bytes32"
        }
      ],
      "name": "subscribe",
      "outputs": [],
      "stateMutability": "nonpayable",
      "type": "function"
    },
    {
      "inputs": [
        {
          "components": [
            {
              "components": [
                {
                  "internalType": "address",
                  "name": "signer",
                  "type": "address"
                },
                {
                  "internalType": "uint256",
                  "name": "nonce",
                  "type": "uint256"
                },
                {
                  "internalType": "uint256",
                  "name": "executionFee",
                  "type": "uint256"
                }
              ],
              "internalType": "struct PayoutSigVerifier.Sig",
              "name": "sig",
              "type": "tuple"
            },
            {
              "internalType": "address",
              "name": "author",
              "type": "address"
            },
            {
              "internalType": "uint256",
              "name": "maxRate",
              "type": "uint256"
            },
            {
              "internalType": "bytes32",
              "name": "id",
              "type": "bytes32"
            }
          ],
          "internalType": "struct PayoutSigVerifier.SubSig",
          "name": "subscribeSig",
          "type": "tuple"
        },
        {
          "internalType": "bytes",
          "name": "rvs",
          "type": "bytes"
        }
      ],
      "name": "subscribeBySig",
      "outputs": [],
      "stateMutability": "nonpayable",
      "type": "function"
    },
    {
      "inputs": [],
      "name": "totalBalance",
      "outputs": [
        {
          "internalType": "uint256",
          "name": "",
          "type": "uint256"
        }
      ],
      "stateMutability": "view",
      "type": "function"
    },
    {
      "inputs": [
        {
          "internalType": "address",
          "name": "newOwner",
          "type": "address"
        }
      ],
      "name": "transferOwnership",
      "outputs": [],
      "stateMutability": "nonpayable",
      "type": "function"
    },
    {
      "inputs": [
        {
          "internalType": "address",
          "name": "author",
          "type": "address"
        },
        {
          "internalType": "bytes32",
          "name": "id",
          "type": "bytes32"
        }
      ],
      "name": "unsubscribe",
      "outputs": [],
      "stateMutability": "nonpayable",
      "type": "function"
    },
    {
      "inputs": [
        {
          "components": [
            {
              "components": [
                {
                  "internalType": "address",
                  "name": "signer",
                  "type": "address"
                },
                {
                  "internalType": "uint256",
                  "name": "nonce",
                  "type": "uint256"
                },
                {
                  "internalType": "uint256",
                  "name": "executionFee",
                  "type": "uint256"
                }
              ],
              "internalType": "struct PayoutSigVerifier.Sig",
              "name": "sig",
              "type": "tuple"
            },
            {
              "internalType": "address",
              "name": "author",
              "type": "address"
            },
            {
              "internalType": "bytes32",
              "name": "id",
              "type": "bytes32"
            }
          ],
          "internalType": "struct PayoutSigVerifier.UnSubSig",
          "name": "unsubscribeSig",
          "type": "tuple"
        },
        {
          "internalType": "bytes",
          "name": "rvs",
          "type": "bytes"
        }
      ],
      "name": "unsubscribeBySig",
      "outputs": [],
      "stateMutability": "nonpayable",
      "type": "function"
    },
    {
      "inputs": [
        {
          "internalType": "address",
          "name": "protocolSigner_",
          "type": "address"
        }
      ],
      "name": "updateProtocolSigner",
      "outputs": [],
      "stateMutability": "nonpayable",
      "type": "function"
    },
    {
      "inputs": [
        {
          "internalType": "address",
          "name": "protocolWallet_",
          "type": "address"
        }
      ],
      "name": "updateProtocolWallet",
      "outputs": [],
      "stateMutability": "nonpayable",
      "type": "function"
    },
    {
      "inputs": [
        {
          "components": [
            {
              "components": [
                {
                  "internalType": "address",
                  "name": "signer",
                  "type": "address"
                },
                {
                  "internalType": "uint256",
                  "name": "nonce",
                  "type": "uint256"
                },
                {
                  "internalType": "uint256",
                  "name": "executionFee",
                  "type": "uint256"
                }
              ],
              "internalType": "struct PayoutSigVerifier.Sig",
              "name": "sig",
              "type": "tuple"
            },
            {
              "internalType": "address",
              "name": "user",
              "type": "address"
            },
            {
              "components": [
                {
                  "internalType": "uint96",
                  "name": "subscriptionRate",
                  "type": "uint96"
                },
                {
                  "internalType": "uint16",
                  "name": "userFee",
                  "type": "uint16"
                },
                {
                  "internalType": "uint16",
                  "name": "protocolFee",
                  "type": "uint16"
                }
              ],
              "internalType": "struct PayoutSigVerifier.Settings",
              "name": "settings",
              "type": "tuple"
            }
          ],
          "internalType": "struct PayoutSigVerifier.SettingsSig",
          "name": "settings",
          "type": "tuple"
        },
        {
          "internalType": "bytes",
          "name": "rvs",
          "type": "bytes"
        }
      ],
      "name": "updateSettings",
      "outputs": [],
      "stateMutability": "nonpayable",
      "type": "function"
    },
    {
      "inputs": [
        {
          "internalType": "address",
          "name": "account",
          "type": "address"
        }
      ],
      "name": "users",
      "outputs": [
        {
          "internalType": "int256",
          "name": "balance",
          "type": "int256"
        },
        {
          "internalType": "uint256",
          "name": "incomeRate",
          "type": "uint256"
        },
        {
          "internalType": "uint256",
          "name": "outgoingRate",
          "type": "uint256"
        },
        {
          "internalType": "uint40",
          "name": "updTimestamp",
          "type": "uint40"
        },
        {
          "components": [
            {
              "internalType": "uint96",
              "name": "subscriptionRate",
              "type": "uint96"
            },
            {
              "internalType": "uint16",
              "name": "userFee",
              "type": "uint16"
            },
            {
              "internalType": "uint16",
              "name": "protocolFee",
              "type": "uint16"
            }
          ],
          "internalType": "struct PayoutSigVerifier.Settings",
          "name": "settings",
          "type": "tuple"
        }
      ],
      "stateMutability": "view",
      "type": "function"
    },
    {
      "inputs": [
        {
          "internalType": "uint256",
          "name": "amount",
          "type": "uint256"
        }
      ],
      "name": "withdraw",
      "outputs": [],
      "stateMutability": "nonpayable",
      "type": "function"
    }
  ],
  "transactionHash": "0xcf59db2db379e6df17e28b1227c6855e9fc597da45baddc7040fbe36ef728db6",
  "args": [
    "0xdEa6B9377A931a851F3D683bA1D047343F13759A",
    "0xa461C50e169464dFFcd65A96bfa9682dE93b7520",
    "0xdEa6B9377A931a851F3D683bA1D047343F13759A",
    "0xAB594600376Ec9fD91F8e885dADF0CE036862dE0",
    "0x0A6513e40db6EB1b165753AD52E80663aeA50545",
    "0xc2132D05D31c914a87C6611C10748AEb04B58e8F",
    "6"
  ],
  "numDeployments": 1,
  "solcInputHash": "b172bb493e7a57d619e80428af5356ee",
  "bytecode": "0x6101e034620002f4576001600160401b0390601f6200431638819003918201601f19168301919084831184841017620002de578160e09285926040958652833981010312620002f457620000538262000315565b91620000626020820162000315565b6200006f83830162000315565b6200007d6060840162000315565b906200008c6080850162000315565b9260c06200009d60a0870162000315565b9501519560ff87168703620002f457805192620000ba84620002f9565b601184526020840192702830bcb7baba29b4b3ab32b934b334b2b960791b84528251620000e781620002f9565b6001815260208101603160f81b815262000101876200032a565b956101209687526200011383620004fd565b97610140988952519020918260e0525190209b8c916101009d8e524660a05285519260208401917f8b73c3c69bb8fe3d512ecc4cf759cc79239f7b179b0ffacaa9a75d522b39400f83528785015260608401524660808401523060a084015260a0835260c083019183831090831117620002de57818652825190206080523060c0526001600160a01b039b8c16918215620002c75750508a929183916002549c8d968260018060a01b031980991617600255519d167f8be0079c531659141344cd1fd0a4f28419497f9722a3daafe3b4186f6b6457e0600080a31683600454161760045581610160961686528161018097168752816101a0981688526101c098895216906007541617600755613c6b9788620006ab893960805188613877015260a05188613932015260c05188613848015260e051886138c6015251876138ec01525186610cc201525185610cec015251848181610c1601526122cd015251838181610275015261228d01525182818161069801528181610ef401528181610fdc015281816119e401528181611c490152818161290c01528181612aae0152612baf01525181818161166901526123410152f35b631e4fbdf760e01b8252600060c490910152602490fd5b634e487b7160e01b600052604160045260246000fd5b600080fd5b604081019081106001600160401b03821117620002de57604052565b51906001600160a01b0382168203620002f457565b80516020919082811015620003c9575090601f8251116200036857808251920151908083106200035957501790565b82600019910360031b1b161790565b90604051809263305a27a960e01b82528060048301528251908160248401526000935b828510620003af575050604492506000838284010152601f80199101168101030190fd5b84810182015186860160440152938101938593506200038b565b6001600160401b038111620002de576000928354926001938481811c91168015620004f2575b83821014620004de57601f8111620004a8575b5081601f8411600114620004415750928293918392869462000435575b50501b916000199060031b1c191617905560ff90565b0151925038806200041f565b919083601f1981168780528488209488905b888383106200048d575050501062000473575b505050811b01905560ff90565b015160001960f88460031b161c1916905538808062000466565b85870151885590960195948501948793509081019062000453565b85805284601f848820920160051c820191601f860160051c015b828110620004d257505062000402565b878155018590620004c2565b634e487b7160e01b86526022600452602486fd5b90607f1690620003ef565b8051602090818110156200058b5750601f8251116200052a57808251920151908083106200035957501790565b90604051809263305a27a960e01b82528060048301528251908160248401526000935b82851062000571575050604492506000838284010152601f80199101168101030190fd5b84810182015186860160440152938101938593506200054d565b9192916001600160401b038111620002de5760019182548381811c911680156200069f575b828210146200068957601f811162000650575b5080601f831160011462000603575081929394600092620005f7575b5050600019600383901b1c191690821b17905560ff90565b015190503880620005df565b90601f198316958460005282600020926000905b8882106200063857505083859697106200047357505050811b01905560ff90565b80878596829496860151815501950193019062000617565b8360005283601f83600020920160051c820191601f850160051c015b8281106200067c575050620005c3565b600081550184906200066c565b634e487b7160e01b600052602260045260246000fd5b90607f1690620005b056fe60806040908082526004918236101561001757600080fd5b60009260e08435811c93846306d6e63f14611d1e575083630814c28514611c9d5783630d525ac014611ad457836318c3332614611a39578484632e1a7d4d14611964575083632f8655681461175c57836336efd16f1461170057836338aff6ae146116c6578363564b81ef1461168d5783635b7f415c146116315783636ba7c6b2146114b557836370a0823114611437578363715018a6146113995783637690a6e31461119f578363773591591461116557836378e3214f14610f7a5783637ecebe0014610f1857836382bfefc814610ea9578363843ce43014610dfd57836384b0196e14610c8d5783638da5cb5b14610c3a5783639a6c595214610bcb578363a5bc097f14610b90578363a87430ba14610a72578363ad7a672f14610a35578363afcf3bbc1461075c578363b6b55f251461071f578363bbeb1ed7146106e3578363cec08c1e1461063c578363da0d938a1461040957508263e308a09914610387578263f2fde38b1461029d57508163f469f77a1461022a575063fb7e3d74146101a157600080fd5b346102275760607ffffffffffffffffffffffffffffffffffffffffffffffffffffffffffffffffc360112610227576101d8611d6e565b6101e56024358233612e88565b73ffffffffffffffffffffffffffffffffffffffff6044359116337f9d48c8374928935f162c75d7310b15fb1040c13fd2f8725698fd7e66cecc0a138480a480f35b80fd5b90503461029957817ffffffffffffffffffffffffffffffffffffffffffffffffffffffffffffffffc360112610299576020905173ffffffffffffffffffffffffffffffffffffffff7f0000000000000000000000000000000000000000000000000000000000000000168152f35b5080fd5b909150346103835760207ffffffffffffffffffffffffffffffffffffffffffffffffffffffffffffffffc360112610383576102d7611d6e565b906102e0612104565b73ffffffffffffffffffffffffffffffffffffffff809216928315610354575050600254827fffffffffffffffffffffffff0000000000000000000000000000000000000000821617600255167f8be0079c531659141344cd1fd0a4f28419497f9722a3daafe3b4186f6b6457e08380a380f35b908460249251917f1e4fbdf7000000000000000000000000000000000000000000000000000000008352820152fd5b8280fd5b83346102275760207ffffffffffffffffffffffffffffffffffffffffffffffffffffffffffffffffc3601126102275773ffffffffffffffffffffffffffffffffffffffff6103d4611d6e565b6103dc612104565b167fffffffffffffffffffffffff0000000000000000000000000000000000000000600754161760075580f35b92509034610634577ffffffffffffffffffffffffffffffffffffffffffffffffffffffffffffffffc360160c081126106385760a0136106345767ffffffffffffffff9160a435838111610630576104649036908301611f3e565b9161046d61200f565b9360443573ffffffffffffffffffffffffffffffffffffffff956104b489838984169384835260056020526104ae88808520948d6007541681522091612242565b92612485565b33895260056020528389206104ca83825461252b565b905583519182527fddf252ad1be2c89b69c2b068fc378daa952ba7f163c4a11628f55a4df523b3ef60203393a381519160208301937fad393dfe8522c7ebf48cc87f938e18127980fb505639ec7d21cd0ebe16032682855261052d8285016130bf565b86610536611d96565b1660a0850152608435978860c086015260c0855284019284841090841117610604575052519020610585919061056b90613761565b61057361200f565b61057b61200f565b90602435926130f4565b506105c86105a261059461200f565b61059c612032565b90612c6c565b6105aa61200f565b906bffffffffffffffffffffffff6105c0612032565b911691612cd1565b6105d061200f565b90806105da612032565b1691167f373c591f0f8b71e8af368873ce91220bb01eaf58ab25191225215a0a01a5fd618480a480f35b8860416024927f4e487b7100000000000000000000000000000000000000000000000000000000835252fd5b8580fd5b8380fd5b8480fd5b50915034610383577ffffffffffffffffffffffffffffffffffffffffffffffffffffffffffffffffc3601126102995780359067ffffffffffffffff8211610383576106916106bc916106d493369101611dda565b80929130337f0000000000000000000000000000000000000000000000000000000000000000612547565b50606081149081156106d7575b506024353333612a23565b80f35b610160915014386106c9565b84833461029957817ffffffffffffffffffffffffffffffffffffffffffffffffffffffffffffffffc36011261029957602090516201d4c08152f35b8482346102995760207ffffffffffffffffffffffffffffffffffffffffffffffffffffffffffffffffc360112610299576106d4903533336128c5565b8491923461038357610100367ffffffffffffffffffffffffffffffffffffffffffffffffffffffffffffffffc018181126106385783136106345767ffffffffffffffff9260e435848111610630576107b89036908801611f3e565b6107c06120e2565b9461ffff9586806107cf6120f3565b16911610156109e1576107e06120e2565b86806107ea6120f3565b16911601868111610a0957866127109116036109e157845160208101917f5d28c6d88e78f0b1c3c683cced71465011628afa85494e4b583128f2bd8325ca83526108358783016130bf565b61083d611d96565b9573ffffffffffffffffffffffffffffffffffffffff80971660a0840152608435956bffffffffffffffffffffffff87168097036109d9578660c085015260a435908a82168092036109dd5784015260c4358981168091036109d9578382015282526101208201908111828210176109ad576108f3927f2bc7c690e379673c356b3cb9b8eb4e6040e2158721e4465aa0fe1f187443f40b98999a94926108e7928952519020613761565b8584541661057b612032565b50826108fd612032565b16875260056020528387208360075416885261091b85892082613052565b01908154906dffff0000000000000000000000006109376120f3565b60601b16907fffffffffffffffffffffffffffffffff000000000000000000000000000000006fffff00000000000000000000000000006109766120e2565b60701b1693161717179055610989612032565b6109916120f3565b9461099a6120e2565b818551971687521660208601521692a280f35b60248960418c7f4e487b7100000000000000000000000000000000000000000000000000000000835252fd5b8a80fd5b8b80fd5b8785517f08e8d3d5000000000000000000000000000000000000000000000000000000008152fd5b60248860118b7f4e487b7100000000000000000000000000000000000000000000000000000000835252fd5b84833461029957817ffffffffffffffffffffffffffffffffffffffffffffffffffffffffffffffffc360112610299576020906008549051908152f35b925083346102275760207ffffffffffffffffffffffffffffffffffffffffffffffffffffffffffffffffc3601126102275773ffffffffffffffffffffffffffffffffffffffff610ac1611d6e565b16815260056020528281209283549360018101549060028101549464ffffffffff60038301541691845195606087019087821067ffffffffffffffff831117610b64575085520154936bffffffffffffffffffffffff91828616825261ffff9687956020840195878960601c168752878286019960701c16895281519a8b5260208b0152890152606088015251166080860152511660a0840152511660c0820152f35b806041857f4e487b71000000000000000000000000000000000000000000000000000000006024945252fd5b84833461029957817ffffffffffffffffffffffffffffffffffffffffffffffffffffffffffffffffc3601126102995760209051611f408152f35b84833461029957817ffffffffffffffffffffffffffffffffffffffffffffffffffffffffffffffffc360112610299576020905173ffffffffffffffffffffffffffffffffffffffff7f0000000000000000000000000000000000000000000000000000000000000000168152f35b84833461029957817ffffffffffffffffffffffffffffffffffffffffffffffffffffffffffffffffc3601126102995760209073ffffffffffffffffffffffffffffffffffffffff600254169051908152f35b91843461022757807ffffffffffffffffffffffffffffffffffffffffffffffffffffffffffffffffc36011261022757610ce67f0000000000000000000000000000000000000000000000000000000000000000613513565b90610d107f0000000000000000000000000000000000000000000000000000000000000000613688565b92805193602093602086019686881067ffffffffffffffff891117610dd15750959390610d8783602092878b999652868652610d7a82519a8b9a7f0f000000000000000000000000000000000000000000000000000000000000008c5280878d01528b0190611fb1565b91898303908a0152611fb1565b924660608801523060808801528460a088015286840360c088015251928381520193925b828110610dba57505050500390f35b835185528695509381019392810192600101610dab565b8460416024927f4e487b7100000000000000000000000000000000000000000000000000000000835252fd5b509150346103835760207ffffffffffffffffffffffffffffffffffffffffffffffffffffffffffffffffc360112610383578135916bffffffffffffffffffffffff831680930361063457338452600560205281842001827fffffffffffffffffffffffffffffffffffffffff000000000000000000000000825416179055519081527fcbe76e2308c6dbaa4a8d74be4b741727f7fc9ee8ede6445a629918edc83cf41d60203392a280f35b84833461029957817ffffffffffffffffffffffffffffffffffffffffffffffffffffffffffffffffc360112610299576020905173ffffffffffffffffffffffffffffffffffffffff7f0000000000000000000000000000000000000000000000000000000000000000168152f35b8483346102995760207ffffffffffffffffffffffffffffffffffffffffffffffffffffffffffffffffc360112610299578060209273ffffffffffffffffffffffffffffffffffffffff610f6a611d6e565b1681526003845220549051908152f35b5091503461038357807ffffffffffffffffffffffffffffffffffffffffffffffffffffffffffffffffc3601126103835773ffffffffffffffffffffffffffffffffffffffff8235818116918282036106305760243592610fd9612104565b817f00000000000000000000000000000000000000000000000000000000000000001680821490816110c9575b506110a157869392919061108d57505081808092335af16110256120b2565b501561103057505080f35b90602060649251917f08c379a0000000000000000000000000000000000000000000000000000000008352820152601c60248201527f5061796f75743a205472616e7366657220636f696e206661696c6564000000006044820152fd5b91935091506106d493506007541690612dee565b8585517fda89fe91000000000000000000000000000000000000000000000000000000008152fd5b602491506020908751928380927f70a08231000000000000000000000000000000000000000000000000000000008252308c8301525afa801561115b578890611123575b61111b915060085490612076565b841138611006565b506020813d602011611153575b8161113d60209383611e8c565b8101031261114f5761111b905161110d565b8780fd5b3d9150611130565b86513d8a823e3d90fd5b84833461029957817ffffffffffffffffffffffffffffffffffffffffffffffffffffffffffffffffc360112610299576020905160648152f35b92505034610383576111b036611f5c565b90926111bb84612055565b90838501359273ffffffffffffffffffffffffffffffffffffffff918284169485895260209460058652878a209085600754168b5282898c20916111fe90612242565b9161120893612485565b338952600585528689208181549061121f9161252b565b905586519081527fddf252ad1be2c89b69c2b068fc378daa952ba7f163c4a11628f55a4df523b3ef9586863393a38551848101917f45e2530d9b4b4107e164312ecbeec8bc5b2dd6807350344929778fb1a8dde05a8352878201611283908a6132f1565b815261128e81611e53565b51902061129a90613761565b906112a487612055565b6112ad88612055565b85890135916112bb946130f4565b50806112c686612055565b1686526005825280848720948160075416885280882095608088013596876112ed8a612055565b6112f690612242565b9161130093612485565b60608701968261130f89612055565b16895260058552818920878154906113269161252b565b905561133181612055565b61133a89612055565b848085519233845260a08601358a8501528b878501521692169060607f0b909c3b107998af1a2c39db9ce7d90ac92ee73043353dea81a86efd42b7ed4291a361138290612055565b9661138c90612055565b905195865216941692a380f35b843461022757807ffffffffffffffffffffffffffffffffffffffffffffffffffffffffffffffffc360112610227576113d0612104565b8073ffffffffffffffffffffffffffffffffffffffff6002547fffffffffffffffffffffffff00000000000000000000000000000000000000008116600255167f8be0079c531659141344cd1fd0a4f28419497f9722a3daafe3b4186f6b6457e08280a380f35b8483346102995760207ffffffffffffffffffffffffffffffffffffffffffffffffffffffffffffffffc3601126102995760209173ffffffffffffffffffffffffffffffffffffffff611488611d6e565b1681526005835261149a828220613423565b5090808213156114ad5750905b51908152f35b9050906114a7565b92505034610383576115c761151d916115a96114d036611f5c565b9290956114dc87612055565b888389013597889273ffffffffffffffffffffffffffffffffffffffff99816104ae888d809516968781526005602052818120956007541681522091612242565b338a526005602052838a2061153383825461252b565b905583519182527fddf252ad1be2c89b69c2b068fc378daa952ba7f163c4a11628f55a4df523b3ef60203393a381519061159660208301937fc2eeead625770800ba2549bf3ea57d36d80f4e01dc7994148ee2ba1629b3a68885528301896132f1565b81526115a181611e53565b519020613761565b6115b285612055565b6115bb86612055565b906020870135926130f4565b506115d182612055565b906115ee60608401926115e384612055565b608086013591612e88565b8060a06116036115fd86612055565b94612055565b940135931691167f9d48c8374928935f162c75d7310b15fb1040c13fd2f8725698fd7e66cecc0a138480a480f35b84833461029957817ffffffffffffffffffffffffffffffffffffffffffffffffffffffffffffffffc360112610299576020905160ff7f0000000000000000000000000000000000000000000000000000000000000000168152f35b84833461029957817ffffffffffffffffffffffffffffffffffffffffffffffffffffffffffffffffc3601126102995760209051468152f35b84833461029957817ffffffffffffffffffffffffffffffffffffffffffffffffffffffffffffffffc360112610299576020905160128152f35b50915034610383577ffffffffffffffffffffffffffffffffffffffffffffffffffffffffffffffffc3601126102995760243573ffffffffffffffffffffffffffffffffffffffff81168103610383576106d4913590336128c5565b508382346102995760209060207ffffffffffffffffffffffffffffffffffffffffffffffffffffffffffffffffc36011261038357611799611d6e565b9073ffffffffffffffffffffffffffffffffffffffff94858316938486526005602052828620936117c981612242565b876117d3876137e8565b50129081611951575b50156119295785875260066020528387209788548060028b01915b611842578989818a8a338352600560205282206118168254825461252b565b90555533907fc3d81b2125598b9a2b024afe09e33981f0aa5b7bcbe3e30c4303a4dec209ddb48380a380f35b7fffffffffffffffffffffffffffffffffffffffffffffffffffffffffffffffff81018181116118fd578a846bffffffffffffffffffffffff8a8f6118a39561188a91613994565b90549060031b1c93848152878b52205416911686612cd1565b80156118d1577fffffffffffffffffffffffffffffffffffffffffffffffffffffffffffffffff01806117f7565b60248a6011887f4e487b7100000000000000000000000000000000000000000000000000000000835252fd5b60248b6011897f4e487b7100000000000000000000000000000000000000000000000000000000835252fd5b8284517fddeb79ba000000000000000000000000000000000000000000000000000000008152fd5b905061195c8661338d565b5012896117dc565b93505034611a355760207ffffffffffffffffffffffffffffffffffffffffffffffffffffffffffffffffc360112611a3557359033835260056020526119ce81842073ffffffffffffffffffffffffffffffffffffffff600754168552838386206104ae33612242565b6119da82600854612076565b600855611a0882337f0000000000000000000000000000000000000000000000000000000000000000612dee565b519081527fddf252ad1be2c89b69c2b068fc378daa952ba7f163c4a11628f55a4df523b3ef60203392a380f35b5050fd5b848334610299577ffffffffffffffffffffffffffffffffffffffffffffffffffffffffffffffffc36011261022757611a70611d6e565b611a926bffffffffffffffffffffffff611a8a8333612c6c565b168233612cd1565b73ffffffffffffffffffffffffffffffffffffffff6024359116337f373c591f0f8b71e8af368873ce91220bb01eaf58ab25191225215a0a01a5fd618480a480f35b50915034610383577ffffffffffffffffffffffffffffffffffffffffffffffffffffffffffffffffc360160c08112610634576080136103835767ffffffffffffffff9060843582811161063857611b2f9036908501611dda565b93909260a435908111610630576106d494611c3c611b56611c6d94611bed94369101611dda565b9687949193611b6361200f565b8b611ba38a60443580946104ae73ffffffffffffffffffffffffffffffffffffffff93848316968781526005602052818120956007541681522091612242565b338d526005602052898d20611bb983825461252b565b905589519182527fddf252ad1be2c89b69c2b068fc378daa952ba7f163c4a11628f55a4df523b3ef60203393a33691611f07565b61056b865196611c2560208901917fe8d1c597a62d6e2ab3b9ea9b09215a043159e6e592d246bd34e13b334ab14ecd835289016130bf565b606435978860a082015260a081526115a181611e08565b50611c4561200f565b30907f0000000000000000000000000000000000000000000000000000000000000000612547565b50611c7661200f565b611c7e61200f565b9060608414938415611c91575b50612a23565b61016014935038611c8b565b8482346102995760207ffffffffffffffffffffffffffffffffffffffffffffffffffffffffffffffffc3601126102995773ffffffffffffffffffffffffffffffffffffffff611ceb611d6e565b611cf3612104565b167fffffffffffffffffffffffff000000000000000000000000000000000000000082541617905580f35b85903461029957817ffffffffffffffffffffffffffffffffffffffffffffffffffffffffffffffffc3601126102995760209073ffffffffffffffffffffffffffffffffffffffff600754168152f35b6004359073ffffffffffffffffffffffffffffffffffffffff82168203611d9157565b600080fd5b6064359073ffffffffffffffffffffffffffffffffffffffff82168203611d9157565b359073ffffffffffffffffffffffffffffffffffffffff82168203611d9157565b9181601f84011215611d915782359167ffffffffffffffff8311611d915760208381860195010111611d9157565b60c0810190811067ffffffffffffffff821117611e2457604052565b7f4e487b7100000000000000000000000000000000000000000000000000000000600052604160045260246000fd5b610100810190811067ffffffffffffffff821117611e2457604052565b6040810190811067ffffffffffffffff821117611e2457604052565b90601f7fffffffffffffffffffffffffffffffffffffffffffffffffffffffffffffffe0910116810190811067ffffffffffffffff821117611e2457604052565b67ffffffffffffffff8111611e2457601f017fffffffffffffffffffffffffffffffffffffffffffffffffffffffffffffffe01660200190565b929192611f1382611ecd565b91611f216040519384611e8c565b829481845281830111611d91578281602093846000960137010152565b9080601f83011215611d9157816020611f5993359101611f07565b90565b907ffffffffffffffffffffffffffffffffffffffffffffffffffffffffffffffffc820160e08112611d915760c013611d915760049160c4359067ffffffffffffffff8211611d9157611f5991600401611f3e565b919082519283825260005b848110611ffb5750507fffffffffffffffffffffffffffffffffffffffffffffffffffffffffffffffe0601f8460006020809697860101520116010190565b602081830181015184830182015201611fbc565b60043573ffffffffffffffffffffffffffffffffffffffff81168103611d915790565b60643573ffffffffffffffffffffffffffffffffffffffff81168103611d915790565b3573ffffffffffffffffffffffffffffffffffffffff81168103611d915790565b9190820391821161208357565b7f4e487b7100000000000000000000000000000000000000000000000000000000600052601160045260246000fd5b3d156120dd573d906120c382611ecd565b916120d16040519384611e8c565b82523d6000602084013e565b606090565b60c43561ffff81168103611d915790565b60a43561ffff81168103611d915790565b73ffffffffffffffffffffffffffffffffffffffff60025416330361212557565b60246040517f118cdaa7000000000000000000000000000000000000000000000000000000008152336004820152fd5b519069ffffffffffffffffffff82168203611d9157565b908160a0910312611d915761218081612155565b91602082015191604081015191611f59608060608401519301612155565b8181029291811591840414171561208357565b9190820180921161208357565b8115612213577fffffffffffffffffffffffffffffffffffffffffffffffffffffffffffffffff82147f8000000000000000000000000000000000000000000000000000000000000000821416612083570590565b7f4e487b7100000000000000000000000000000000000000000000000000000000600052601260045260246000fd5b6040517ffeaf968c000000000000000000000000000000000000000000000000000000008082526004939260a09173ffffffffffffffffffffffffffffffffffffffff9190838588817f000000000000000000000000000000000000000000000000000000000000000087165afa94851561243c57600095612448575b5060405190815283818881867f0000000000000000000000000000000000000000000000000000000000000000165afa93841561243c57600094612408575b5050166000526006602052604060002054611f4090808202918204036123da576201d4c09081018091116123da579061233a61233f924861219e565b61219e565b7f000000000000000000000000000000000000000000000000000000000000000060ff16919060128310156123cc5790612378916121be565b9060120360ff811161239e5760ff16604d811161239e57611f59929350600a0a906121be565b6011847f4e487b71000000000000000000000000000000000000000000000000000000006000525260246000fd5b909150611f599293506121be565b6011857f4e487b71000000000000000000000000000000000000000000000000000000006000525260246000fd5b612428929450803d10612435575b6124208183611e8c565b81019061216c565b50505090509138806122fe565b503d612416565b6040513d6000823e3d90fd5b612460919550843d8611612435576124208183611e8c565b505050905093386122bf565b8181039291600013801582851316918412161761208357565b9291906124929084613052565b825490808212612501576124a59161246c565b825560006124b2836137e8565b501291826124ed575b50506124c357565b60046040517fb2285767000000000000000000000000000000000000000000000000000000008152fd5b6124f891925061349d565b501238806124bb565b60046040517fda89fe91000000000000000000000000000000000000000000000000000000008152fd5b9190916000838201938412911290801582169115161761208357565b6040519492916064841461280d5783604814612749578360e01461270b5783610100146126cb57836060146125f357505050610160146125a9576004827f68275857000000000000000000000000000000000000000000000000000000008152fd5b61016482610160600094937f2b67b570000000000000000000000000000000000000000000000000000000008695526004830137826e22d473030f116ddee9f6b43ac78ba35af190565b6101649350600095929486956020936040937f2b67b5700000000000000000000000000000000000000000000000000000000087526004870152602486015260148260508701377fffffffffffffffffffffffffffffffffffffffffffffffffffffffffffffffff65ffffffffffff9181601485013560e01c0183166064880152601884013560e01c608488015260a4870152601c83013560e01c011660c485015261010060e4850152816101048501528280820161012486013701610144830137826e22d473030f116ddee9f6b43ac78ba35af190565b5061010492508491506000949061010086957f8fcbaf0c0000000000000000000000000000000000000000000000000000000087945260048501375af190565b5060e492508491506000949060e086957fd505accf0000000000000000000000000000000000000000000000000000000087945260048501375af190565b6101049350907f7fffffffffffffffffffffffffffffffffffffffffffffffffffffffffffffff6000969395879687947f8fcbaf0c0000000000000000000000000000000000000000000000000000000087526004870152602486015260206008602883013592803560e01c60448901527fffffffffffffffffffffffffffffffffffffffffffffffffffffffffffffffff600482013560e01c016064890152600160848901528360ff1c601b0160a48901520160c48701371660e48401525af190565b60e49350907f7fffffffffffffffffffffffffffffffffffffffffffffffffffffffffffffff6000969395879687947fd505accf0000000000000000000000000000000000000000000000000000000087526004870152602486015260206024604483013592828160448a01377fffffffffffffffffffffffffffffffffffffffffffffffffffffffffffffffff8382013560e01c0160648901528360ff1c601b0160848901520160a48701371660c48401525af190565b919073ffffffffffffffffffffffffffffffffffffffff8091169260008481526005602052604081206128f985825461252b565b9055612907846008546121b1565b6008557f000000000000000000000000000000000000000000000000000000000000000060208260646040517f23b872dd00000000000000000000000000000000000000000000000000000000815286600482015230602482015288604482015282855af191826129fe575b5050156129d4577fddf252ad1be2c89b69c2b068fc378daa952ba7f163c4a11628f55a4df523b3ef91602091857fe1fffcc4923d04b559f4d29a8bfc6cda04eb5b0d3c460751c2402c5c5cc9109c84604051888152a26040519485521692a3565b60046040517ff4059071000000000000000000000000000000000000000000000000000000008152fd5b9091503d15612a1a57600191505114601f3d11165b3880612973565b503b1515612a13565b73ffffffffffffffffffffffffffffffffffffffff8092169360008581526005602052604091828220612a5787825461252b565b9055612a65866008546121b1565b60085515612bad57838511612b84578151907f36c785160000000000000000000000000000000000000000000000000000000082528360048301523060248301528560448301527f000000000000000000000000000000000000000000000000000000000000000060648301528060846e22d473030f116ddee9f6b43ac78ba39382855af19081612b79575b5015612b5057916020917fddf252ad1be2c89b69c2b068fc378daa952ba7f163c4a11628f55a4df523b3ef935b867fe1fffcc4923d04b559f4d29a8bfc6cda04eb5b0d3c460751c2402c5c5cc9109c858351898152a2519485521692a3565b600490517ff4059071000000000000000000000000000000000000000000000000000000008152fd5b90503b151538612af1565b600482517f8112e119000000000000000000000000000000000000000000000000000000008152fd5b7f0000000000000000000000000000000000000000000000000000000000000000602082606485517f23b872dd00000000000000000000000000000000000000000000000000000000815287600482015230602482015289604482015282855af19182612c47575b505015612b5057916020917fddf252ad1be2c89b69c2b068fc378daa952ba7f163c4a11628f55a4df523b3ef93612b1e565b9091503d15612c6357600191505114601f3d11165b3880612c15565b503b1515612c5c565b90612c9e9173ffffffffffffffffffffffffffffffffffffffff809116600052600660205260406000209116906137a2565b9015612ca75790565b60046040517f237e6c28000000000000000000000000000000000000000000000000000000008152fd5b9291909273ffffffffffffffffffffffffffffffffffffffff80911693600090858252600560205260409260026bffffffffffffffffffffffff8585209683600754168652612d2287872089613052565b169501612d30868254612076565b9055808216948584526005602052612d4a85852093612242565b916007541684526005602052612d6285852084613052565b612d7160018401918254612076565b905582612d7d836137e8565b50129182612dda575b5050612db157612dae9394815260066020528181209183825260028301602052812055613a78565b50565b600482517fe9e3f12e000000000000000000000000000000000000000000000000000000008152fd5b612de591925061349d565b50123880612d86565b916044602092600092604051917fa9059cbb0000000000000000000000000000000000000000000000000000000083526004830152602482015282855af19081612e65575b5015612e3b57565b60046040517ffb7f5079000000000000000000000000000000000000000000000000000000008152fd5b90503d15612e805750600160005114601f3d11165b38612e33565b3b1515612e7a565b92919273ffffffffffffffffffffffffffffffffffffffff938482169160008381526020936006855260409283832096612ec58a821680996137a2565b9190613032575b5050818352600686526064848420541461300957868352600586526bffffffffffffffffffffffff6004858520015416948511612fe05781835260058652612f1684842091612242565b8960075416845260058752612f2d85852083613052565b60028201612f3c8782546121b1565b905583612f48836137e8565b50129182612fcc575b5050612fa3576001612dae97988784526005875284842090600754168452612f7b85852082613052565b01612f878582546121b1565b9055815260068452818120938582526002850190522055613bd9565b600483517fe9e3f12e000000000000000000000000000000000000000000000000000000008152fd5b612fd791925061349d565b50123880612f51565b600484517fd83a01fa000000000000000000000000000000000000000000000000000000008152fd5b600484517fa3f01687000000000000000000000000000000000000000000000000000000008152fd5b6bffffffffffffffffffffffff61304b92169083612cd1565b3880612ecc565b60039161305e82613423565b90835481036130b7575b50806130a3575b50500164ffffffffff42167fffffffffffffffffffffffffffffffffffffffffffffffffffffff0000000000825416179055565b6130ae90825461252b565b9055388061306f565b835538613068565b60043573ffffffffffffffffffffffffffffffffffffffff8116809103611d9157815260243560208201526040604435910152565b9193929073ffffffffffffffffffffffffffffffffffffffff80951693600094808652602093600385526040872054036132c7578552600383526040852080547fffffffffffffffffffffffffffffffffffffffffffffffffffffffffffffffff811461329a57600101905561316a8185613958565b50600481101561326d5715968761325e575b5050851561318d575b505050505090565b84955090849293949160405161320b816131df888201947f1626ba7e000000000000000000000000000000000000000000000000000000009a8b87526024840152604060448401526064830190611fb1565b037fffffffffffffffffffffffffffffffffffffffffffffffffffffffffffffffe08101835282611e8c565b51915afa926132186120b2565b9084613251575b84613233575b505050503880808080613185565b90918093945082805181010312610227575001511438808080613225565b935081815110159361321f565b8381169116149550388061317c565b6024877f4e487b710000000000000000000000000000000000000000000000000000000081526021600452fd5b6024877f4e487b710000000000000000000000000000000000000000000000000000000081526011600452fd5b60046040517f756688fe000000000000000000000000000000000000000000000000000000008152fd5b60a0809173ffffffffffffffffffffffffffffffffffffffff8061331483611db9565b168552602082013560208601526040820135604086015261333760608301611db9565b166060850152608081013560808501520135910152565b8181029291600082127f800000000000000000000000000000000000000000000000000000000000000082141661208357818405149015171561208357565b9064ffffffffff60038301541665ffffffffffff42168114801561341b575b613412576133b9836137e8565b93909182158061340a575b6133ff576133d29042612076565b9062015180820180921161208357611f59926133f3836133f993549261334e565b9061252b565b9361219e565b505492506000919050565b5084156133c4565b50905490600090565b5080156133ac565b9064ffffffffff6003830154169165ffffffffffff421683148015613495575b61348d57613450816137e8565b93811580613485575b61347b57611f5992916133f36134726133f99342612076565b8094549261334e565b5050549150600090565b508415613459565b549150600090565b508215613443565b9064ffffffffff60038301541665ffffffffffff42168114801561350b575b613412576134c9836137e8565b939091821580613503575b6133ff576134e29042612076565b906202a300820180921161208357611f59926133f3836133f993549261334e565b5084156134d4565b5080156134bc565b60ff81146135695760ff811690601f821161353f576040519161353583611e70565b8252602082015290565b60046040517fb3512b0c000000000000000000000000000000000000000000000000000000008152fd5b50604051600080549060018260011c906001841693841561367e575b6020948584108114613651578387528694939291811561361257506001146135b6575b5050611f5992500382611e8c565b60008080527f290decd9548b62a8d60345a988386fc84ba6bc95484008f6362f93160ef3e56395935091905b8183106135fa575050611f59935082010138806135a8565b855487840185015294850194869450918301916135e2565b9050611f599593507fffffffffffffffffffffffffffffffffffffffffffffffffffffffffffffff0091501682840152151560051b82010138806135a8565b6024857f4e487b710000000000000000000000000000000000000000000000000000000081526022600452fd5b91607f1691613585565b60ff81146136aa5760ff811690601f821161353f576040519161353583611e70565b506040516000600190600154918260011c9060018416938415613757575b6020948584108114613651578387528694939291811561361257506001146136f8575050611f5992500382611e8c565b9093915060016000527fb10e2d527612073b26eecdfd717e6a320cf44b4afac2b0732d9fcbe2b7fa0cf6936000915b81831061373f575050611f59935082010138806135a8565b85548784018501529485019486945091830191613727565b91607f16916136c8565b60429061376c613831565b90604051917f19010000000000000000000000000000000000000000000000000000000000008352600283015260228201522090565b919080600052600283016020526040600020549283156000146137e0576137da92935060019160005201602052604060002054151590565b90600090565b505060019190565b9060018201549161382d6004820154936127109261382261ffff91600286613818858b60601c1660010b8761334e565b059101549061246c565b9560701c169061219e565b0490565b73ffffffffffffffffffffffffffffffffffffffff7f00000000000000000000000000000000000000000000000000000000000000001630148061392f575b15613899577f000000000000000000000000000000000000000000000000000000000000000090565b60405160208101907f8b73c3c69bb8fe3d512ecc4cf759cc79239f7b179b0ffacaa9a75d522b39400f82527f000000000000000000000000000000000000000000000000000000000000000060408201527f000000000000000000000000000000000000000000000000000000000000000060608201524660808201523060a082015260a0815261392981611e08565b51902090565b507f00000000000000000000000000000000000000000000000000000000000000004614613870565b81519190604183036139895761398292506020820151906060604084015193015160001a906139db565b9192909190565b505060009160029190565b80548210156139ac5760005260206000200190600090565b7f4e487b7100000000000000000000000000000000000000000000000000000000600052603260045260246000fd5b91907f7fffffffffffffffffffffffffffffff5d576e7357a4501ddfe92f46681b20a08411613a6c57926020929160ff608095604051948552168484015260408301526060820152600092839182805260015afa15613a6057805173ffffffffffffffffffffffffffffffffffffffff811615613a5757918190565b50809160019190565b604051903d90823e3d90fd5b50505060009160039190565b90600182019060009281845282602052604084205490811515600014613bd2577fffffffffffffffffffffffffffffffffffffffffffffffffffffffffffffffff9182810181811161329a57825490848201918211613ba557818103613b3b575b50505080548015613b0e57820191613af18383613994565b909182549160031b1b191690555582526020526040812055600190565b6024867f4e487b710000000000000000000000000000000000000000000000000000000081526031600452fd5b613b90613b4b613b5b9386613994565b90549060031b1c92839286613994565b81939154907fffffffffffffffffffffffffffffffffffffffffffffffffffffffffffffffff9060031b92831b921b19161790565b90558652846020526040862055388080613ad9565b6024887f4e487b710000000000000000000000000000000000000000000000000000000081526011600452fd5b5050505090565b6000828152600182016020526040902054613c2e5780549068010000000000000000821015611e245782613c17613b5b846001809601855584613994565b905580549260005201602052604060002055600190565b505060009056fea264697066735822122062eb49d83ee27ea0ad3484549cab0aeed7e5637cf443a9f67f562e3d5a74ee0f64736f6c63430008180033",
  "devdoc": {
    "errors": {
      "OwnableInvalidOwner(address)": [
        {
          "details": "The owner is not a valid owner account. (eg. `address(0)`)"
        }
      ],
      "OwnableUnauthorizedAccount(address)": [
        {
          "details": "The caller account is not authorized to perform an operation."
        }
      ]
    },
    "events": {
      "EIP712DomainChanged()": {
        "details": "MAY be emitted to signal that the domain could have changed."
      }
    },
    "kind": "dev",
    "methods": {
      "eip712Domain()": {
        "details": "See {IERC-5267}."
      },
      "owner()": {
        "details": "Returns the address of the current owner."
      },
      "renounceOwnership()": {
        "details": "Leaves the contract without owner. It will not be possible to call `onlyOwner` functions. Can only be called by the current owner. NOTE: Renouncing ownership will leave the contract without an owner, thereby disabling any functionality that is only available to the owner."
      },
      "transferOwnership(address)": {
        "details": "Transfers ownership of the contract to a new account (`newOwner`). Can only be called by the current owner."
      }
    },
    "version": 1
  },
  "userdoc": {
    "kind": "user",
    "methods": {},
    "version": 1
  },
  "storageLayout": {
    "storage": [
      {
        "astId": 3024,
        "contract": "contracts/Payout.sol:Payout",
        "label": "_nameFallback",
        "offset": 0,
        "slot": "0",
        "type": "t_string_storage"
      },
      {
        "astId": 3026,
        "contract": "contracts/Payout.sol:Payout",
        "label": "_versionFallback",
        "offset": 0,
        "slot": "1",
        "type": "t_string_storage"
      },
      {
        "astId": 835,
        "contract": "contracts/Payout.sol:Payout",
        "label": "_owner",
        "offset": 0,
        "slot": "2",
        "type": "t_address"
      },
      {
        "astId": 7473,
        "contract": "contracts/Payout.sol:Payout",
        "label": "nonces",
        "offset": 0,
        "slot": "3",
        "type": "t_mapping(t_address,t_uint256)"
      },
      {
        "astId": 7475,
        "contract": "contracts/Payout.sol:Payout",
        "label": "protocolSigner",
        "offset": 0,
        "slot": "4",
        "type": "t_address"
      },
      {
        "astId": 6332,
        "contract": "contracts/Payout.sol:Payout",
        "label": "users",
        "offset": 0,
        "slot": "5",
        "type": "t_mapping(t_address,t_struct(User)7969_storage)"
      },
      {
        "astId": 6337,
        "contract": "contracts/Payout.sol:Payout",
        "label": "_subscriptions",
        "offset": 0,
        "slot": "6",
        "type": "t_mapping(t_address,t_struct(AddressToUintMap)5228_storage)"
      },
      {
        "astId": 6339,
        "contract": "contracts/Payout.sol:Payout",
        "label": "protocolWallet",
        "offset": 0,
        "slot": "7",
        "type": "t_address"
      },
      {
        "astId": 6341,
        "contract": "contracts/Payout.sol:Payout",
        "label": "totalBalance",
        "offset": 0,
        "slot": "8",
        "type": "t_uint256"
      }
    ],
    "types": {
      "t_address": {
        "encoding": "inplace",
        "label": "address",
        "numberOfBytes": "20"
      },
      "t_array(t_bytes32)dyn_storage": {
        "base": "t_bytes32",
        "encoding": "dynamic_array",
        "label": "bytes32[]",
        "numberOfBytes": "32"
      },
      "t_bytes32": {
        "encoding": "inplace",
        "label": "bytes32",
        "numberOfBytes": "32"
      },
      "t_int256": {
        "encoding": "inplace",
        "label": "int256",
        "numberOfBytes": "32"
      },
      "t_mapping(t_address,t_struct(AddressToUintMap)5228_storage)": {
        "encoding": "mapping",
        "key": "t_address",
        "label": "mapping(address => struct EnumerableMap.AddressToUintMap)",
        "numberOfBytes": "32",
        "value": "t_struct(AddressToUintMap)5228_storage"
      },
      "t_mapping(t_address,t_struct(User)7969_storage)": {
        "encoding": "mapping",
        "key": "t_address",
        "label": "mapping(address => struct UserLib.User)",
        "numberOfBytes": "32",
        "value": "t_struct(User)7969_storage"
      },
      "t_mapping(t_address,t_uint256)": {
        "encoding": "mapping",
        "key": "t_address",
        "label": "mapping(address => uint256)",
        "numberOfBytes": "32",
        "value": "t_uint256"
      },
      "t_mapping(t_bytes32,t_bytes32)": {
        "encoding": "mapping",
        "key": "t_bytes32",
        "label": "mapping(bytes32 => bytes32)",
        "numberOfBytes": "32",
        "value": "t_bytes32"
      },
      "t_mapping(t_bytes32,t_uint256)": {
        "encoding": "mapping",
        "key": "t_bytes32",
        "label": "mapping(bytes32 => uint256)",
        "numberOfBytes": "32",
        "value": "t_uint256"
      },
      "t_string_storage": {
        "encoding": "bytes",
        "label": "string",
        "numberOfBytes": "32"
      },
      "t_struct(AddressToUintMap)5228_storage": {
        "encoding": "inplace",
        "label": "struct EnumerableMap.AddressToUintMap",
        "members": [
          {
            "astId": 5227,
            "contract": "contracts/Payout.sol:Payout",
            "label": "_inner",
            "offset": 0,
            "slot": "0",
            "type": "t_struct(Bytes32ToBytes32Map)4570_storage"
          }
        ],
        "numberOfBytes": "96"
      },
      "t_struct(Bytes32Set)5868_storage": {
        "encoding": "inplace",
        "label": "struct EnumerableSet.Bytes32Set",
        "members": [
          {
            "astId": 5867,
            "contract": "contracts/Payout.sol:Payout",
            "label": "_inner",
            "offset": 0,
            "slot": "0",
            "type": "t_struct(Set)5674_storage"
          }
        ],
        "numberOfBytes": "64"
      },
      "t_struct(Bytes32ToBytes32Map)4570_storage": {
        "encoding": "inplace",
        "label": "struct EnumerableMap.Bytes32ToBytes32Map",
        "members": [
          {
            "astId": 4565,
            "contract": "contracts/Payout.sol:Payout",
            "label": "_keys",
            "offset": 0,
            "slot": "0",
            "type": "t_struct(Bytes32Set)5868_storage"
          },
          {
            "astId": 4569,
            "contract": "contracts/Payout.sol:Payout",
            "label": "_values",
            "offset": 0,
            "slot": "2",
            "type": "t_mapping(t_bytes32,t_bytes32)"
          }
        ],
        "numberOfBytes": "96"
      },
      "t_struct(Set)5674_storage": {
        "encoding": "inplace",
        "label": "struct EnumerableSet.Set",
        "members": [
          {
            "astId": 5669,
            "contract": "contracts/Payout.sol:Payout",
            "label": "_values",
            "offset": 0,
            "slot": "0",
            "type": "t_array(t_bytes32)dyn_storage"
          },
          {
            "astId": 5673,
            "contract": "contracts/Payout.sol:Payout",
            "label": "_positions",
            "offset": 0,
            "slot": "1",
            "type": "t_mapping(t_bytes32,t_uint256)"
          }
        ],
        "numberOfBytes": "64"
      },
      "t_struct(Settings)7454_storage": {
        "encoding": "inplace",
        "label": "struct PayoutSigVerifier.Settings",
        "members": [
          {
            "astId": 7449,
            "contract": "contracts/Payout.sol:Payout",
            "label": "subscriptionRate",
            "offset": 0,
            "slot": "0",
            "type": "t_uint96"
          },
          {
            "astId": 7451,
            "contract": "contracts/Payout.sol:Payout",
            "label": "userFee",
            "offset": 12,
            "slot": "0",
            "type": "t_uint16"
          },
          {
            "astId": 7453,
            "contract": "contracts/Payout.sol:Payout",
            "label": "protocolFee",
            "offset": 14,
            "slot": "0",
            "type": "t_uint16"
          }
        ],
        "numberOfBytes": "32"
      },
      "t_struct(User)7969_storage": {
        "encoding": "inplace",
        "label": "struct UserLib.User",
        "members": [
          {
            "astId": 7959,
            "contract": "contracts/Payout.sol:Payout",
            "label": "balance",
            "offset": 0,
            "slot": "0",
            "type": "t_int256"
          },
          {
            "astId": 7961,
            "contract": "contracts/Payout.sol:Payout",
            "label": "incomeRate",
            "offset": 0,
            "slot": "1",
            "type": "t_uint256"
          },
          {
            "astId": 7963,
            "contract": "contracts/Payout.sol:Payout",
            "label": "outgoingRate",
            "offset": 0,
            "slot": "2",
            "type": "t_uint256"
          },
          {
            "astId": 7965,
            "contract": "contracts/Payout.sol:Payout",
            "label": "updTimestamp",
            "offset": 0,
            "slot": "3",
            "type": "t_uint40"
          },
          {
            "astId": 7968,
            "contract": "contracts/Payout.sol:Payout",
            "label": "settings",
            "offset": 0,
            "slot": "4",
            "type": "t_struct(Settings)7454_storage"
          }
        ],
        "numberOfBytes": "160"
      },
      "t_uint16": {
        "encoding": "inplace",
        "label": "uint16",
        "numberOfBytes": "2"
      },
      "t_uint256": {
        "encoding": "inplace",
        "label": "uint256",
        "numberOfBytes": "32"
      },
      "t_uint40": {
        "encoding": "inplace",
        "label": "uint40",
        "numberOfBytes": "5"
      },
      "t_uint96": {
        "encoding": "inplace",
        "label": "uint96",
        "numberOfBytes": "12"
      }
    }
  }
}