{
  "address": "0x1c3E45F2D9Dd65ceb6a644A646337015119952ff",
  "abi": [
    {
      "inputs": [
        {
          "internalType": "address",
          "name": "CHAIN_PRICE_FEED_",
          "type": "address"
        },
        {
          "internalType": "address",
          "name": "TOKEN_PRICE_FEED_",
          "type": "address"
        },
        {
          "internalType": "address",
          "name": "TOKEN_",
          "type": "address"
        }
      ],
      "stateMutability": "nonpayable",
      "type": "constructor"
    },
    {
      "inputs": [
        {
          "internalType": "uint256",
          "name": "projectId",
          "type": "uint256"
        }
      ],
      "name": "AccessDenied",
      "type": "error"
    },
    {
      "inputs": [
        {
          "internalType": "address",
          "name": "target",
          "type": "address"
        }
      ],
      "name": "AddressEmptyCode",
      "type": "error"
    },
    {
      "inputs": [
        {
          "internalType": "address",
          "name": "account",
          "type": "address"
        }
      ],
      "name": "AddressInsufficientBalance",
      "type": "error"
    },
    {
      "inputs": [],
      "name": "DeadlineExceeded",
      "type": "error"
    },
    {
      "inputs": [
        {
          "internalType": "bytes32",
          "name": "key",
          "type": "bytes32"
        }
      ],
      "name": "EnumerableMapNonexistentKey",
      "type": "error"
    },
    {
      "inputs": [],
      "name": "ExcessOfRate",
      "type": "error"
    },
    {
      "inputs": [],
      "name": "ExcessOfSubscriptions",
      "type": "error"
    },
    {
      "inputs": [],
      "name": "FailedInnerCall",
      "type": "error"
    },
    {
      "inputs": [],
      "name": "IndexOutOfBounds",
      "type": "error"
    },
    {
      "inputs": [],
      "name": "InsufficialBalance",
      "type": "error"
    },
    {
      "inputs": [
        {
          "internalType": "uint256",
          "name": "projectId",
          "type": "uint256"
        }
      ],
      "name": "InvalidProjectId",
      "type": "error"
    },
    {
      "inputs": [],
      "name": "InvalidShortString",
      "type": "error"
    },
    {
      "inputs": [],
      "name": "NotLegal",
      "type": "error"
    },
    {
      "inputs": [],
      "name": "NotLiquidatable",
      "type": "error"
    },
    {
      "inputs": [],
      "name": "NotSubscribed",
      "type": "error"
    },
    {
      "inputs": [
        {
          "internalType": "address",
          "name": "owner",
          "type": "address"
        }
      ],
      "name": "OwnableInvalidOwner",
      "type": "error"
    },
    {
      "inputs": [
        {
          "internalType": "address",
          "name": "account",
          "type": "address"
        }
      ],
      "name": "OwnableUnauthorizedAccount",
      "type": "error"
    },
    {
      "inputs": [],
      "name": "Permit2TransferAmountTooHigh",
      "type": "error"
    },
    {
      "inputs": [],
      "name": "ReduceTheAmount",
      "type": "error"
    },
    {
      "inputs": [
        {
          "internalType": "uint256",
          "name": "value",
          "type": "uint256"
        }
      ],
      "name": "SafeCastOverflowedUintToInt",
      "type": "error"
    },
    {
      "inputs": [],
      "name": "SafeTransferFailed",
      "type": "error"
    },
    {
      "inputs": [],
      "name": "SafeTransferFromFailed",
      "type": "error"
    },
    {
      "inputs": [
        {
          "internalType": "string",
          "name": "str",
          "type": "string"
        }
      ],
      "name": "StringTooLong",
      "type": "error"
    },
    {
      "inputs": [],
      "name": "TopUpBalance",
      "type": "error"
    },
    {
      "inputs": [],
      "name": "WrongNonce",
      "type": "error"
    },
    {
      "inputs": [],
      "name": "WrongNonceType",
      "type": "error"
    },
    {
      "inputs": [],
      "name": "WrongPercent",
      "type": "error"
    },
    {
      "inputs": [],
      "name": "WrongRelayer",
      "type": "error"
    },
    {
      "inputs": [],
      "name": "WrongSignature",
      "type": "error"
    },
    {
      "inputs": [],
      "name": "WrongToken",
      "type": "error"
    },
    {
      "anonymous": false,
      "inputs": [],
      "name": "EIP712DomainChanged",
      "type": "event"
    },
    {
      "anonymous": false,
      "inputs": [
        {
          "indexed": true,
          "internalType": "address",
          "name": "user",
          "type": "address"
        },
        {
          "indexed": true,
          "internalType": "address",
          "name": "liquidator",
          "type": "address"
        }
      ],
      "name": "Liquidated",
      "type": "event"
    },
    {
      "anonymous": false,
      "inputs": [
        {
          "indexed": true,
          "internalType": "address",
          "name": "previousOwner",
          "type": "address"
        },
        {
          "indexed": true,
          "internalType": "address",
          "name": "newOwner",
          "type": "address"
        }
      ],
      "name": "OwnershipTransferred",
      "type": "event"
    },
    {
      "anonymous": false,
      "inputs": [
        {
          "indexed": false,
          "internalType": "uint256",
          "name": "projectId",
          "type": "uint256"
        },
        {
          "indexed": false,
          "internalType": "address",
          "name": "admin",
          "type": "address"
        }
      ],
      "name": "ProjectIdClaimed",
      "type": "event"
    },
    {
      "anonymous": false,
      "inputs": [
        {
          "indexed": true,
          "internalType": "uint256",
          "name": "projectId",
          "type": "uint256"
        },
        {
          "indexed": false,
          "internalType": "uint16",
          "name": "protocolFee",
          "type": "uint16"
        }
      ],
      "name": "SetDefaultSettings",
      "type": "event"
    },
    {
      "anonymous": false,
      "inputs": [
        {
          "indexed": true,
          "internalType": "uint256",
          "name": "projectId",
          "type": "uint256"
        },
        {
          "indexed": true,
          "internalType": "address",
          "name": "user",
          "type": "address"
        },
        {
          "indexed": false,
          "internalType": "uint16",
          "name": "protocolFee",
          "type": "uint16"
        }
      ],
      "name": "SetSettingsForUser",
      "type": "event"
    },
    {
      "anonymous": false,
      "inputs": [
        {
          "indexed": true,
          "internalType": "address",
          "name": "user",
          "type": "address"
        },
        {
          "indexed": true,
          "internalType": "address",
          "name": "author",
          "type": "address"
        },
        {
          "indexed": true,
          "internalType": "uint256",
          "name": "encodedRates",
          "type": "uint256"
        }
      ],
      "name": "StreamCreated",
      "type": "event"
    },
    {
      "anonymous": false,
      "inputs": [
        {
          "indexed": true,
          "internalType": "address",
          "name": "user",
          "type": "address"
        },
        {
          "indexed": true,
          "internalType": "address",
          "name": "author",
          "type": "address"
        },
        {
          "indexed": true,
          "internalType": "uint256",
          "name": "encodedRates",
          "type": "uint256"
        }
      ],
      "name": "StreamRevoked",
      "type": "event"
    },
    {
      "anonymous": false,
      "inputs": [
        {
          "indexed": true,
          "internalType": "address",
          "name": "_from",
          "type": "address"
        },
        {
          "indexed": true,
          "internalType": "address",
          "name": "_to",
          "type": "address"
        },
        {
          "indexed": false,
          "internalType": "uint256",
          "name": "_value",
          "type": "uint256"
        }
      ],
      "name": "Transfer",
      "type": "event"
    },
    {
      "inputs": [],
      "name": "APPROX_LIQUIDATE_GAS",
      "outputs": [
        {
          "internalType": "uint256",
          "name": "",
          "type": "uint256"
        }
      ],
      "stateMutability": "view",
      "type": "function"
    },
    {
      "inputs": [],
      "name": "APPROX_SUBSCRIPTION_GAS",
      "outputs": [
        {
          "internalType": "uint256",
          "name": "",
          "type": "uint256"
        }
      ],
      "stateMutability": "view",
      "type": "function"
    },
    {
      "inputs": [],
      "name": "COIN_PRICE_FEED",
      "outputs": [
        {
          "internalType": "contract AggregatorV3Interface",
          "name": "",
          "type": "address"
        }
      ],
      "stateMutability": "view",
      "type": "function"
    },
    {
      "inputs": [],
      "name": "DECIMALS_SCALE",
      "outputs": [
        {
          "internalType": "uint256",
          "name": "",
          "type": "uint256"
        }
      ],
      "stateMutability": "view",
      "type": "function"
    },
    {
      "inputs": [],
      "name": "FLOOR",
      "outputs": [
        {
          "internalType": "uint256",
          "name": "",
          "type": "uint256"
        }
      ],
      "stateMutability": "view",
      "type": "function"
    },
    {
      "inputs": [],
      "name": "MAX_PROTOCOL_FEE",
      "outputs": [
        {
          "internalType": "uint256",
          "name": "",
          "type": "uint256"
        }
      ],
      "stateMutability": "view",
      "type": "function"
    },
    {
      "inputs": [],
      "name": "SIGNED_CALL_TYPEHASH",
      "outputs": [
        {
          "internalType": "bytes32",
          "name": "",
          "type": "bytes32"
        }
      ],
      "stateMutability": "view",
      "type": "function"
    },
    {
      "inputs": [],
      "name": "SUBSCRIPTION_THRESHOLD",
      "outputs": [
        {
          "internalType": "uint8",
          "name": "",
          "type": "uint8"
        }
      ],
      "stateMutability": "view",
      "type": "function"
    },
    {
      "inputs": [],
      "name": "TOKEN",
      "outputs": [
        {
          "internalType": "contract IERC20",
          "name": "",
          "type": "address"
        }
      ],
      "stateMutability": "view",
      "type": "function"
    },
    {
      "inputs": [],
      "name": "TOKEN_PRICE_FEED",
      "outputs": [
        {
          "internalType": "contract AggregatorV3Interface",
          "name": "",
          "type": "address"
        }
      ],
      "stateMutability": "view",
      "type": "function"
    },
    {
      "inputs": [],
      "name": "allProjectOwners",
      "outputs": [
        {
          "internalType": "address[]",
          "name": "",
          "type": "address[]"
        }
      ],
      "stateMutability": "view",
      "type": "function"
    },
    {
      "inputs": [
        {
          "internalType": "address",
          "name": "from",
          "type": "address"
        }
      ],
      "name": "allSubscriptions",
      "outputs": [
        {
          "internalType": "address[]",
          "name": "to",
          "type": "address[]"
        },
        {
          "internalType": "uint256[]",
          "name": "encodedRates",
          "type": "uint256[]"
        }
      ],
      "stateMutability": "view",
      "type": "function"
    },
    {
      "inputs": [
        {
          "internalType": "address",
          "name": "account",
          "type": "address"
        }
      ],
      "name": "balanceOf",
      "outputs": [
        {
          "internalType": "uint256",
          "name": "",
          "type": "uint256"
        }
      ],
      "stateMutability": "view",
      "type": "function"
    },
    {
      "inputs": [
        {
          "internalType": "address",
          "name": "signer",
          "type": "address"
        },
        {
          "components": [
            {
              "internalType": "BySigTraits.Value",
              "name": "traits",
              "type": "uint256"
            },
            {
              "internalType": "bytes",
              "name": "data",
              "type": "bytes"
            }
          ],
          "internalType": "struct BySig.SignedCall",
          "name": "sig",
          "type": "tuple"
        },
        {
          "internalType": "bytes",
          "name": "signature",
          "type": "bytes"
        }
      ],
      "name": "bySig",
      "outputs": [
        {
          "internalType": "bytes",
          "name": "ret",
          "type": "bytes"
        }
      ],
      "stateMutability": "payable",
      "type": "function"
    },
    {
      "inputs": [
        {
          "internalType": "address",
          "name": "account",
          "type": "address"
        }
      ],
      "name": "bySigAccountNonces",
      "outputs": [
        {
          "internalType": "uint256",
          "name": "",
          "type": "uint256"
        }
      ],
      "stateMutability": "view",
      "type": "function"
    },
    {
      "inputs": [
        {
          "internalType": "address",
          "name": "account",
          "type": "address"
        },
        {
          "internalType": "bytes4",
          "name": "selector",
          "type": "bytes4"
        }
      ],
      "name": "bySigSelectorNonces",
      "outputs": [
        {
          "internalType": "uint256",
          "name": "",
          "type": "uint256"
        }
      ],
      "stateMutability": "view",
      "type": "function"
    },
    {
      "inputs": [
        {
          "internalType": "address",
          "name": "account",
          "type": "address"
        },
        {
          "internalType": "uint256",
          "name": "nonce",
          "type": "uint256"
        }
      ],
      "name": "bySigUniqueNonces",
      "outputs": [
        {
          "internalType": "bool",
          "name": "",
          "type": "bool"
        }
      ],
      "stateMutability": "view",
      "type": "function"
    },
    {
      "inputs": [
        {
          "internalType": "address",
          "name": "account",
          "type": "address"
        },
        {
          "internalType": "uint256",
          "name": "nonce",
          "type": "uint256"
        }
      ],
      "name": "bySigUniqueNoncesSlot",
      "outputs": [
        {
          "internalType": "uint256",
          "name": "",
          "type": "uint256"
        }
      ],
      "stateMutability": "view",
      "type": "function"
    },
    {
      "inputs": [],
      "name": "claimProjectId",
      "outputs": [],
      "stateMutability": "nonpayable",
      "type": "function"
    },
    {
      "inputs": [],
      "name": "decimals",
      "outputs": [
        {
          "internalType": "uint8",
          "name": "",
          "type": "uint8"
        }
      ],
      "stateMutability": "pure",
      "type": "function"
    },
    {
      "inputs": [
        {
          "internalType": "uint256",
          "name": "projectId",
          "type": "uint256"
        }
      ],
      "name": "defaultSettings",
      "outputs": [
        {
          "internalType": "bool",
          "name": "initialized",
          "type": "bool"
        },
        {
          "internalType": "uint16",
          "name": "projectFee",
          "type": "uint16"
        }
      ],
      "stateMutability": "view",
      "type": "function"
    },
    {
      "inputs": [
        {
          "internalType": "uint256",
          "name": "amount",
          "type": "uint256"
        },
        {
          "internalType": "bool",
          "name": "isPermit2",
          "type": "bool"
        }
      ],
      "name": "deposit",
      "outputs": [],
      "stateMutability": "nonpayable",
      "type": "function"
    },
    {
      "inputs": [
        {
          "internalType": "uint256",
          "name": "amount",
          "type": "uint256"
        },
        {
          "internalType": "address",
          "name": "to",
          "type": "address"
        },
        {
          "internalType": "bool",
          "name": "isPermit2",
          "type": "bool"
        }
      ],
      "name": "depositFor",
      "outputs": [],
      "stateMutability": "nonpayable",
      "type": "function"
    },
    {
      "inputs": [],
      "name": "eip712Domain",
      "outputs": [
        {
          "internalType": "bytes1",
          "name": "fields",
          "type": "bytes1"
        },
        {
          "internalType": "string",
          "name": "name",
          "type": "string"
        },
        {
          "internalType": "string",
          "name": "version",
          "type": "string"
        },
        {
          "internalType": "uint256",
          "name": "chainId",
          "type": "uint256"
        },
        {
          "internalType": "address",
          "name": "verifyingContract",
          "type": "address"
        },
        {
          "internalType": "bytes32",
          "name": "salt",
          "type": "bytes32"
        },
        {
          "internalType": "uint256[]",
          "name": "extensions",
          "type": "uint256[]"
        }
      ],
      "stateMutability": "view",
      "type": "function"
    },
    {
      "inputs": [
        {
          "components": [
            {
              "internalType": "BySigTraits.Value",
              "name": "traits",
              "type": "uint256"
            },
            {
              "internalType": "bytes",
              "name": "data",
              "type": "bytes"
            }
          ],
          "internalType": "struct BySig.SignedCall",
          "name": "sig",
          "type": "tuple"
        }
      ],
      "name": "hashBySig",
      "outputs": [
        {
          "internalType": "bytes32",
          "name": "",
          "type": "bytes32"
        }
      ],
      "stateMutability": "view",
      "type": "function"
    },
    {
      "inputs": [
        {
          "internalType": "address",
          "name": "account",
          "type": "address"
        }
      ],
      "name": "liquidate",
      "outputs": [],
      "stateMutability": "nonpayable",
      "type": "function"
    },
    {
      "inputs": [
        {
          "internalType": "bytes[]",
          "name": "data",
          "type": "bytes[]"
        }
      ],
      "name": "multicall",
      "outputs": [
        {
          "internalType": "bytes[]",
          "name": "results",
          "type": "bytes[]"
        }
      ],
      "stateMutability": "nonpayable",
      "type": "function"
    },
    {
      "inputs": [],
      "name": "name",
      "outputs": [
        {
          "internalType": "string",
          "name": "",
          "type": "string"
        }
      ],
      "stateMutability": "view",
      "type": "function"
    },
    {
      "inputs": [],
      "name": "owner",
      "outputs": [
        {
          "internalType": "address",
          "name": "",
          "type": "address"
        }
      ],
      "stateMutability": "view",
      "type": "function"
    },
    {
      "inputs": [
        {
          "internalType": "address",
          "name": "receiver",
          "type": "address"
        },
        {
          "internalType": "uint256",
          "name": "amount",
          "type": "uint256"
        }
      ],
      "name": "pay",
      "outputs": [],
      "stateMutability": "nonpayable",
      "type": "function"
    },
    {
      "inputs": [
        {
          "internalType": "bytes",
          "name": "permit",
          "type": "bytes"
        },
        {
          "internalType": "bytes",
          "name": "action",
          "type": "bytes"
        }
      ],
      "name": "permitAndCall",
      "outputs": [],
      "stateMutability": "payable",
      "type": "function"
    },
    {
      "inputs": [
        {
          "internalType": "uint256",
          "name": "",
          "type": "uint256"
        }
      ],
      "name": "projectOwners",
      "outputs": [
        {
          "internalType": "address",
          "name": "",
          "type": "address"
        }
      ],
      "stateMutability": "view",
      "type": "function"
    },
    {
      "inputs": [],
      "name": "renounceOwnership",
      "outputs": [],
      "stateMutability": "nonpayable",
      "type": "function"
    },
    {
      "inputs": [
        {
          "internalType": "contract IERC20",
          "name": "token",
          "type": "address"
        },
        {
          "internalType": "uint256",
          "name": "amount",
          "type": "uint256"
        }
      ],
      "name": "rescueFunds",
      "outputs": [],
      "stateMutability": "nonpayable",
      "type": "function"
    },
    {
      "inputs": [
        {
          "components": [
            {
              "internalType": "bool",
              "name": "initialized",
              "type": "bool"
            },
            {
              "internalType": "uint16",
              "name": "projectFee",
              "type": "uint16"
            }
          ],
          "internalType": "struct IPapaya.Settings",
          "name": "settings",
          "type": "tuple"
        },
        {
          "internalType": "uint256",
          "name": "projectId",
          "type": "uint256"
        }
      ],
      "name": "setDefaultSettings",
      "outputs": [],
      "stateMutability": "nonpayable",
      "type": "function"
    },
    {
      "inputs": [
        {
          "internalType": "address",
          "name": "user",
          "type": "address"
        },
        {
          "components": [
            {
              "internalType": "bool",
              "name": "initialized",
              "type": "bool"
            },
            {
              "internalType": "uint16",
              "name": "projectFee",
              "type": "uint16"
            }
          ],
          "internalType": "struct IPapaya.Settings",
          "name": "settings",
          "type": "tuple"
        },
        {
          "internalType": "uint256",
          "name": "projectId",
          "type": "uint256"
        }
      ],
      "name": "setSettingsForUser",
      "outputs": [],
      "stateMutability": "nonpayable",
      "type": "function"
    },
    {
      "inputs": [
        {
          "internalType": "address",
          "name": "token",
          "type": "address"
        },
        {
          "internalType": "uint256",
          "name": "amount",
          "type": "uint256"
        },
        {
          "internalType": "bytes",
          "name": "data",
          "type": "bytes"
        },
        {
          "internalType": "bytes",
          "name": "extraData",
          "type": "bytes"
        }
      ],
      "name": "sponsoredCall",
      "outputs": [
        {
          "internalType": "bytes",
          "name": "ret",
          "type": "bytes"
        }
      ],
      "stateMutability": "payable",
      "type": "function"
    },
    {
      "inputs": [
        {
          "internalType": "address",
          "name": "author",
          "type": "address"
        },
        {
          "internalType": "uint96",
          "name": "subscriptionRate",
          "type": "uint96"
        },
        {
          "internalType": "uint256",
          "name": "projectId",
          "type": "uint256"
        }
      ],
      "name": "subscribe",
      "outputs": [],
      "stateMutability": "nonpayable",
      "type": "function"
    },
    {
      "inputs": [
        {
          "internalType": "address",
          "name": "from",
          "type": "address"
        },
        {
          "internalType": "address",
          "name": "to",
          "type": "address"
        }
      ],
      "name": "subscriptions",
      "outputs": [
        {
          "internalType": "bool",
          "name": "",
          "type": "bool"
        },
        {
          "internalType": "uint256",
          "name": "encodedRates",
          "type": "uint256"
        }
      ],
      "stateMutability": "view",
      "type": "function"
    },
    {
      "inputs": [],
      "name": "symbol",
      "outputs": [
        {
          "internalType": "string",
          "name": "",
          "type": "string"
        }
      ],
      "stateMutability": "view",
      "type": "function"
    },
    {
      "inputs": [],
      "name": "totalSupply",
      "outputs": [
        {
          "internalType": "uint256",
          "name": "",
          "type": "uint256"
        }
      ],
      "stateMutability": "view",
      "type": "function"
    },
    {
      "inputs": [
        {
          "internalType": "address",
          "name": "newOwner",
          "type": "address"
        }
      ],
      "name": "transferOwnership",
      "outputs": [],
      "stateMutability": "nonpayable",
      "type": "function"
    },
    {
      "inputs": [
        {
          "internalType": "address",
          "name": "author",
          "type": "address"
        }
      ],
      "name": "unsubscribe",
      "outputs": [],
      "stateMutability": "nonpayable",
      "type": "function"
    },
    {
      "inputs": [
        {
          "internalType": "uint32",
          "name": "advance",
          "type": "uint32"
        }
      ],
      "name": "useBySigAccountNonce",
      "outputs": [],
      "stateMutability": "nonpayable",
      "type": "function"
    },
    {
      "inputs": [
        {
          "internalType": "bytes4",
          "name": "selector",
          "type": "bytes4"
        },
        {
          "internalType": "uint32",
          "name": "advance",
          "type": "uint32"
        }
      ],
      "name": "useBySigSelectorNonce",
      "outputs": [],
      "stateMutability": "nonpayable",
      "type": "function"
    },
    {
      "inputs": [
        {
          "internalType": "uint256",
          "name": "nonce",
          "type": "uint256"
        }
      ],
      "name": "useBySigUniqueNonce",
      "outputs": [],
      "stateMutability": "nonpayable",
      "type": "function"
    },
    {
      "inputs": [
        {
          "internalType": "uint256",
          "name": "projectId",
          "type": "uint256"
        },
        {
          "internalType": "address",
          "name": "account",
          "type": "address"
        }
      ],
      "name": "userSettings",
      "outputs": [
        {
          "internalType": "bool",
          "name": "initialized",
          "type": "bool"
        },
        {
          "internalType": "uint16",
          "name": "projectFee",
          "type": "uint16"
        }
      ],
      "stateMutability": "view",
      "type": "function"
    },
    {
      "inputs": [
        {
          "internalType": "address",
          "name": "account",
          "type": "address"
        }
      ],
      "name": "users",
      "outputs": [
        {
          "internalType": "int256",
          "name": "balance",
          "type": "int256"
        },
        {
          "internalType": "int256",
          "name": "incomeRate",
          "type": "int256"
        },
        {
          "internalType": "int256",
          "name": "outgoingRate",
          "type": "int256"
        },
        {
          "internalType": "uint256",
          "name": "updated",
          "type": "uint256"
        }
      ],
      "stateMutability": "view",
      "type": "function"
    },
    {
      "inputs": [
        {
          "internalType": "uint256",
          "name": "amount",
          "type": "uint256"
        }
      ],
      "name": "withdraw",
      "outputs": [],
      "stateMutability": "nonpayable",
      "type": "function"
    },
    {
      "inputs": [
        {
          "internalType": "address",
          "name": "to",
          "type": "address"
        },
        {
          "internalType": "uint256",
          "name": "amount",
          "type": "uint256"
        }
      ],
      "name": "withdrawTo",
      "outputs": [],
      "stateMutability": "nonpayable",
      "type": "function"
    }
  ],
  "transactionHash": "0x881c647b1bad1cbb6a6ee1c820fafc2d8676f3315df2c47bdc262cd3c8b75b2f",
  "args": [
    "0xd30e2101a97dcbAeBCBC04F14C3f624E67A35165",
    "0x80EDee6f667eCc9f63a0a6f55578F870651f06A4",
    "0x9aA40Cc99973d8407a2AE7B2237d26E615EcaFd2"
  ],
  "numDeployments": 2,
  "solcInputHash": "86437695fd6541b04f79e82d5b93bbe4",
  "bytecode": "0x6101e06040818152346200036157606082620053cd803803809162000025828562000382565b83398101031262000361576200003b82620003a6565b916020620000588362000050838501620003a6565b9301620003a6565b91620000636200073b565b948451620000718162000366565b60068152838101956550617061796160d01b8752805197620000938962000366565b60018952858901603160f81b8152620000ac84620003bb565b98610120998a52620000be8b6200058e565b94610140958652519020998a60e0525190209061010099828b524660a052835192888401917f8b73c3c69bb8fe3d512ecc4cf759cc79239f7b179b0ffacaa9a75d522b39400f83528585015260608401524660808401523060a084015260a0835260c083019083821060018060401b038311176200034b57818552835190206080523060c0526001600160a01b0391821692831562000334575050600280546001600160a01b03198116841790915583516000999093909183167f8be0079c531659141344cd1fd0a4f28419497f9722a3daafe3b4186f6b6457e08b80a381610160961686528161018097168752169580826004816101a09a808c5263313ce56760e01b82525afa9081156200032a578891620002e6575b5060ff91501660120360ff8111620002d25760ff1695604d8711620002be57506101c095600a0a86525195614c279788620007a68939608051886148e6015260a051886149b2015260c051886148b7015260e051886149350152518761495b01525186611769015251856117960152518481816114340152613b340152518381816102980152613af50152518281816106eb015281816114ae015281816115430152818161187b0152818161198f015281816127ef01528181612ca40152612eef015251818181611a4c015281816127ae01528181612b8401528181612be9015261351b0152f35b634e487b7160e01b81526011600452602490fd5b634e487b7160e01b87526011600452602487fd5b905081813d831162000322575b620002ff818362000382565b810103126200031e575160ff811681036200031e5760ff9038620001d6565b8680fd5b503d620002f3565b83513d8a823e3d90fd5b631e4fbdf760e01b8252600060c490910152602490fd5b634e487b7160e01b600052604160045260246000fd5b600080fd5b604081019081106001600160401b038211176200034b57604052565b601f909101601f19168101906001600160401b038211908210176200034b57604052565b51906001600160a01b03821682036200036157565b805160209190828110156200045a575090601f825111620003f95780825192015190808310620003ea57501790565b82600019910360031b1b161790565b90604051809263305a27a960e01b82528060048301528251908160248401526000935b82851062000440575050604492506000838284010152601f80199101168101030190fd5b84810182015186860160440152938101938593506200041c565b6001600160401b0381116200034b576000928354926001938481811c9116801562000583575b838210146200056f57601f811162000539575b5081601f8411600114620004d257509282939183928694620004c6575b50501b916000199060031b1c191617905560ff90565b015192503880620004b0565b919083601f1981168780528488209488905b888383106200051e575050501062000504575b505050811b01905560ff90565b015160001960f88460031b161c19169055388080620004f7565b858701518855909601959485019487935090810190620004e4565b85805284601f848820920160051c820191601f860160051c015b8281106200056357505062000493565b87815501859062000553565b634e487b7160e01b86526022600452602486fd5b90607f169062000480565b8051602090818110156200061c5750601f825111620005bb5780825192015190808310620003ea57501790565b90604051809263305a27a960e01b82528060048301528251908160248401526000935b82851062000602575050604492506000838284010152601f80199101168101030190fd5b8481018201518686016044015293810193859350620005de565b9192916001600160401b0381116200034b5760019182548381811c9116801562000730575b828210146200071a57601f8111620006e1575b5080601f83116001146200069457508192939460009262000688575b5050600019600383901b1c191690821b17905560ff90565b01519050388062000670565b90601f198316958460005282600020926000905b888210620006c957505083859697106200050457505050811b01905560ff90565b808785968294968601518155019501930190620006a8565b8360005283601f83600020920160051c820191601f850160051c015b8281106200070d57505062000654565b60008155018490620006fd565b634e487b7160e01b600052602260045260246000fd5b90607f169062000641565b63ffffffff60035460a01c168015620007a05760001981018181116200078a5764010000000011156200077857600201546001600160a01b031690565b604051634e23d03560e01b8152600490fd5b634e487b7160e01b600052601160045260246000fd5b50339056fe608060408181526004918236101561001657600080fd5b60009260e08435811c9285846306fdde0314612e80575050826308b8ae3e14612e005782630acebbb314612d8d578263102b1bfb14612cc85782631752eda814612c4e57826318160ddd14612c0c578263193999a014612bb2578263205c287814612b355782632ca6f7711461286d5782632dffc938146128135782632e1a7d4d1461275f5782632f86556814612468578263313ce5671461242d57826334dd20261461238f5782633cc67ac714612314578263404f551d1461226657826353339ba0146121f45782635816d72314611d485782636207d31b14611cc857826370a0823114611c46578263715018a614611ba85782637262561c14611af85782637735915914611abd57826378e3214f1461189f57826382bfefc81461182f57826384b0196e1461172f5750816384b3d8e914610fe45781638c3adb0a146116b25781638d7e4ea01461164d5781638da5cb5b146115fa57816395d89b41146114d25781639a408321146114585781639a6c5952146113e95781639acf3f3514610fe9578163a5bc097f14610fe4578163a87430ba14610f5c578163ac9650d814610d31578163b8ca3b8314610cf6578163bbeb1ed714610cba578163c18004ff14610bc9578163c407687614610b78578163c49fc81614610b14578163daf36e7414610971578163e032e04f1461090b578163e82696ce1461075e578163eb24bae41461062f578163eb5c282314610443578163f2910a24146103a9578163f2fde38b146102c0575063f469f77a1461024f57600080fd5b346102bc57817ffffffffffffffffffffffffffffffffffffffffffffffffffffffffffffffffc3601126102bc576020905173ffffffffffffffffffffffffffffffffffffffff7f0000000000000000000000000000000000000000000000000000000000000000168152f35b5080fd5b9050346103a55760207ffffffffffffffffffffffffffffffffffffffffffffffffffffffffffffffffc3601126103a5576102f9612ffa565b90610302613e2d565b73ffffffffffffffffffffffffffffffffffffffff809216928315610376575050600254827fffffffffffffffffffffffff0000000000000000000000000000000000000000821617600255167f8be0079c531659141344cd1fd0a4f28419497f9722a3daafe3b4186f6b6457e08380a380f35b908460249251917f1e4fbdf7000000000000000000000000000000000000000000000000000000008352820152fd5b8280fd5b9050346103a557817ffffffffffffffffffffffffffffffffffffffffffffffffffffffffffffffffc3601126103a55761043f9282916103e7613022565b9035825264010000000b60205273ffffffffffffffffffffffffffffffffffffffff8383209116825260205220549051918160ff61ffff859460081c1691168390929161ffff60209160408401951515845216910152565b0390f35b9050346103a55760807ffffffffffffffffffffffffffffffffffffffffffffffffffffffffffffffffc3601126103a55761047c612ffa565b91807fffffffffffffffffffffffffffffffffffffffffffffffffffffffffffffffdc36011261062b57606435916104b3836130bd565b73ffffffffffffffffffffffffffffffffffffffff809254816104d46143af565b169260031b1c16036105fc576401000000075484116105cd5761ffff916107d0836104fd6134fd565b16116105a6575083865264010000000b60205282862094169384865260205281852091602435918215158093036105a257836020937f433022a4c1ebbec318782b5a17e2e30db29e76903281aec98885c4268870b1cf95547fffffffffffffffffffffffffffffffffffffffffffffffffffffffffff00000060ff62ffff006105846134fd565b60081b1693169116171790556105986134fd565b915191168152a380f35b8680fd5b83517f08e8d3d5000000000000000000000000000000000000000000000000000000008152fd5b508260249251917fc88f99b4000000000000000000000000000000000000000000000000000000008352820152fd5b508260249251917f3815a7d4000000000000000000000000000000000000000000000000000000008352820152fd5b8380fd5b91905060807ffffffffffffffffffffffffffffffffffffffffffffffffffffffffffffffffc3601126103a557610664612ffa565b9267ffffffffffffffff6044358181116103a557610685903690860161308f565b909160643590811161062b5783926106c994926106a86106b19336908a0161308f565b505036916133bd565b602081519101305af46106c2613a31565b9030614443565b916106d26143af565b9373ffffffffffffffffffffffffffffffffffffffff807f000000000000000000000000000000000000000000000000000000000000000016911603610737575061072561043f936024359033906141fc565b51918291602083526020830190612fb7565b90517fa0f3feea000000000000000000000000000000000000000000000000000000008152fd5b9050346103a5577ffffffffffffffffffffffffffffffffffffffffffffffffffffffffffffffffc36016060811261062b5782136103a557604435916107a3836130bd565b9073ffffffffffffffffffffffffffffffffffffffff9054816107c46143af565b169260031b1c16036108dd576401000000075483116108af5761ffff906107d0826107ed6134ec565b16116108875783855264010000000a60205280852092359182151580930361088357836020937f305a05d71233ae0e9f8e0f3a25392b027e2adc391ad36aaeab3f4a358e491ba195547fffffffffffffffffffffffffffffffffffffffffffffffffffffffffff00000060ff62ffff006108656134ec565b60081b1693169116171790556108796134ec565b915191168152a280f35b8580fd5b9050517f08e8d3d5000000000000000000000000000000000000000000000000000000008152fd5b9160249251917fc88f99b4000000000000000000000000000000000000000000000000000000008352820152fd5b9160249251917f3815a7d4000000000000000000000000000000000000000000000000000000008352820152fd5b5050346102bc5760207ffffffffffffffffffffffffffffffffffffffffffffffffffffffffffffffffc3601126102bc578060209273ffffffffffffffffffffffffffffffffffffffff61095d612ffa565b168152640100000003845220549051908152f35b919050346103a557602091827ffffffffffffffffffffffffffffffffffffffffffffffffffffffffffffffffc36011261062b5773ffffffffffffffffffffffffffffffffffffffff9392846109c5612ffa565b1684526401000000098152828420928051948583865491828152019086835284832090835b818110610b005750505086610a0091038761328f565b8551967fffffffffffffffffffffffffffffffffffffffffffffffffffffffffffffffe0610a45610a308a61340e565b99610a3d86519b8c61328f565b808b5261340e565b0136858a01376002860190825b8851811015610adc5781610a66828b6134d8565b51168085528387528585205490811580610ac4575b610a95575090600191610a8e828d6134d8565b5201610a52565b886024918851917f02b56686000000000000000000000000000000000000000000000000000000008352820152fd5b50600081815260018b01602052604090205415610a7b565b84518581528061043f888d610af3848b018f613045565b918483039085015261313e565b8254845292860192600192830192016109ea565b9050346103a55760207ffffffffffffffffffffffffffffffffffffffffffffffffffffffffffffffffc3601126103a55735825264010000000a60209081529181902054905160ff82161515815260089190911c61ffff1691810191909152604090f35b5050346102bc577ffffffffffffffffffffffffffffffffffffffffffffffffffffffffffffffffc360112610bc657610bc3610bb2612ffa565b60243590610bbe6143af565b6141fc565b80f35b80fd5b8383346102bc57817ffffffffffffffffffffffffffffffffffffffffffffffffffffffffffffffffc3601126102bc5764010000000780547f633eb2fca506c8c90cd4ed861f3dd9ac07ab90cb064364d0112b6218ac952240610c2a6143af565b93805183815273ffffffffffffffffffffffffffffffffffffffff8096166020820152a1610c566143af565b9168010000000000000000821015610c8e57600182019055610c77906130bd565b90928084549260031b9316831b921b191617905580f35b6024856041887f4e487b7100000000000000000000000000000000000000000000000000000000835252fd5b5050346102bc57817ffffffffffffffffffffffffffffffffffffffffffffffffffffffffffffffffc3601126102bc5760209051620222e08152f35b5050346102bc57817ffffffffffffffffffffffffffffffffffffffffffffffffffffffffffffffffc3601126102bc57602090516107d08152f35b839150346102bc57602091827ffffffffffffffffffffffffffffffffffffffffffffffffffffffffffffffffc360112610bc65781359167ffffffffffffffff908184116103a557366023850112156103a5578301359081116102bc57602492602481016005943660248560051b85010111610f585773ffffffffffffffffffffffffffffffffffffffff610dc46143af565b163314600014610f3f578751610dd981613228565b858152925b610de78561340e565b96610df48a51988961328f565b8588527fffffffffffffffffffffffffffffffffffffffffffffffffffffffffffffffe0610e218761340e565b0189885b828110610f2f57509050875b8b89898310610eb4578b849183519280840190808552835180925280868601968360051b870101940192955b828710610e6a5785850386f35b909192938280610ea4837fffffffffffffffffffffffffffffffffffffffffffffffffffffffffffffffc08a600196030186528851612fb7565b9601920196019592919092610e5d565b80610f1192610ef8610f04878d600199610ed68f8f8f8f8e901b01019061336c565b9290965195838794848601998a378401918383018a8152815194859201612f94565b0103808452018261328f565b5190305af46106c2613a31565b610f1b828c6134d8565b52610f26818b6134d8565b50018990610e31565b606082828d010152018a90610e25565b8751610f4a81613228565b858152858882015292610dde565b8480fd5b5050346102bc5760207ffffffffffffffffffffffffffffffffffffffffffffffffffffffffffffffffc3601126102bc578060809273ffffffffffffffffffffffffffffffffffffffff610fae612ffa565b16815264010000000860205220908154916001810154916003600283015492015492815194855260208501528301526060820152f35b613172565b8383346102bc5760607ffffffffffffffffffffffffffffffffffffffffffffffffffffffffffffffffc3601126102bc57611022612ffa565b602435906bffffffffffffffffffffffff928383169384840361088357604435946401000000075486116113ba576110586143af565b73ffffffffffffffffffffffffffffffffffffffff98858a1696918a16871461139357896110846143af565b168952640100000009936020968588526110a089888d206145a3565b9061137b575b50508a6110b16143af565b168a528487526064868b20541461135357888a5264010000000b8752858a20888b528752858a2060ff8154161561133f575b546127109b9060081c61ffff168c038c811161131357828c9d61110b8b939d9e9c9d896131ad565b0416916111166143af565b9c8060c01b77ffffffffffffffffffffffff0000000000000000000000008860601b168517179d6111588b8483169e8f81526401000000088097522091613aaa565b906b7fffffffffffffffffffffff998a81116112e45790611196929161117d826149d8565b61118f6002830191600b0b8254613e11565b90556144fc565b6112bc57898f8e8152848d522088851161128d57918f916111d8906001856111c26111ed9998976149d8565b016111d187600b0b8254613e11565b90556130bd565b90549060031b1c1690528952878d2094613cea565b1692831161125e5750926112369492889261121a60018761120e8c996149d8565b0191600b0b8254613e11565b9055868a52835280892092848a52600284019052882055614b95565b507ff85d78bf0952aa4c25571c233942d6465622ecf64f705ab4089c40f3f72d171b8480a480f35b602490838651917f24775e06000000000000000000000000000000000000000000000000000000008352820152fd5b602487868d51917f24775e06000000000000000000000000000000000000000000000000000000008352820152fd5b858a517fe9e3f12e000000000000000000000000000000000000000000000000000000008152fd5b886024918e51917f24775e06000000000000000000000000000000000000000000000000000000008352820152fd5b60248c6011867f4e487b7100000000000000000000000000000000000000000000000000000000835252fd5b50888a5264010000000a8752858a206110e3565b5084517fa3f01687000000000000000000000000000000000000000000000000000000008152fd5b61138c916113876143af565b613d08565b8b806110a6565b84517f1f47ef38000000000000000000000000000000000000000000000000000000008152fd5b602488878551917fc88f99b4000000000000000000000000000000000000000000000000000000008352820152fd5b5050346102bc57817ffffffffffffffffffffffffffffffffffffffffffffffffffffffffffffffffc3601126102bc576020905173ffffffffffffffffffffffffffffffffffffffff7f0000000000000000000000000000000000000000000000000000000000000000168152f35b919050346103a5577ffffffffffffffffffffffffffffffffffffffffffffffffffffffffffffffffc3601126102bc5760243580151581036103a557610bc3916114a06143af565b9035906114ab6143af565b907f000000000000000000000000000000000000000000000000000000000000000061350e565b919050346103a557827ffffffffffffffffffffffffffffffffffffffffffffffffffffffffffffffffc3601126103a55782815180937f95d89b410000000000000000000000000000000000000000000000000000000082528173ffffffffffffffffffffffffffffffffffffffff7f0000000000000000000000000000000000000000000000000000000000000000165afa9182156115f0578361043f94936115cb575b50506107256022825180947f707000000000000000000000000000000000000000000000000000000000000060208301526115bb8151809260208686019101612f94565b810103600281018552018361328f565b6115e89293503d8091833e6115e0818361328f565b81019061330a565b903880611577565b81513d85823e3d90fd5b5050346102bc57817ffffffffffffffffffffffffffffffffffffffffffffffffffffffffffffffffc3601126102bc5760209073ffffffffffffffffffffffffffffffffffffffff600254169051908152f35b9050346103a5577ffffffffffffffffffffffffffffffffffffffffffffffffffffffffffffffffc92602084360112610bc65781359367ffffffffffffffff85116102bc5783908536030112610bc657506020926116ab9101613426565b9051908152f35b9050346103a55760207ffffffffffffffffffffffffffffffffffffffffffffffffffffffffffffffffc3601126103a557359063ffffffff82168092036103a55761172a9073ffffffffffffffffffffffffffffffffffffffff6117146143af565b1684526401000000036020528320918254613401565b905580f35b83908534610bc657807ffffffffffffffffffffffffffffffffffffffffffffffffffffffffffffffffc360112610bc65761043f9061178d7f0000000000000000000000000000000000000000000000000000000000000000614652565b936118106117ba7f00000000000000000000000000000000000000000000000000000000000000006147c7565b918051926117c784613228565b84845261180382519889987f0f000000000000000000000000000000000000000000000000000000000000008a528060208b0152890190612fb7565b9187830390880152612fb7565b9146606086015230608086015260a085015283820360c085015261313e565b505050346102bc57817ffffffffffffffffffffffffffffffffffffffffffffffffffffffffffffffffc3601126102bc576020905173ffffffffffffffffffffffffffffffffffffffff7f0000000000000000000000000000000000000000000000000000000000000000168152f35b848285346103a557807ffffffffffffffffffffffffffffffffffffffffffffffffffffffffffffffffc3601126103a557813573ffffffffffffffffffffffffffffffffffffffff8082169182810361088357602435926118fe613e2d565b8061198557505061190d6143af565b16814710611956578480809381935af1611925613a31565b501561193057505080f35b517f1425ea42000000000000000000000000000000000000000000000000000000008152fd5b82517fcd7860590000000000000000000000000000000000000000000000000000000081523081860152602490fd5b82969596949193947f00000000000000000000000000000000000000000000000000000000000000001680911490816119f7575b506119cf5750610bc39394506002541690613e93565b8590517fda89fe91000000000000000000000000000000000000000000000000000000008152fd5b602491506020908351928380927f70a08231000000000000000000000000000000000000000000000000000000008252308c8301525afa8015611ab3578690611a7f575b611a779150611a71640100000006547f0000000000000000000000000000000000000000000000000000000000000000906131ef565b906133f4565b8411876119b9565b506020813d602011611aab575b81611a996020938361328f565b8101031261088357611a779051611a3b565b3d9150611a8c565b82513d88823e3d90fd5b505050346102bc57817ffffffffffffffffffffffffffffffffffffffffffffffffffffffffffffffffc3601126102bc576020905160648152f35b508383346102bc5760207ffffffffffffffffffffffffffffffffffffffffffffffffffffffffffffffffc3601126102bc57611b32612ffa565b611b6b73ffffffffffffffffffffffffffffffffffffffff80611b536143af565b168552640100000009602052838520908316906145a3565b929015611b80575090610bc3916113876143af565b8490517f237e6c28000000000000000000000000000000000000000000000000000000008152fd5b8434610bc657807ffffffffffffffffffffffffffffffffffffffffffffffffffffffffffffffffc360112610bc657611bdf613e2d565b8073ffffffffffffffffffffffffffffffffffffffff6002547fffffffffffffffffffffffff00000000000000000000000000000000000000008116600255167f8be0079c531659141344cd1fd0a4f28419497f9722a3daafe3b4186f6b6457e08280a380f35b505050346102bc5760207ffffffffffffffffffffffffffffffffffffffffffffffffffffffffffffffffc3601126102bc5760209173ffffffffffffffffffffffffffffffffffffffff611c98612ffa565b1681526401000000088352611cae8282206145e9565b9080821315611cc05750905b51908152f35b905090611cba565b838534610bc657817ffffffffffffffffffffffffffffffffffffffffffffffffffffffffffffffffc360112610bc657611d3a90611d04612ffa565b83611d0d613022565b9273ffffffffffffffffffffffffffffffffffffffff8093168152640100000009602052209116906145a3565b825191151582526020820152f35b848285807ffffffffffffffffffffffffffffffffffffffffffffffffffffffffffffffffc3601126103a55767ffffffffffffffff918035838111610f5857611d94903690830161308f565b9360243590811161088357611dac903690840161308f565b94909682357fffffffffffffffffffffffffffffffffffffffff00000000000000000000000080821691601485106121df575b505060601c93826014116121db57888880808a808b83808d8d828e8e8e60148501907fffffffffffffffffffffffffffffffffffffffffffffffffffffffffffffffec8401928a51968491826064146121235782604814612061578260e01461202a578261010014611fee5782606014611f1557505061016014611ec857907ffffffffffffffffffffffffffffffffffffffffffffffffffffffffffffffff09392917f9fd5a6cf00000000000000000000000000000000000000000000000000000000875286013701925af1505b5195863784305af4903d90833e15611ec4573d90f35b3d90fd5b91509150610164945061016092507f2b67b570000000000000000000000000000000000000000000000000000000008452830137826e22d473030f116ddee9f6b43ac78ba35af150611eae565b93915093506020955060549450610164976014927f2b67b5700000000000000000000000000000000000000000000000000000000089523390890152602488015260508701377fffffffffffffffffffffffffffffffffffffffffffffffffffffffffffffffff65ffffffffffff91816028850135821c0183166064880152602c840135811c60848801523060a48801526030840135901c011660c485015261010060e485015287610104850152826034820161012486013701610144830137826e22d473030f116ddee9f6b43ac78ba35af150611eae565b50505061010496935061010092507f8fcbaf0c0000000000000000000000000000000000000000000000000000000086528501375af150611eae565b9450505060e49693507fd505accf0000000000000000000000000000000000000000000000000000000086528501375af150611eae565b6101049996507f7fffffffffffffffffffffffffffffffffffffffffffffffffffffffffffffff9550601c92507fffffffffffffffffffffffffffffffffffffffffffffffffffffffffffffffff906020947f8fcbaf0c000000000000000000000000000000000000000000000000000000008b5233908b01523060248b0152603c8301359535811c60448b01526018830135901c016064890152600160848901528360ff1c601b0160a48901520160c48701371660e48401525af150611eae565b60e49996507f7fffffffffffffffffffffffffffffffffffffffffffffffffffffffffffffff9550603892507fffffffffffffffffffffffffffffffffffffffffffffffffffffffffffffffff906020947fd505accf000000000000000000000000000000000000000000000000000000008b5233908b01523060248b01528460588401359660448c01376034830135901c0160648901528360ff1c601b0160848901520160a48701371660c48401525af150611eae565b8780fd5b908092508460140360031b1b16168980611ddf565b509050346103a55760207ffffffffffffffffffffffffffffffffffffffffffffffffffffffffffffffffc3601126103a557359164010000000754831015610bc6575073ffffffffffffffffffffffffffffffffffffffff6122576020936130bd565b92905490519260031b1c168152f35b509050346103a557817ffffffffffffffffffffffffffffffffffffffffffffffffffffffffffffffffc3601126103a557357fffffffff0000000000000000000000000000000000000000000000000000000081168091036103a5576024359163ffffffff831680930361062b5761172a9173ffffffffffffffffffffffffffffffffffffffff6122f56143af565b1685526401000000046020528185209085526020528320918254613401565b509050346103a55760207ffffffffffffffffffffffffffffffffffffffffffffffffffffffffffffffffc3601126103a55760ff600191359273ffffffffffffffffffffffffffffffffffffffff61236a6143af565b1685526401000000056020528085208460081c8652602052842092161b815417905580f35b505050346102bc57807ffffffffffffffffffffffffffffffffffffffffffffffffffffffffffffffffc3601126102bc576123c8612ffa565b602435907fffffffff00000000000000000000000000000000000000000000000000000000821680920361062b5792829173ffffffffffffffffffffffffffffffffffffffff6020951682526401000000048552828220908252845220549051908152f35b505050346102bc57817ffffffffffffffffffffffffffffffffffffffffffffffffffffffffffffffffc3601126102bc576020905160128152f35b848285346103a557602090817ffffffffffffffffffffffffffffffffffffffffffffffffffffffffffffffffc36011261062b576124a4612ffa565b916124ad6143af565b73ffffffffffffffffffffffffffffffffffffffff80851695909491851686146127385785875264010000000890818452848820926124eb81613aaa565b6002850154906001860154821391826126de575b5050156126b65792869194928894858b526401000000098552878b20968754918260028a01935b6125c957505050507fddf252ad1be2c89b69c2b068fc378daa952ba7f163c4a11628f55a4df523b3ef9495508261255b6143af565b168a5283528886812091805492612573848254613e11565b90555561257e6143af565b90808a13156125c3575088955b519586521693a361259a6143af565b16907facd74f5a0eb0d086de0eebe2d1e70d5742838c88cb2cf492fc201d39e056f7e08380a380f35b9561258b565b7fffffffffffffffffffffffffffffffffffffffffffffffffffffffffffffffff9193959850809294979996500181811161268a578c8b8b61260e612626948a613126565b90549060031b1c92838152888d522054911684613d08565b801561265e577fffffffffffffffffffffffffffffffffffffffffffffffffffffffffffffffff01918a969391838b96999794612526565b60248c6011857f4e487b7100000000000000000000000000000000000000000000000000000000835252fd5b60248d6011867f4e487b7100000000000000000000000000000000000000000000000000000000835252fd5b5084517fddeb79ba000000000000000000000000000000000000000000000000000000008152fd5b9091506126ea866145e9565b62015180918083029283050361270c5790612704916144e3565b128a806124ff565b60248c6011877f4e487b7100000000000000000000000000000000000000000000000000000000835252fd5b83517f1f47ef38000000000000000000000000000000000000000000000000000000008152fd5b8482346102bc5760207ffffffffffffffffffffffffffffffffffffffffffffffffffffffffffffffffc3601126102bc57610bc390356127ec6127a06143af565b6127a86143af565b926127e77f0000000000000000000000000000000000000000000000000000000000000000926127e1846127dc81866131ef565b6131ad565b9061405a565b6131ef565b907f0000000000000000000000000000000000000000000000000000000000000000613e93565b505050346102bc57817ffffffffffffffffffffffffffffffffffffffffffffffffffffffffffffffffc3601126102bc57602090517f9ed1889e2180e1ec4f2d7816d43eb41f27d0bbbce4557680ecf32626c070c8648152f35b5083837ffffffffffffffffffffffffffffffffffffffffffffffffffffffffffffffffc6060813601126103a5576128a3612ffa565b60243567ffffffffffffffff808211610883578482880194833603011261088357604435908111610883576128db903690880161308f565b9084359264ffffffffff8460d01c164211612b0d576128f86143af565b69ffffffffffffffffffff808660801c16908115928315612b01575b50505015612ad957602461293591019361292e858861336c565b91876136ce565b15612ab1579061294e9161294886613426565b856138a0565b15612a895784806106b16129bd6129c494600397885463ffffffff98898260a01c169182600014612a695774010000000000000000000000000000000000000000018b557f800000000000000000000000000000000000000000000000000000000000000017908a015561336c565b36916133bd565b938254918260a01c169081600014612a42575061043f9550600114612a19577fffffffffffffffffffffffff000000000000000000000000000000000000000001905551918291602083526020830190612fb7565b507f80000000000000000000000000000000000000000000000000000000000000009055610725565b807f06a2af9e00000000000000000000000000000000000000000000000000000000889252fd5b5074010000000000000000000000000000000000000000178a555061336c565b8584517f356a4418000000000000000000000000000000000000000000000000000000008152fd5b8786517fd9c6386f000000000000000000000000000000000000000000000000000000008152fd5b8887517f3b06dcfb000000000000000000000000000000000000000000000000000000008152fd5b161490508a8080612914565b8887517f559895a3000000000000000000000000000000000000000000000000000000008152fd5b505050346102bc577ffffffffffffffffffffffffffffffffffffffffffffffffffffffffffffffffc360112610bc657610bc3612b70612ffa565b6127ec602435612b7e6143af565b906127e77f0000000000000000000000000000000000000000000000000000000000000000926127e1846127dc81866131ef565b505050346102bc57817ffffffffffffffffffffffffffffffffffffffffffffffffffffffffffffffffc3601126102bc57602090517f00000000000000000000000000000000000000000000000000000000000000008152f35b505050346102bc57817ffffffffffffffffffffffffffffffffffffffffffffffffffffffffffffffffc3601126102bc57602090640100000006549051908152f35b8482346102bc5760607ffffffffffffffffffffffffffffffffffffffffffffffffffffffffffffffffc3601126102bc57612c87613022565b60443590811515820361062b57610bc3923590612ca26143af565b7f000000000000000000000000000000000000000000000000000000000000000061350e565b505050346102bc57817ffffffffffffffffffffffffffffffffffffffffffffffffffffffffffffffffc3601126102bc57805164010000000780548083529084526020808301949293927f22b16c268c0a907d5cde41071d7f26570a0d824b194d801eabe6ed93e978420092915b828210612d605761043f8686612d4e828b038361328f565b51918291602083526020830190613045565b835473ffffffffffffffffffffffffffffffffffffffff1687529586019560019384019390910190612d36565b505050346102bc57807ffffffffffffffffffffffffffffffffffffffffffffffffffffffffffffffffc3601126102bc578060209273ffffffffffffffffffffffffffffffffffffffff612ddf612ffa565b168152640100000005845281812060243560081c8252845220549051908152f35b505050346102bc57807ffffffffffffffffffffffffffffffffffffffffffffffffffffffffffffffffc3601126102bc579081600160ff602094612e42612ffa565b9473ffffffffffffffffffffffffffffffffffffffff6024359616815264010000000587528181208660081c825287522054925193161b1615158152f35b90858285346102bc57817ffffffffffffffffffffffffffffffffffffffffffffffffffffffffffffffffc3601126102bc5783907f06fdde030000000000000000000000000000000000000000000000000000000082528173ffffffffffffffffffffffffffffffffffffffff7f0000000000000000000000000000000000000000000000000000000000000000165afa9182156115f0578361043f9493612f77575b5050610725602a825180947f53747265616d696e6720000000000000000000000000000000000000000000006020830152612f678151809260208686019101612f94565b810103600a81018552018361328f565b612f8c9293503d8091833e6115e0818361328f565b908380612f23565b60005b838110612fa75750506000910152565b8181015183820152602001612f97565b907fffffffffffffffffffffffffffffffffffffffffffffffffffffffffffffffe0601f602093612ff381518092818752878088019101612f94565b0116010190565b6004359073ffffffffffffffffffffffffffffffffffffffff8216820361301d57565b600080fd5b6024359073ffffffffffffffffffffffffffffffffffffffff8216820361301d57565b90815180825260208080930193019160005b828110613065575050505090565b835173ffffffffffffffffffffffffffffffffffffffff1685529381019392810192600101613057565b9181601f8401121561301d5782359167ffffffffffffffff831161301d576020838186019501011161301d57565b64010000000780548210156130f7576000527f22b16c268c0a907d5cde41071d7f26570a0d824b194d801eabe6ed93e97842000190600090565b7f4e487b7100000000000000000000000000000000000000000000000000000000600052603260045260246000fd5b80548210156130f75760005260206000200190600090565b90815180825260208080930193019160005b82811061315e575050505090565b835185529381019392810192600101613150565b3461301d5760007ffffffffffffffffffffffffffffffffffffffffffffffffffffffffffffffffc36011261301d5760206040516127108152f35b818102929181159184041417156131c057565b7f4e487b7100000000000000000000000000000000000000000000000000000000600052601160045260246000fd5b81156131f9570490565b7f4e487b7100000000000000000000000000000000000000000000000000000000600052601260045260246000fd5b6020810190811067ffffffffffffffff82111761324457604052565b7f4e487b7100000000000000000000000000000000000000000000000000000000600052604160045260246000fd5b6040810190811067ffffffffffffffff82111761324457604052565b90601f7fffffffffffffffffffffffffffffffffffffffffffffffffffffffffffffffe0910116810190811067ffffffffffffffff82111761324457604052565b67ffffffffffffffff811161324457601f017fffffffffffffffffffffffffffffffffffffffffffffffffffffffffffffffe01660200190565b60208183031261301d5780519067ffffffffffffffff821161301d570181601f8201121561301d57805161333d816132d0565b9261334b604051948561328f565b8184526020828401011161301d576133699160208085019101612f94565b90565b9035907fffffffffffffffffffffffffffffffffffffffffffffffffffffffffffffffe18136030182121561301d570180359067ffffffffffffffff821161301d5760200191813603831361301d57565b9291926133c9826132d0565b916133d7604051938461328f565b82948184528183011161301d578281602093846000960137010152565b919082039182116131c057565b919082018092116131c057565b67ffffffffffffffff81116132445760051b60200190565b6134366129bd602083018361336c565b60208151910120906040519160208301917f9ed1889e2180e1ec4f2d7816d43eb41f27d0bbbce4557680ecf32626c070c8648352356040840152606083015260608252608082019180831067ffffffffffffffff841117613244576042926040525190206134a26148a0565b90604051917f19010000000000000000000000000000000000000000000000000000000000008352600283015260228201522090565b80518210156130f75760209160051b010190565b60243561ffff8116810361301d5790565b60443561ffff8116810361301d5790565b91613546909491946135407f0000000000000000000000000000000000000000000000000000000000000000866131ad565b90613f2d565b1561362b5773ffffffffffffffffffffffffffffffffffffffff821161360157600091604051937f36c785160000000000000000000000000000000000000000000000000000000085526004850152306024850152604484015260648301528060846e22d473030f116ddee9f6b43ac78ba39382855af190816135f6575b50156135cc57565b60046040517ff4059071000000000000000000000000000000000000000000000000000000008152fd5b90503b1515386135c4565b60046040517f8112e119000000000000000000000000000000000000000000000000000000008152fd5b91906064602092600092604051917f23b872dd0000000000000000000000000000000000000000000000000000000083526004830152306024830152604482015282855af1908161367e5750156135cc57565b90503d156136995750600160005114601f3d11165b386135c4565b3b1515613693565b7fffffffffffffffffffffffffffffffffffffffffffffffffffffffffffffffff81146131c05760010190565b9190928360fe1c9160028311613876576003831015613847576fffffffffffffffffffffffffffffffff851691831561380e57600184146137755750505060021461371a575050600090565b73ffffffffffffffffffffffffffffffffffffffff1660005264010000000560205260406000206effffffffffffffffffffffffffffff8260081c16600052602052604060002090600160ff835492161b8117809255141590565b92509273ffffffffffffffffffffffffffffffffffffffff91945016600052640100000004602052604060002091357fffffffff0000000000000000000000000000000000000000000000000000000091818380931691600481106137f8575b50509050166000526020526040600020908154916137f2836136a1565b90551490565b8391925060040360031b1b1616819038806137d5565b505092505073ffffffffffffffffffffffffffffffffffffffff166000526401000000036020526040600020908154916137f2836136a1565b7f4e487b7100000000000000000000000000000000000000000000000000000000600052602160045260246000fd5b60046040517f5f640821000000000000000000000000000000000000000000000000000000008152fd5b90919273ffffffffffffffffffffffffffffffffffffffff91828116928315613a2657604093848414918215613a1b575b82613949575b505061393f576020928260009384978351937f1626ba7e0000000000000000000000000000000000000000000000000000000098898652600486015260248501528160448501526064840137606401915afa613931575090565b600051143d60201416919050565b5050505050600190565b909150600085518580604114613a03576040146139be575080805b613973575b50161438806138d7565b817f7fffffffffffffffffffffffffffffff5d576e7357a4501ddfe92f46681b20a16060830151106139a6575b50613969565b6080828a6020945282805260015afa505138816139a0565b807f7fffffffffffffffffffffffffffffffffffffffffffffffffffffffffffffff60208b01358060ff1c601b01602084015260208c8b850137166060820152613964565b5086890135821a602082015280878a81830137613964565b6041851492506138d1565b505050505050600090565b3d15613a5c573d90613a42826132d0565b91613a50604051938461328f565b82523d6000602084013e565b606090565b519069ffffffffffffffffffff8216820361301d57565b908160a091031261301d57613a8c81613a61565b91602082015191604081015191613369608060608401519301613a61565b73ffffffffffffffffffffffffffffffffffffffff604051917ffeaf968c000000000000000000000000000000000000000000000000000000009182845260a09160049383868681867f0000000000000000000000000000000000000000000000000000000000000000165afa958615613cba57600096613cc6575b5060405190815283818681867f0000000000000000000000000000000000000000000000000000000000000000165afa938415613cba57600094613c86575b5050166000526401000000096020526040600020546127109080820291820403613c5857620222e0908101809111613c5857906127dc613ba592486131ad565b908215613c2a577fffffffffffffffffffffffffffffffffffffffffffffffffffffffffffffffff83147f8000000000000000000000000000000000000000000000000000000000000000831416613bfc57500590565b6011907f4e487b71000000000000000000000000000000000000000000000000000000006000525260246000fd5b6012907f4e487b71000000000000000000000000000000000000000000000000000000006000525260246000fd5b6011837f4e487b71000000000000000000000000000000000000000000000000000000006000525260246000fd5b613ca6929450803d10613cb3575b613c9e818361328f565b810190613a78565b5050509050913880613b65565b503d613c94565b6040513d6000823e3d90fd5b613cde919650843d8611613cb357613c9e818361328f565b50505090509438613b26565b6bffffffffffffffffffffffff91821690821603919082116131c057565b7fc3d2e77d0bd010e5d80daa03dde8391ebcd61a9be3a09c67631b8fa0ec8b2c1c613ddd613de36bffffffffffffffffffffffff93848716948760601c1690613dc7613d568960c01c6130bd565b959073ffffffffffffffffffffffffffffffffffffffff80978192549060031b1c16931697600096898852613dcd6401000000089182602052600260408b20613d9e816149d8565b01613dad89600b0b82546144e3565b90558c169b8c8a528260205283613dc760408c2092613aaa565b91614545565b8488526020526040872094613cea565b91613aaa565b828152640100000009602052613e0c846040832081845260028101602052836040812055614a07565b5080a4565b919091600083820193841291129080158216911516176131c057565b73ffffffffffffffffffffffffffffffffffffffff806002541681613e506143af565b1603613e595750565b602490613e646143af565b6040517f118cdaa700000000000000000000000000000000000000000000000000000000815291166004820152fd5b916044602092600092604051917fa9059cbb0000000000000000000000000000000000000000000000000000000083526004830152602482015282855af19081613f0a575b5015613ee057565b60046040517ffb7f5079000000000000000000000000000000000000000000000000000000008152fd5b90503d15613f255750600160005114601f3d11165b38613ed8565b3b1515613f1f565b73ffffffffffffffffffffffffffffffffffffffff16908115808015614052575b61404d5764010000000690613f64838354613401565b825515613fa95760208282613f9d6000957fddf252ad1be2c89b69c2b068fc378daa952ba7f163c4a11628f55a4df523b3ef95546133f4565b90555b604051908152a3565b508160005264010000000860205260406000207f7fffffffffffffffffffffffffffffffffffffffffffffffffffffffffffffff821161401c57602082826140156000957fddf252ad1be2c89b69c2b068fc378daa952ba7f163c4a11628f55a4df523b3ef9554613e11565b9055613fa0565b602482604051907f24775e060000000000000000000000000000000000000000000000000000000082526004820152fd5b505050565b508115613f4e565b73ffffffffffffffffffffffffffffffffffffffff81169081158080156141f4575b6141ee57156140d157507fddf252ad1be2c89b69c2b068fc378daa952ba7f163c4a11628f55a4df523b3ef60206000936401000000066140bd828254613401565b90555b640100000006613f9d8282546133f4565b816000526401000000086020526140ec604060002091613aaa565b7f7fffffffffffffffffffffffffffffffffffffffffffffffffffffffffffffff84116141bd5761411c826149d8565b815491848312614193576141338561413a946144e3565b81556144fc565b614169577fddf252ad1be2c89b69c2b068fc378daa952ba7f163c4a11628f55a4df523b3ef60206000936140c0565b60046040517fb2285767000000000000000000000000000000000000000000000000000000008152fd5b60046040517fda89fe91000000000000000000000000000000000000000000000000000000008152fd5b602484604051907f24775e060000000000000000000000000000000000000000000000000000000082526004820152fd5b50505050565b50831561407c565b909173ffffffffffffffffffffffffffffffffffffffff8093169282169183831480156143a7575b6141ee57826142e5575064010000000661423f828254613401565b90555b8261427c5760207fddf252ad1be2c89b69c2b068fc378daa952ba7f163c4a11628f55a4df523b3ef91640100000006613f9d8282546133f4565b8260005264010000000860205260406000207f7fffffffffffffffffffffffffffffffffffffffffffffffffffffffffffffff821161401c5781816140157fddf252ad1be2c89b69c2b068fc378daa952ba7f163c4a11628f55a4df523b3ef9460209454613e11565b82600052640100000008602052614300604060002091613aaa565b7f7fffffffffffffffffffffffffffffffffffffffffffffffffffffffffffffff831161437657614330826149d8565b8154918383126141935761413384614347946144e3565b156142425760046040517fb2285767000000000000000000000000000000000000000000000000000000008152fd5b602483604051907f24775e060000000000000000000000000000000000000000000000000000000082526004820152fd5b508115614224565b63ffffffff60035460a01c16801561443e577fffffffffffffffffffffffffffffffffffffffffffffffffffffffffffffffff81018181116131c0576401000000001115614414576002015473ffffffffffffffffffffffffffffffffffffffff1690565b60046040517f4e23d035000000000000000000000000000000000000000000000000000000008152fd5b503390565b90614482575080511561445857805190602001fd5b60046040517f1425ea42000000000000000000000000000000000000000000000000000000008152fd5b815115806144da575b614493575090565b60249073ffffffffffffffffffffffffffffffffffffffff604051917f9996b315000000000000000000000000000000000000000000000000000000008352166004820152fd5b50803b1561448b565b818103929160001380158285131691841216176131c057565b906002820154600183015481139283614516575b50505090565b614522919293506145e9565b906202a30090808202918205036131c05761453c916144e3565b12388080614510565b6145739291614553826149d8565b61118f6bffffffffffffffffffffffff600184019216600b0b82546144e3565b61457957565b60046040517fe9e3f12e000000000000000000000000000000000000000000000000000000008152fd5b919080600052600283016020526040600020549283156000146145e1576145db92935060019160005201602052604060002054151590565b90600090565b505060019190565b6145f76003820154426133f4565b61460d82549260026001820154910154906144e3565b818102917f8000000000000000000000000000000000000000000000000000000000000000811460008312166131c05781830514901517156131c05761336991613e11565b60ff81146146a85760ff811690601f821161467e576040519161467483613273565b8252602082015290565b60046040517fb3512b0c000000000000000000000000000000000000000000000000000000008152fd5b50604051600080549060018260011c90600184169384156147bd575b6020948584108114614790578387528694939291811561475157506001146146f5575b50506133699250038261328f565b60008080527f290decd9548b62a8d60345a988386fc84ba6bc95484008f6362f93160ef3e56395935091905b818310614739575050613369935082010138806146e7565b85548784018501529485019486945091830191614721565b90506133699593507fffffffffffffffffffffffffffffffffffffffffffffffffffffffffffffff0091501682840152151560051b82010138806146e7565b6024857f4e487b710000000000000000000000000000000000000000000000000000000081526022600452fd5b91607f16916146c4565b60ff81146147e95760ff811690601f821161467e576040519161467483613273565b506040516000600190600154918260011c9060018416938415614896575b6020948584108114614790578387528694939291811561475157506001146148375750506133699250038261328f565b9093915060016000527fb10e2d527612073b26eecdfd717e6a320cf44b4afac2b0732d9fcbe2b7fa0cf6936000915b81831061487e575050613369935082010138806146e7565b85548784018501529485019486945091830191614866565b91607f1691614807565b73ffffffffffffffffffffffffffffffffffffffff7f0000000000000000000000000000000000000000000000000000000000000000163014806149af575b15614908577f000000000000000000000000000000000000000000000000000000000000000090565b60405160208101907f8b73c3c69bb8fe3d512ecc4cf759cc79239f7b179b0ffacaa9a75d522b39400f82527f000000000000000000000000000000000000000000000000000000000000000060408201527f000000000000000000000000000000000000000000000000000000000000000060608201524660808201523060a082015260a0815260c0810181811067ffffffffffffffff8211176132445760405251902090565b507f000000000000000000000000000000000000000000000000000000000000000046146148df565b6003906149e4816145e9565b815481036149ff575b5001805442036149fa5750565b429055565b8155386149ed565b90600182019060009281845282602052604084205490811515600014614b8e577fffffffffffffffffffffffffffffffffffffffffffffffffffffffffffffffff91828101818111614b6157825490848201918211614b3457818103614aca575b50505080548015614a9d57820191614a808383613126565b909182549160031b1b191690555582526020526040812055600190565b6024867f4e487b710000000000000000000000000000000000000000000000000000000081526031600452fd5b614b1f614ada614aea9386613126565b90549060031b1c92839286613126565b81939154907fffffffffffffffffffffffffffffffffffffffffffffffffffffffffffffffff9060031b92831b921b19161790565b90558652846020526040862055388080614a68565b6024887f4e487b710000000000000000000000000000000000000000000000000000000081526011600452fd5b6024877f4e487b710000000000000000000000000000000000000000000000000000000081526011600452fd5b5050505090565b6000828152600182016020526040902054614bea57805490680100000000000000008210156132445782614bd3614aea846001809601855584613126565b905580549260005201602052604060002055600190565b505060009056fea2646970667358221220616ccb930765bbd2362ef40e885c2cf68bb16b0ec69ca968c96cff5d348390ef64736f6c63430008180033",
  "devdoc": {
    "errors": {
      "AddressEmptyCode(address)": [
        {
          "details": "There's no code at `target` (it is not a contract)."
        }
      ],
      "AddressInsufficientBalance(address)": [
        {
          "details": "The ETH balance of the account is not enough to perform the operation."
        }
      ],
      "EnumerableMapNonexistentKey(bytes32)": [
        {
          "details": "Query for a nonexistent map key."
        }
      ],
      "FailedInnerCall()": [
        {
          "details": "A call to an address target failed. The target may have reverted."
        }
      ],
      "IndexOutOfBounds()": [
        {
          "details": "Error thrown when attempting to access an index outside the bounds of the array."
        }
      ],
      "OwnableInvalidOwner(address)": [
        {
          "details": "The owner is not a valid owner account. (eg. `address(0)`)"
        }
      ],
      "OwnableUnauthorizedAccount(address)": [
        {
          "details": "The caller account is not authorized to perform an operation."
        }
      ]
    },
    "events": {
      "EIP712DomainChanged()": {
        "details": "MAY be emitted to signal that the domain could have changed."
      }
    },
    "kind": "dev",
    "methods": {
      "bySig(address,(uint256,bytes),bytes)": {
        "params": {
          "sig": "The `SignedCall` structure containing the call traits and data.",
          "signature": "The signature authorizing the call.",
          "signer": "The address of the signer authorizing the call."
        },
        "returns": {
          "ret": "The bytes result of the executed call."
        }
      },
      "bySigAccountNonces(address)": {
        "params": {
          "account": "The address of the account."
        },
        "returns": {
          "_0": "The current nonce for the account."
        }
      },
      "bySigSelectorNonces(address,bytes4)": {
        "params": {
          "account": "The address of the account.",
          "selector": "The selector for which the nonce is being retrieved."
        },
        "returns": {
          "_0": "The current nonce for the specified selector and account."
        }
      },
      "bySigUniqueNonces(address,uint256)": {
        "details": "This function divides the nonce space into slots to efficiently manage storage. A unique nonce is considered used if its corresponding bit in the storage slot is set.",
        "params": {
          "account": "The address of the account for which the nonce is being checked.",
          "nonce": "The unique nonce to check. It is divided into slots for storage efficiency."
        },
        "returns": {
          "_0": "bool True if the nonce has been used, false otherwise."
        }
      },
      "bySigUniqueNoncesSlot(address,uint256)": {
        "details": "This function allows access to the raw storage slot used to track used nonces, divided into slots for efficiency. Each bit in the returned value represents the used/unused status of a nonce within that slot.",
        "params": {
          "account": "The address of the account for which the nonce slot is being retrieved.",
          "nonce": "The nonce for which the storage slot is being retrieved. The function calculates the correct slot based on this value."
        },
        "returns": {
          "_0": "uint256 The raw value of the storage slot that tracks the used/unused status of nonces in the specified slot for the given account."
        }
      },
      "eip712Domain()": {
        "details": "See {IERC-5267}."
      },
      "hashBySig((uint256,bytes))": {
        "params": {
          "sig": "The `SignedCall` structure containing the call traits and data."
        },
        "returns": {
          "_0": "The EIP-712 compliant hash of the `SignedCall` struct."
        }
      },
      "multicall(bytes[])": {
        "custom:oz-upgrades-unsafe-allow-reachable": "delegatecall",
        "details": "Receives and executes a batch of function calls on this contract."
      },
      "owner()": {
        "details": "Returns the address of the current owner."
      },
      "permitAndCall(bytes,bytes)": {
        "params": {
          "action": "The data representing the action to be executed after the permit.",
          "permit": "ERC20 token address (20 bytes) concatinated with the permit data, allowing this contract to spend the token. Format: [token address (20 bytes)][permit data]"
        }
      },
      "renounceOwnership()": {
        "details": "Leaves the contract without owner. It will not be possible to call `onlyOwner` functions. Can only be called by the current owner. NOTE: Renouncing ownership will leave the contract without an owner, thereby disabling any functionality that is only available to the owner."
      },
      "sponsoredCall(address,uint256,bytes,bytes)": {
        "details": "Facilitates execution of a delegate call where the signer covers the transaction fees. Requires `_chargeSigner` to be overridden to define the fee transfer logic.",
        "params": {
          "amount": "amount value used for sponsored logic (for instance, fee amount to be charged to the signer).",
          "data": "Encoded function call to execute.",
          "extraData": "Additional data for sponsored process in `_chargeSigner` method.",
          "token": "Address of the token used for sponsored logic (for instance, for fee payment)."
        },
        "returns": {
          "ret": "Result of the executed call."
        }
      },
      "transferOwnership(address)": {
        "details": "Transfers ownership of the contract to a new account (`newOwner`). Can only be called by the current owner."
      },
      "useBySigAccountNonce(uint32)": {
        "params": {
          "advance": "The amount by which to advance the nonce."
        }
      },
      "useBySigSelectorNonce(bytes4,uint32)": {
        "params": {
          "advance": "The amount by which to advance the nonce.",
          "selector": "The selector for which the nonce is being advanced."
        }
      },
      "useBySigUniqueNonce(uint256)": {
        "params": {
          "nonce": "The nonce being marked as used."
        }
      }
    },
    "version": 1
  },
  "userdoc": {
    "errors": {
      "DeadlineExceeded()": [
        {
          "notice": "Emitted when a call is attempted after the specified deadline has passed."
        }
      ],
      "WrongNonce()": [
        {
          "notice": "Emitted when the nonce used for a call is incorrect."
        }
      ],
      "WrongNonceType()": [
        {
          "notice": "Thrown when an invalid nonce type is encountered."
        }
      ],
      "WrongRelayer()": [
        {
          "notice": "Emitted when a call is made by an unauthorized relayer."
        }
      ],
      "WrongSignature()": [
        {
          "notice": "Emitted when the signature provided for a call does not match the expected signature."
        }
      ]
    },
    "kind": "user",
    "methods": {
      "bySig(address,(uint256,bytes),bytes)": {
        "notice": "Executes a signature-authorized call on behalf of the signer."
      },
      "bySigAccountNonces(address)": {
        "notice": "Retrieves the account nonce for the specified account."
      },
      "bySigSelectorNonces(address,bytes4)": {
        "notice": "Retrieves the selector nonce for a specific account and selector."
      },
      "bySigUniqueNonces(address,uint256)": {
        "notice": "Checks if a unique nonce has already been used for a given account."
      },
      "bySigUniqueNoncesSlot(address,uint256)": {
        "notice": "Retrieves the storage slot value for a given account and nonce slot."
      },
      "hashBySig((uint256,bytes))": {
        "notice": "Hashes a `SignedCall` struct using EIP-712 typed data hashing rules."
      },
      "permitAndCall(bytes,bytes)": {
        "notice": "Executes a permit for an ERC20 token and then a specified action in a single transaction."
      },
      "sponsoredCall(address,uint256,bytes,bytes)": {
        "notice": "Executes a call sponsored by the signer (for instance, by fee), intended to be used, for instance, in conjunction with `bySig`."
      },
      "useBySigAccountNonce(uint32)": {
        "notice": "Advances the account nonce for the sender by a specified amount."
      },
      "useBySigSelectorNonce(bytes4,uint32)": {
        "notice": "Advances the selector nonce for the sender and a specific selector by a specified amount."
      },
      "useBySigUniqueNonce(uint256)": {
        "notice": "Marks a unique nonce as used for the sender."
      }
    },
    "version": 1
  },
  "storageLayout": {
    "storage": [
      {
        "astId": 3270,
        "contract": "contracts/Papaya.sol:Papaya",
        "label": "_nameFallback",
        "offset": 0,
        "slot": "0",
        "type": "t_string_storage"
      },
      {
        "astId": 3272,
        "contract": "contracts/Papaya.sol:Papaya",
        "label": "_versionFallback",
        "offset": 0,
        "slot": "1",
        "type": "t_string_storage"
      },
      {
        "astId": 1963,
        "contract": "contracts/Papaya.sol:Papaya",
        "label": "_owner",
        "offset": 0,
        "slot": "2",
        "type": "t_address"
      },
      {
        "astId": 1426,
        "contract": "contracts/Papaya.sol:Papaya",
        "label": "_msgSenders",
        "offset": 0,
        "slot": "3",
        "type": "t_struct(Data)174_storage"
      },
      {
        "astId": 1430,
        "contract": "contracts/Papaya.sol:Papaya",
        "label": "_bySigAccountNonces",
        "offset": 0,
        "slot": "4294967299",
        "type": "t_mapping(t_address,t_uint256)"
      },
      {
        "astId": 1436,
        "contract": "contracts/Papaya.sol:Papaya",
        "label": "_bySigSelectorNonces",
        "offset": 0,
        "slot": "4294967300",
        "type": "t_mapping(t_address,t_mapping(t_bytes4,t_uint256))"
      },
      {
        "astId": 1442,
        "contract": "contracts/Papaya.sol:Papaya",
        "label": "_bySigUniqueNonces",
        "offset": 0,
        "slot": "4294967301",
        "type": "t_mapping(t_address,t_mapping(t_uint256,t_uint256))"
      },
      {
        "astId": 6658,
        "contract": "contracts/Papaya.sol:Papaya",
        "label": "totalSupply",
        "offset": 0,
        "slot": "4294967302",
        "type": "t_uint256"
      },
      {
        "astId": 6661,
        "contract": "contracts/Papaya.sol:Papaya",
        "label": "projectOwners",
        "offset": 0,
        "slot": "4294967303",
        "type": "t_array(t_address)dyn_storage"
      },
      {
        "astId": 6666,
        "contract": "contracts/Papaya.sol:Papaya",
        "label": "users",
        "offset": 0,
        "slot": "4294967304",
        "type": "t_mapping(t_address,t_struct(User)8142_storage)"
      },
      {
        "astId": 6671,
        "contract": "contracts/Papaya.sol:Papaya",
        "label": "_subscriptions",
        "offset": 0,
        "slot": "4294967305",
        "type": "t_mapping(t_address,t_struct(AddressToUintMap)5373_storage)"
      },
      {
        "astId": 6676,
        "contract": "contracts/Papaya.sol:Papaya",
        "label": "defaultSettings",
        "offset": 0,
        "slot": "4294967306",
        "type": "t_mapping(t_uint256,t_struct(Settings)7981_storage)"
      },
      {
        "astId": 6683,
        "contract": "contracts/Papaya.sol:Papaya",
        "label": "userSettings",
        "offset": 0,
        "slot": "4294967307",
        "type": "t_mapping(t_uint256,t_mapping(t_address,t_struct(Settings)7981_storage))"
      }
    ],
    "types": {
      "t_address": {
        "encoding": "inplace",
        "label": "address",
        "numberOfBytes": "20"
      },
      "t_array(t_address)dyn_storage": {
        "base": "t_address",
        "encoding": "dynamic_array",
        "label": "address[]",
        "numberOfBytes": "32"
      },
      "t_array(t_bytes32)dyn_storage": {
        "base": "t_bytes32",
        "encoding": "dynamic_array",
        "label": "bytes32[]",
        "numberOfBytes": "32"
      },
      "t_array(t_uint256)4294967296_storage": {
        "base": "t_uint256",
        "encoding": "inplace",
        "label": "uint256[4294967296]",
        "numberOfBytes": "137438953472"
      },
      "t_bool": {
        "encoding": "inplace",
        "label": "bool",
        "numberOfBytes": "1"
      },
      "t_bytes32": {
        "encoding": "inplace",
        "label": "bytes32",
        "numberOfBytes": "32"
      },
      "t_bytes4": {
        "encoding": "inplace",
        "label": "bytes4",
        "numberOfBytes": "4"
      },
      "t_int256": {
        "encoding": "inplace",
        "label": "int256",
        "numberOfBytes": "32"
      },
      "t_mapping(t_address,t_mapping(t_bytes4,t_uint256))": {
        "encoding": "mapping",
        "key": "t_address",
        "label": "mapping(address => mapping(bytes4 => uint256))",
        "numberOfBytes": "32",
        "value": "t_mapping(t_bytes4,t_uint256)"
      },
      "t_mapping(t_address,t_mapping(t_uint256,t_uint256))": {
        "encoding": "mapping",
        "key": "t_address",
        "label": "mapping(address => mapping(uint256 => uint256))",
        "numberOfBytes": "32",
        "value": "t_mapping(t_uint256,t_uint256)"
      },
      "t_mapping(t_address,t_struct(AddressToUintMap)5373_storage)": {
        "encoding": "mapping",
        "key": "t_address",
        "label": "mapping(address => struct EnumerableMap.AddressToUintMap)",
        "numberOfBytes": "32",
        "value": "t_struct(AddressToUintMap)5373_storage"
      },
      "t_mapping(t_address,t_struct(Settings)7981_storage)": {
        "encoding": "mapping",
        "key": "t_address",
        "label": "mapping(address => struct IPapaya.Settings)",
        "numberOfBytes": "32",
        "value": "t_struct(Settings)7981_storage"
      },
      "t_mapping(t_address,t_struct(User)8142_storage)": {
        "encoding": "mapping",
        "key": "t_address",
        "label": "mapping(address => struct UserLib.User)",
        "numberOfBytes": "32",
        "value": "t_struct(User)8142_storage"
      },
      "t_mapping(t_address,t_uint256)": {
        "encoding": "mapping",
        "key": "t_address",
        "label": "mapping(address => uint256)",
        "numberOfBytes": "32",
        "value": "t_uint256"
      },
      "t_mapping(t_bytes32,t_bytes32)": {
        "encoding": "mapping",
        "key": "t_bytes32",
        "label": "mapping(bytes32 => bytes32)",
        "numberOfBytes": "32",
        "value": "t_bytes32"
      },
      "t_mapping(t_bytes32,t_uint256)": {
        "encoding": "mapping",
        "key": "t_bytes32",
        "label": "mapping(bytes32 => uint256)",
        "numberOfBytes": "32",
        "value": "t_uint256"
      },
      "t_mapping(t_bytes4,t_uint256)": {
        "encoding": "mapping",
        "key": "t_bytes4",
        "label": "mapping(bytes4 => uint256)",
        "numberOfBytes": "32",
        "value": "t_uint256"
      },
      "t_mapping(t_uint256,t_mapping(t_address,t_struct(Settings)7981_storage))": {
        "encoding": "mapping",
        "key": "t_uint256",
        "label": "mapping(uint256 => mapping(address => struct IPapaya.Settings))",
        "numberOfBytes": "32",
        "value": "t_mapping(t_address,t_struct(Settings)7981_storage)"
      },
      "t_mapping(t_uint256,t_struct(Settings)7981_storage)": {
        "encoding": "mapping",
        "key": "t_uint256",
        "label": "mapping(uint256 => struct IPapaya.Settings)",
        "numberOfBytes": "32",
        "value": "t_struct(Settings)7981_storage"
      },
      "t_mapping(t_uint256,t_uint256)": {
        "encoding": "mapping",
        "key": "t_uint256",
        "label": "mapping(uint256 => uint256)",
        "numberOfBytes": "32",
        "value": "t_uint256"
      },
      "t_string_storage": {
        "encoding": "bytes",
        "label": "string",
        "numberOfBytes": "32"
      },
      "t_struct(AddressToUintMap)5373_storage": {
        "encoding": "inplace",
        "label": "struct EnumerableMap.AddressToUintMap",
        "members": [
          {
            "astId": 5372,
            "contract": "contracts/Papaya.sol:Papaya",
            "label": "_inner",
            "offset": 0,
            "slot": "0",
            "type": "t_struct(Bytes32ToBytes32Map)4715_storage"
          }
        ],
        "numberOfBytes": "96"
      },
      "t_struct(Bytes32Set)6013_storage": {
        "encoding": "inplace",
        "label": "struct EnumerableSet.Bytes32Set",
        "members": [
          {
            "astId": 6012,
            "contract": "contracts/Papaya.sol:Papaya",
            "label": "_inner",
            "offset": 0,
            "slot": "0",
            "type": "t_struct(Set)5819_storage"
          }
        ],
        "numberOfBytes": "64"
      },
      "t_struct(Bytes32ToBytes32Map)4715_storage": {
        "encoding": "inplace",
        "label": "struct EnumerableMap.Bytes32ToBytes32Map",
        "members": [
          {
            "astId": 4710,
            "contract": "contracts/Papaya.sol:Papaya",
            "label": "_keys",
            "offset": 0,
            "slot": "0",
            "type": "t_struct(Bytes32Set)6013_storage"
          },
          {
            "astId": 4714,
            "contract": "contracts/Papaya.sol:Papaya",
            "label": "_values",
            "offset": 0,
            "slot": "2",
            "type": "t_mapping(t_bytes32,t_bytes32)"
          }
        ],
        "numberOfBytes": "96"
      },
      "t_struct(Data)174_storage": {
        "encoding": "inplace",
        "label": "struct AddressArray.Data",
        "members": [
          {
            "astId": 173,
            "contract": "contracts/Papaya.sol:Papaya",
            "label": "_raw",
            "offset": 0,
            "slot": "0",
            "type": "t_array(t_uint256)4294967296_storage"
          }
        ],
        "numberOfBytes": "137438953472"
      },
      "t_struct(Set)5819_storage": {
        "encoding": "inplace",
        "label": "struct EnumerableSet.Set",
        "members": [
          {
            "astId": 5814,
            "contract": "contracts/Papaya.sol:Papaya",
            "label": "_values",
            "offset": 0,
            "slot": "0",
            "type": "t_array(t_bytes32)dyn_storage"
          },
          {
            "astId": 5818,
            "contract": "contracts/Papaya.sol:Papaya",
            "label": "_positions",
            "offset": 0,
            "slot": "1",
            "type": "t_mapping(t_bytes32,t_uint256)"
          }
        ],
        "numberOfBytes": "64"
      },
      "t_struct(Settings)7981_storage": {
        "encoding": "inplace",
        "label": "struct IPapaya.Settings",
        "members": [
          {
            "astId": 7978,
            "contract": "contracts/Papaya.sol:Papaya",
            "label": "initialized",
            "offset": 0,
            "slot": "0",
            "type": "t_bool"
          },
          {
            "astId": 7980,
            "contract": "contracts/Papaya.sol:Papaya",
            "label": "projectFee",
            "offset": 1,
            "slot": "0",
            "type": "t_uint16"
          }
        ],
        "numberOfBytes": "32"
      },
      "t_struct(User)8142_storage": {
        "encoding": "inplace",
        "label": "struct UserLib.User",
        "members": [
          {
            "astId": 8135,
            "contract": "contracts/Papaya.sol:Papaya",
            "label": "balance",
            "offset": 0,
            "slot": "0",
            "type": "t_int256"
          },
          {
            "astId": 8137,
            "contract": "contracts/Papaya.sol:Papaya",
            "label": "incomeRate",
            "offset": 0,
            "slot": "1",
            "type": "t_int256"
          },
          {
            "astId": 8139,
            "contract": "contracts/Papaya.sol:Papaya",
            "label": "outgoingRate",
            "offset": 0,
            "slot": "2",
            "type": "t_int256"
          },
          {
            "astId": 8141,
            "contract": "contracts/Papaya.sol:Papaya",
            "label": "updated",
            "offset": 0,
            "slot": "3",
            "type": "t_uint256"
          }
        ],
        "numberOfBytes": "128"
      },
      "t_uint16": {
        "encoding": "inplace",
        "label": "uint16",
        "numberOfBytes": "2"
      },
      "t_uint256": {
        "encoding": "inplace",
        "label": "uint256",
        "numberOfBytes": "32"
      }
    }
  }
}