{
  "address": "0x44A2FD7527B4f39f6f909aFB50Dd8C4acf573530",
  "abi": [
    {
      "inputs": [
        {
          "internalType": "address",
          "name": "protocolSigner_",
          "type": "address"
        },
        {
          "internalType": "address",
          "name": "protocolWallet_",
          "type": "address"
        },
        {
          "internalType": "address",
          "name": "CHAIN_PRICE_FEED_",
          "type": "address"
        },
        {
          "internalType": "address",
          "name": "TOKEN_PRICE_FEED_",
          "type": "address"
        },
        {
          "internalType": "address",
          "name": "TOKEN_",
          "type": "address"
        },
        {
          "internalType": "uint8",
          "name": "TOKEN_DECIMALS_",
          "type": "uint8"
        }
      ],
      "stateMutability": "nonpayable",
      "type": "constructor"
    },
    {
      "inputs": [],
      "name": "ExcessOfRate",
      "type": "error"
    },
    {
      "inputs": [],
      "name": "ExcessOfSubscriptions",
      "type": "error"
    },
    {
      "inputs": [],
      "name": "InsufficialBalance",
      "type": "error"
    },
    {
      "inputs": [],
      "name": "InvalidNonce",
      "type": "error"
    },
    {
      "inputs": [],
      "name": "InvalidShortString",
      "type": "error"
    },
    {
      "inputs": [],
      "name": "NotLegal",
      "type": "error"
    },
    {
      "inputs": [],
      "name": "NotLiquidatable",
      "type": "error"
    },
    {
      "inputs": [],
      "name": "NotSubscribed",
      "type": "error"
    },
    {
      "inputs": [],
      "name": "Permit2TransferAmountTooHigh",
      "type": "error"
    },
    {
      "inputs": [],
      "name": "ReduceTheAmount",
      "type": "error"
    },
    {
      "inputs": [],
      "name": "SafeTransferFailed",
      "type": "error"
    },
    {
      "inputs": [],
      "name": "SafeTransferFromFailed",
      "type": "error"
    },
    {
      "inputs": [
        {
          "internalType": "string",
          "name": "str",
          "type": "string"
        }
      ],
      "name": "StringTooLong",
      "type": "error"
    },
    {
      "inputs": [],
      "name": "TopUpBalance",
      "type": "error"
    },
    {
      "inputs": [],
      "name": "WrongPercent",
      "type": "error"
    },
    {
      "anonymous": false,
      "inputs": [
        {
          "indexed": true,
          "internalType": "address",
          "name": "user",
          "type": "address"
        },
        {
          "indexed": false,
          "internalType": "uint96",
          "name": "rate",
          "type": "uint96"
        }
      ],
      "name": "ChangeSubscriptionRate",
      "type": "event"
    },
    {
      "anonymous": false,
      "inputs": [
        {
          "indexed": true,
          "internalType": "address",
          "name": "user",
          "type": "address"
        },
        {
          "indexed": false,
          "internalType": "uint256",
          "name": "amount",
          "type": "uint256"
        }
      ],
      "name": "Deposit",
      "type": "event"
    },
    {
      "anonymous": false,
      "inputs": [],
      "name": "EIP712DomainChanged",
      "type": "event"
    },
    {
      "anonymous": false,
      "inputs": [
        {
          "indexed": true,
          "internalType": "address",
          "name": "user",
          "type": "address"
        },
        {
          "indexed": true,
          "internalType": "address",
          "name": "liquidator",
          "type": "address"
        }
      ],
      "name": "Liquidate",
      "type": "event"
    },
    {
      "anonymous": false,
      "inputs": [
        {
          "indexed": true,
          "internalType": "address",
          "name": "previousOwner",
          "type": "address"
        },
        {
          "indexed": true,
          "internalType": "address",
          "name": "newOwner",
          "type": "address"
        }
      ],
      "name": "OwnershipTransferred",
      "type": "event"
    },
    {
      "anonymous": false,
      "inputs": [
        {
          "indexed": true,
          "internalType": "address",
          "name": "spender",
          "type": "address"
        },
        {
          "indexed": true,
          "internalType": "address",
          "name": "receiver",
          "type": "address"
        },
        {
          "indexed": false,
          "internalType": "address",
          "name": "executor",
          "type": "address"
        },
        {
          "indexed": false,
          "internalType": "bytes32",
          "name": "id",
          "type": "bytes32"
        },
        {
          "indexed": false,
          "internalType": "uint256",
          "name": "amount",
          "type": "uint256"
        }
      ],
      "name": "PayBySig",
      "type": "event"
    },
    {
      "anonymous": false,
      "inputs": [
        {
          "indexed": true,
          "internalType": "address",
          "name": "user",
          "type": "address"
        },
        {
          "indexed": true,
          "internalType": "address",
          "name": "author",
          "type": "address"
        },
        {
          "indexed": true,
          "internalType": "bytes32",
          "name": "id",
          "type": "bytes32"
        }
      ],
      "name": "Subscribe",
      "type": "event"
    },
    {
      "anonymous": false,
      "inputs": [
        {
          "indexed": true,
          "internalType": "address",
          "name": "_from",
          "type": "address"
        },
        {
          "indexed": true,
          "internalType": "address",
          "name": "_to",
          "type": "address"
        },
        {
          "indexed": false,
          "internalType": "uint256",
          "name": "_value",
          "type": "uint256"
        }
      ],
      "name": "Transfer",
      "type": "event"
    },
    {
      "anonymous": false,
      "inputs": [
        {
          "indexed": true,
          "internalType": "address",
          "name": "user",
          "type": "address"
        },
        {
          "indexed": true,
          "internalType": "address",
          "name": "author",
          "type": "address"
        },
        {
          "indexed": true,
          "internalType": "bytes32",
          "name": "id",
          "type": "bytes32"
        }
      ],
      "name": "Unsubscribe",
      "type": "event"
    },
    {
      "anonymous": false,
      "inputs": [
        {
          "indexed": true,
          "internalType": "address",
          "name": "user",
          "type": "address"
        },
        {
          "indexed": false,
          "internalType": "uint16",
          "name": "userFee",
          "type": "uint16"
        },
        {
          "indexed": false,
          "internalType": "uint16",
          "name": "protocolFee",
          "type": "uint16"
        }
      ],
      "name": "UpdateSettings",
      "type": "event"
    },
    {
      "inputs": [],
      "name": "APPROX_LIQUIDATE_GAS",
      "outputs": [
        {
          "internalType": "uint256",
          "name": "",
          "type": "uint256"
        }
      ],
      "stateMutability": "view",
      "type": "function"
    },
    {
      "inputs": [],
      "name": "APPROX_SUBSCRIPTION_GAS",
      "outputs": [
        {
          "internalType": "uint256",
          "name": "",
          "type": "uint256"
        }
      ],
      "stateMutability": "view",
      "type": "function"
    },
    {
      "inputs": [],
      "name": "COIN_DECIMALS",
      "outputs": [
        {
          "internalType": "uint8",
          "name": "",
          "type": "uint8"
        }
      ],
      "stateMutability": "view",
      "type": "function"
    },
    {
      "inputs": [],
      "name": "COIN_PRICE_FEED",
      "outputs": [
        {
          "internalType": "contract AggregatorV3Interface",
          "name": "",
          "type": "address"
        }
      ],
      "stateMutability": "view",
      "type": "function"
    },
    {
      "inputs": [],
      "name": "SUBSCRIPTION_THRESHOLD",
      "outputs": [
        {
          "internalType": "uint8",
          "name": "",
          "type": "uint8"
        }
      ],
      "stateMutability": "view",
      "type": "function"
    },
    {
      "inputs": [],
      "name": "TOKEN",
      "outputs": [
        {
          "internalType": "contract IERC20",
          "name": "",
          "type": "address"
        }
      ],
      "stateMutability": "view",
      "type": "function"
    },
    {
      "inputs": [],
      "name": "TOKEN_DECIMALS",
      "outputs": [
        {
          "internalType": "uint8",
          "name": "",
          "type": "uint8"
        }
      ],
      "stateMutability": "view",
      "type": "function"
    },
    {
      "inputs": [],
      "name": "TOKEN_PRICE_FEED",
      "outputs": [
        {
          "internalType": "contract AggregatorV3Interface",
          "name": "",
          "type": "address"
        }
      ],
      "stateMutability": "view",
      "type": "function"
    },
    {
      "inputs": [
        {
          "internalType": "address",
          "name": "account",
          "type": "address"
        }
      ],
      "name": "balanceOf",
      "outputs": [
        {
          "internalType": "uint256",
          "name": "",
          "type": "uint256"
        }
      ],
      "stateMutability": "view",
      "type": "function"
    },
    {
      "inputs": [
        {
          "internalType": "uint96",
          "name": "subscriptionRate",
          "type": "uint96"
        }
      ],
      "name": "changeSubscriptionRate",
      "outputs": [],
      "stateMutability": "nonpayable",
      "type": "function"
    },
    {
      "inputs": [
        {
          "internalType": "uint256",
          "name": "amount",
          "type": "uint256"
        }
      ],
      "name": "deposit",
      "outputs": [],
      "stateMutability": "nonpayable",
      "type": "function"
    },
    {
      "inputs": [
        {
          "components": [
            {
              "components": [
                {
                  "internalType": "address",
                  "name": "signer",
                  "type": "address"
                },
                {
                  "internalType": "uint256",
                  "name": "nonce",
                  "type": "uint256"
                },
                {
                  "internalType": "uint256",
                  "name": "executionFee",
                  "type": "uint256"
                }
              ],
              "internalType": "struct PayoutSigVerifier.Sig",
              "name": "sig",
              "type": "tuple"
            },
            {
              "internalType": "uint256",
              "name": "amount",
              "type": "uint256"
            }
          ],
          "internalType": "struct PayoutSigVerifier.DepositSig",
          "name": "depositsig",
          "type": "tuple"
        },
        {
          "internalType": "bytes",
          "name": "rvs",
          "type": "bytes"
        },
        {
          "internalType": "bytes",
          "name": "permitData",
          "type": "bytes"
        }
      ],
      "name": "depositBySig",
      "outputs": [],
      "stateMutability": "nonpayable",
      "type": "function"
    },
    {
      "inputs": [
        {
          "internalType": "uint256",
          "name": "amount",
          "type": "uint256"
        },
        {
          "internalType": "address",
          "name": "to",
          "type": "address"
        }
      ],
      "name": "depositFor",
      "outputs": [],
      "stateMutability": "nonpayable",
      "type": "function"
    },
    {
      "inputs": [
        {
          "internalType": "bytes",
          "name": "permitData",
          "type": "bytes"
        },
        {
          "internalType": "uint256",
          "name": "amount",
          "type": "uint256"
        }
      ],
      "name": "depositWithPermit",
      "outputs": [],
      "stateMutability": "nonpayable",
      "type": "function"
    },
    {
      "inputs": [],
      "name": "eip712Domain",
      "outputs": [
        {
          "internalType": "bytes1",
          "name": "fields",
          "type": "bytes1"
        },
        {
          "internalType": "string",
          "name": "name",
          "type": "string"
        },
        {
          "internalType": "string",
          "name": "version",
          "type": "string"
        },
        {
          "internalType": "uint256",
          "name": "chainId",
          "type": "uint256"
        },
        {
          "internalType": "address",
          "name": "verifyingContract",
          "type": "address"
        },
        {
          "internalType": "bytes32",
          "name": "salt",
          "type": "bytes32"
        },
        {
          "internalType": "uint256[]",
          "name": "extensions",
          "type": "uint256[]"
        }
      ],
      "stateMutability": "view",
      "type": "function"
    },
    {
      "inputs": [],
      "name": "getChainID",
      "outputs": [
        {
          "internalType": "uint256",
          "name": "",
          "type": "uint256"
        }
      ],
      "stateMutability": "view",
      "type": "function"
    },
    {
      "inputs": [
        {
          "internalType": "address",
          "name": "account",
          "type": "address"
        }
      ],
      "name": "liquidate",
      "outputs": [],
      "stateMutability": "nonpayable",
      "type": "function"
    },
    {
      "inputs": [
        {
          "internalType": "address",
          "name": "",
          "type": "address"
        }
      ],
      "name": "nonces",
      "outputs": [
        {
          "internalType": "uint256",
          "name": "",
          "type": "uint256"
        }
      ],
      "stateMutability": "view",
      "type": "function"
    },
    {
      "inputs": [],
      "name": "owner",
      "outputs": [
        {
          "internalType": "address",
          "name": "",
          "type": "address"
        }
      ],
      "stateMutability": "view",
      "type": "function"
    },
    {
      "inputs": [
        {
          "components": [
            {
              "components": [
                {
                  "internalType": "address",
                  "name": "signer",
                  "type": "address"
                },
                {
                  "internalType": "uint256",
                  "name": "nonce",
                  "type": "uint256"
                },
                {
                  "internalType": "uint256",
                  "name": "executionFee",
                  "type": "uint256"
                }
              ],
              "internalType": "struct PayoutSigVerifier.Sig",
              "name": "sig",
              "type": "tuple"
            },
            {
              "internalType": "address",
              "name": "receiver",
              "type": "address"
            },
            {
              "internalType": "uint256",
              "name": "amount",
              "type": "uint256"
            },
            {
              "internalType": "bytes32",
              "name": "id",
              "type": "bytes32"
            }
          ],
          "internalType": "struct PayoutSigVerifier.PaymentSig",
          "name": "payment",
          "type": "tuple"
        },
        {
          "internalType": "bytes",
          "name": "rvs",
          "type": "bytes"
        }
      ],
      "name": "payBySig",
      "outputs": [],
      "stateMutability": "nonpayable",
      "type": "function"
    },
    {
      "inputs": [],
      "name": "protocolWallet",
      "outputs": [
        {
          "internalType": "address",
          "name": "",
          "type": "address"
        }
      ],
      "stateMutability": "view",
      "type": "function"
    },
    {
      "inputs": [],
      "name": "renounceOwnership",
      "outputs": [],
      "stateMutability": "nonpayable",
      "type": "function"
    },
    {
      "inputs": [
        {
          "internalType": "contract IERC20",
          "name": "token",
          "type": "address"
        },
        {
          "internalType": "uint256",
          "name": "amount",
          "type": "uint256"
        }
      ],
      "name": "rescueFunds",
      "outputs": [],
      "stateMutability": "nonpayable",
      "type": "function"
    },
    {
      "inputs": [
        {
          "internalType": "address",
          "name": "author",
          "type": "address"
        },
        {
          "internalType": "uint256",
          "name": "maxRate",
          "type": "uint256"
        },
        {
          "internalType": "bytes32",
          "name": "id",
          "type": "bytes32"
        }
      ],
      "name": "subscribe",
      "outputs": [],
      "stateMutability": "nonpayable",
      "type": "function"
    },
    {
      "inputs": [
        {
          "components": [
            {
              "components": [
                {
                  "internalType": "address",
                  "name": "signer",
                  "type": "address"
                },
                {
                  "internalType": "uint256",
                  "name": "nonce",
                  "type": "uint256"
                },
                {
                  "internalType": "uint256",
                  "name": "executionFee",
                  "type": "uint256"
                }
              ],
              "internalType": "struct PayoutSigVerifier.Sig",
              "name": "sig",
              "type": "tuple"
            },
            {
              "internalType": "address",
              "name": "author",
              "type": "address"
            },
            {
              "internalType": "uint256",
              "name": "maxRate",
              "type": "uint256"
            },
            {
              "internalType": "bytes32",
              "name": "id",
              "type": "bytes32"
            }
          ],
          "internalType": "struct PayoutSigVerifier.SubSig",
          "name": "subscribeSig",
          "type": "tuple"
        },
        {
          "internalType": "bytes",
          "name": "rvs",
          "type": "bytes"
        }
      ],
      "name": "subscribeBySig",
      "outputs": [],
      "stateMutability": "nonpayable",
      "type": "function"
    },
    {
      "inputs": [],
      "name": "totalBalance",
      "outputs": [
        {
          "internalType": "uint256",
          "name": "",
          "type": "uint256"
        }
      ],
      "stateMutability": "view",
      "type": "function"
    },
    {
      "inputs": [
        {
          "internalType": "address",
          "name": "newOwner",
          "type": "address"
        }
      ],
      "name": "transferOwnership",
      "outputs": [],
      "stateMutability": "nonpayable",
      "type": "function"
    },
    {
      "inputs": [
        {
          "internalType": "address",
          "name": "author",
          "type": "address"
        },
        {
          "internalType": "bytes32",
          "name": "id",
          "type": "bytes32"
        }
      ],
      "name": "unsubscribe",
      "outputs": [],
      "stateMutability": "nonpayable",
      "type": "function"
    },
    {
      "inputs": [
        {
          "components": [
            {
              "components": [
                {
                  "internalType": "address",
                  "name": "signer",
                  "type": "address"
                },
                {
                  "internalType": "uint256",
                  "name": "nonce",
                  "type": "uint256"
                },
                {
                  "internalType": "uint256",
                  "name": "executionFee",
                  "type": "uint256"
                }
              ],
              "internalType": "struct PayoutSigVerifier.Sig",
              "name": "sig",
              "type": "tuple"
            },
            {
              "internalType": "address",
              "name": "author",
              "type": "address"
            },
            {
              "internalType": "bytes32",
              "name": "id",
              "type": "bytes32"
            }
          ],
          "internalType": "struct PayoutSigVerifier.UnSubSig",
          "name": "unsubscribeSig",
          "type": "tuple"
        },
        {
          "internalType": "bytes",
          "name": "rvs",
          "type": "bytes"
        }
      ],
      "name": "unsubscribeBySig",
      "outputs": [],
      "stateMutability": "nonpayable",
      "type": "function"
    },
    {
      "inputs": [
        {
          "internalType": "address",
          "name": "protocolSigner_",
          "type": "address"
        }
      ],
      "name": "updateProtocolSigner",
      "outputs": [],
      "stateMutability": "nonpayable",
      "type": "function"
    },
    {
      "inputs": [
        {
          "internalType": "address",
          "name": "protocolWallet_",
          "type": "address"
        }
      ],
      "name": "updateProtocolWallet",
      "outputs": [],
      "stateMutability": "nonpayable",
      "type": "function"
    },
    {
      "inputs": [
        {
          "components": [
            {
              "components": [
                {
                  "internalType": "address",
                  "name": "signer",
                  "type": "address"
                },
                {
                  "internalType": "uint256",
                  "name": "nonce",
                  "type": "uint256"
                },
                {
                  "internalType": "uint256",
                  "name": "executionFee",
                  "type": "uint256"
                }
              ],
              "internalType": "struct PayoutSigVerifier.Sig",
              "name": "sig",
              "type": "tuple"
            },
            {
              "internalType": "address",
              "name": "user",
              "type": "address"
            },
            {
              "components": [
                {
                  "internalType": "uint96",
                  "name": "subscriptionRate",
                  "type": "uint96"
                },
                {
                  "internalType": "uint16",
                  "name": "userFee",
                  "type": "uint16"
                },
                {
                  "internalType": "uint16",
                  "name": "protocolFee",
                  "type": "uint16"
                }
              ],
              "internalType": "struct PayoutSigVerifier.Settings",
              "name": "settings",
              "type": "tuple"
            }
          ],
          "internalType": "struct PayoutSigVerifier.SettingsSig",
          "name": "settings",
          "type": "tuple"
        },
        {
          "internalType": "bytes",
          "name": "rvs",
          "type": "bytes"
        }
      ],
      "name": "updateSettings",
      "outputs": [],
      "stateMutability": "nonpayable",
      "type": "function"
    },
    {
      "inputs": [
        {
          "internalType": "address",
          "name": "account",
          "type": "address"
        }
      ],
      "name": "users",
      "outputs": [
        {
          "internalType": "int256",
          "name": "balance",
          "type": "int256"
        },
        {
          "internalType": "uint256",
          "name": "incomeRate",
          "type": "uint256"
        },
        {
          "internalType": "uint256",
          "name": "outgoingRate",
          "type": "uint256"
        },
        {
          "internalType": "uint40",
          "name": "updTimestamp",
          "type": "uint40"
        },
        {
          "components": [
            {
              "internalType": "uint96",
              "name": "subscriptionRate",
              "type": "uint96"
            },
            {
              "internalType": "uint16",
              "name": "userFee",
              "type": "uint16"
            },
            {
              "internalType": "uint16",
              "name": "protocolFee",
              "type": "uint16"
            }
          ],
          "internalType": "struct PayoutSigVerifier.Settings",
          "name": "settings",
          "type": "tuple"
        }
      ],
      "stateMutability": "view",
      "type": "function"
    },
    {
      "inputs": [
        {
          "internalType": "uint256",
          "name": "amount",
          "type": "uint256"
        }
      ],
      "name": "withdraw",
      "outputs": [],
      "stateMutability": "nonpayable",
      "type": "function"
    }
  ],
  "transactionHash": "0x63e0c892206e74e8ac1298f59d98589f4954670cc6981e8db550ab72d0fbe953",
  "args": [
    "0xa461C50e169464dFFcd65A96bfa9682dE93b7520",
    "0x75C75EA24BDB26310C1eDC89A22E147EabA7906f",
    "0xd0D5e3DB44DE05E9F294BB0a3bEEaF030DE24Ada",
    "0x572dDec9087154dC5dfBB1546Bb62713147e0Ab0",
    "0x73CbF922ce00AC14cd06BDBBBD4F3646A2BBEa75",
    "6"
  ],
  "numDeployments": 3,
  "solcInputHash": "abbb022bf6f2e6b476704da05abffaf6",
  "bytecode": "0x6101e034620002c057601f6200435538819003918201601f19168301926001600160401b0392909183851183861017620002aa578160c09284926040978852833981010312620002c0576200005481620002e1565b906200006360208201620002e1565b62000070858301620002e1565b6200007e60608401620002e1565b9160a06200008f60808601620002e1565b9401519460ff86168603620002c057875191620000ac83620002c5565b601183526020830191702830bcb7baba29b4b3ab32b934b334b2b960791b83528951620000d981620002c5565b6001815260208101603160f81b8152620000f386620002f6565b946101209586526200010583620004c9565b96610140978852519020918260e0525190206101009b818d524660a05280519160208301937f8b73c3c69bb8fe3d512ecc4cf759cc79239f7b179b0ffacaa9a75d522b39400f85528284015260608301524660808301523060a083015260a0825260c082019b828d10908d1117620002aa578b90525190206080523060c052600280546001600160a01b031980821633908117909355936001600160a01b03939092849283167f8be0079c531659141344cd1fd0a4f28419497f9722a3daafe3b4186f6b6457e0600080a31683600454161760045581610160961686528161018097168752816101a0981688526101c098895216906007541617600755613cde9788620006778939608051886135ce015260a05188613689015260c0518861359f015260e0518861361d0152518761364301525186610d1301525185610d3d015251848181610c67015261331601525183818161027501526132d70152518281816106ec01528181610f420152818161102a01528181611a4701528181611cac015281816128d001528181612a720152612b730152518181816116b6015261338a0152f35b634e487b7160e01b600052604160045260246000fd5b600080fd5b604081019081106001600160401b03821117620002aa57604052565b51906001600160a01b0382168203620002c057565b8051602091908281101562000395575090601f8251116200033457808251920151908083106200032557501790565b82600019910360031b1b161790565b90604051809263305a27a960e01b82528060048301528251908160248401526000935b8285106200037b575050604492506000838284010152601f80199101168101030190fd5b848101820151868601604401529381019385935062000357565b6001600160401b038111620002aa576000928354926001938481811c91168015620004be575b83821014620004aa57601f811162000474575b5081601f84116001146200040d5750928293918392869462000401575b50501b916000199060031b1c191617905560ff90565b015192503880620003eb565b919083601f1981168780528488209488905b888383106200045957505050106200043f575b505050811b01905560ff90565b015160001960f88460031b161c1916905538808062000432565b8587015188559096019594850194879350908101906200041f565b85805284601f848820920160051c820191601f860160051c015b8281106200049e575050620003ce565b8781550185906200048e565b634e487b7160e01b86526022600452602486fd5b90607f1690620003bb565b805160209081811015620005575750601f825111620004f657808251920151908083106200032557501790565b90604051809263305a27a960e01b82528060048301528251908160248401526000935b8285106200053d575050604492506000838284010152601f80199101168101030190fd5b848101820151868601604401529381019385935062000519565b9192916001600160401b038111620002aa5760019182548381811c911680156200066b575b828210146200065557601f81116200061c575b5080601f8311600114620005cf575081929394600092620005c3575b5050600019600383901b1c191690821b17905560ff90565b015190503880620005ab565b90601f198316958460005282600020926000905b8882106200060457505083859697106200043f57505050811b01905560ff90565b808785968294968601518155019501930190620005e3565b8360005283601f83600020920160051c820191601f850160051c015b828110620006485750506200058f565b6000815501849062000638565b634e487b7160e01b600052602260045260246000fd5b90607f16906200057c56fe60806040908082526004918236101561001757600080fd5b60009260e08435811c93846306d6e63f14611d81575083630814c28514611d005783630d525ac014611b3757836318c3332614611a9c578484632e1a7d4d146119c7575083632f865568146117a957836336efd16f1461174d57836338aff6ae14611713578363564b81ef146116da5783635b7f415c1461167e5783636ba7c6b21461150257836370a0823114611484578363715018a6146113e65783637690a6e3146111ec57836377359159146111b257836378e3214f14610fc85783637ecebe0014610f6657836382bfefc814610ef7578363843ce43014610e4b57836384b0196e14610cde5783638da5cb5b14610c8b5783639a6c595214610c1c578363a5bc097f14610be1578363a87430ba14610ac5578363ad7a672f14610a88578363afcf3bbc146107b0578363b6b55f2514610773578363bbeb1ed714610737578363cec08c1e14610690578363da0d938a1461045d57508263e308a099146103db578263f2fde38b1461029d57508163f469f77a1461022a575063fb7e3d74146101a157600080fd5b346102275760607ffffffffffffffffffffffffffffffffffffffffffffffffffffffffffffffffc360112610227576101d8611dd1565b6101e56024358233612f86565b73ffffffffffffffffffffffffffffffffffffffff6044359116337f9d48c8374928935f162c75d7310b15fb1040c13fd2f8725698fd7e66cecc0a138480a480f35b80fd5b90503461029957817ffffffffffffffffffffffffffffffffffffffffffffffffffffffffffffffffc360112610299576020905173ffffffffffffffffffffffffffffffffffffffff7f0000000000000000000000000000000000000000000000000000000000000000168152f35b5080fd5b909150346103d75760207ffffffffffffffffffffffffffffffffffffffffffffffffffffffffffffffffc3601126103d7576102d7611dd1565b906102e0612071565b73ffffffffffffffffffffffffffffffffffffffff809216928315610354575050600254827fffffffffffffffffffffffff0000000000000000000000000000000000000000821617600255167f8be0079c531659141344cd1fd0a4f28419497f9722a3daafe3b4186f6b6457e08380a380f35b90602060849251917f08c379a0000000000000000000000000000000000000000000000000000000008352820152602660248201527f4f776e61626c653a206e6577206f776e657220697320746865207a65726f206160448201527f64647265737300000000000000000000000000000000000000000000000000006064820152fd5b8280fd5b83346102275760207ffffffffffffffffffffffffffffffffffffffffffffffffffffffffffffffffc3601126102275773ffffffffffffffffffffffffffffffffffffffff610428611dd1565b610430612071565b167fffffffffffffffffffffffff0000000000000000000000000000000000000000600754161760075580f35b92509034610688577ffffffffffffffffffffffffffffffffffffffffffffffffffffffffffffffffc360160c0811261068c5760a0136106885767ffffffffffffffff9160a435838111610684576104b89036908301611fa1565b916104c161245e565b9360443573ffffffffffffffffffffffffffffffffffffffff95610508898389841693848352600560205261050288808520948d600754168152209161328c565b92613987565b338952600560205283892061051e838254613952565b905583519182527fddf252ad1be2c89b69c2b068fc378daa952ba7f163c4a11628f55a4df523b3ef60203393a381519160208301937fad393dfe8522c7ebf48cc87f938e18127980fb505639ec7d21cd0ebe1603268285526105818285016134b5565b8661058a611df9565b1660a0850152608435978860c086015260c08552840192848410908411176106585750525190206105d991906105bf90613547565b6105c761245e565b6105cf61245e565b90602435926136af565b5061061c6105f66105e861245e565b6105f0612481565b90612c30565b6105fe61245e565b906bffffffffffffffffffffffff610614612481565b911691612cdb565b61062461245e565b908061062e612481565b1691167f373c591f0f8b71e8af368873ce91220bb01eaf58ab25191225215a0a01a5fd618480a480f35b8860416024927f4e487b7100000000000000000000000000000000000000000000000000000000835252fd5b8580fd5b8380fd5b8480fd5b509150346103d7577ffffffffffffffffffffffffffffffffffffffffffffffffffffffffffffffffc3601126102995780359067ffffffffffffffff82116103d7576106e56107109161072893369101611e3d565b80929130337f00000000000000000000000000000000000000000000000000000000000000006124c5565b506060811490811561072b575b5060243533336129e7565b80f35b6101609150143861071d565b84833461029957817ffffffffffffffffffffffffffffffffffffffffffffffffffffffffffffffffc36011261029957602090516201d4c08152f35b8482346102995760207ffffffffffffffffffffffffffffffffffffffffffffffffffffffffffffffffc3601126102995761072890353333612889565b849192346103d757610100367ffffffffffffffffffffffffffffffffffffffffffffffffffffffffffffffffc0181811261068c5783136106885767ffffffffffffffff9260e4358481116106845761080c9036908801611fa1565b61081461243c565b9461ffff95868061082361244d565b1691161015610a345761083461243c565b868061083e61244d565b16911601868111610a5c5786612710911603610a3457845160208101917f5d28c6d88e78f0b1c3c683cced71465011628afa85494e4b583128f2bd8325ca83526108898783016134b5565b73ffffffffffffffffffffffffffffffffffffffff95866108a8611df9565b1660a0840152608435956bffffffffffffffffffffffff8716809703610a2c578660c085015260a435908a8216809203610a305784015260c435898116809103610a2c57838201528252610120820190811182821017610a0057610946927f2bc7c690e379673c356b3cb9b8eb4e6040e2158721e4465aa0fe1f187443f40b98999a949261093a928952519020613547565b858454166105cf612481565b5082610950612481565b16875260056020528387208360075416885261096e85892082613c3b565b01908154906dffff00000000000000000000000061098a61244d565b60601b16907fffffffffffffffffffffffffffffffff000000000000000000000000000000006fffff00000000000000000000000000006109c961243c565b60701b16931617171790556109dc612481565b6109e461244d565b946109ed61243c565b818551971687521660208601521692a280f35b60248960418c7f4e487b7100000000000000000000000000000000000000000000000000000000835252fd5b8a80fd5b8b80fd5b8785517f08e8d3d5000000000000000000000000000000000000000000000000000000008152fd5b60248860118b7f4e487b7100000000000000000000000000000000000000000000000000000000835252fd5b84833461029957817ffffffffffffffffffffffffffffffffffffffffffffffffffffffffffffffffc360112610299576020906008549051908152f35b9184346102275760207ffffffffffffffffffffffffffffffffffffffffffffffffffffffffffffffffc3601126102275773ffffffffffffffffffffffffffffffffffffffff610b13611dd1565b168152600560205281812080549360018201549160028101549164ffffffffff60038301541691865195606087019087821067ffffffffffffffff831117610bb5575087520154936bffffffffffffffffffffffff918286168252602082019361ffff978896878960601c168752878286019960701c16895281519a8b5260208b0152890152606088015251166080860152511660a0840152511660c0820152f35b806041857f4e487b71000000000000000000000000000000000000000000000000000000006024945252fd5b84833461029957817ffffffffffffffffffffffffffffffffffffffffffffffffffffffffffffffffc3601126102995760209051611f408152f35b84833461029957817ffffffffffffffffffffffffffffffffffffffffffffffffffffffffffffffffc360112610299576020905173ffffffffffffffffffffffffffffffffffffffff7f0000000000000000000000000000000000000000000000000000000000000000168152f35b84833461029957817ffffffffffffffffffffffffffffffffffffffffffffffffffffffffffffffffc3601126102995760209073ffffffffffffffffffffffffffffffffffffffff600254169051908152f35b91843461022757807ffffffffffffffffffffffffffffffffffffffffffffffffffffffffffffffffc36011261022757610d377f00000000000000000000000000000000000000000000000000000000000000006120f0565b90610d617f0000000000000000000000000000000000000000000000000000000000000000612263565b928051936020938486019686881067ffffffffffffffff891117610e1f57509593610dd5838293878b999652868652610dc882519a8b9a7f0f000000000000000000000000000000000000000000000000000000000000008c5280878d01528b0190612013565b91898303908a0152612013565b924660608801523060808801528460a088015286840360c088015251928381520193925b828110610e0857505050500390f35b835185528695509381019392810192600101610df9565b8460416024927f4e487b7100000000000000000000000000000000000000000000000000000000835252fd5b509150346103d75760207ffffffffffffffffffffffffffffffffffffffffffffffffffffffffffffffffc3601126103d7578135916bffffffffffffffffffffffff831680930361068857338452600560205281842001827fffffffffffffffffffffffffffffffffffffffff000000000000000000000000825416179055519081527fcbe76e2308c6dbaa4a8d74be4b741727f7fc9ee8ede6445a629918edc83cf41d60203392a280f35b84833461029957817ffffffffffffffffffffffffffffffffffffffffffffffffffffffffffffffffc360112610299576020905173ffffffffffffffffffffffffffffffffffffffff7f0000000000000000000000000000000000000000000000000000000000000000168152f35b8483346102995760207ffffffffffffffffffffffffffffffffffffffffffffffffffffffffffffffffc360112610299578060209273ffffffffffffffffffffffffffffffffffffffff610fb8611dd1565b1681526003845220549051908152f35b509150346103d757807ffffffffffffffffffffffffffffffffffffffffffffffffffffffffffffffffc3601126103d75773ffffffffffffffffffffffffffffffffffffffff8235818116918282036106845760243592611027612071565b817f0000000000000000000000000000000000000000000000000000000000000000168082149081611117575b506110ef5786939291906110db57505081808092335af1611073612372565b501561107e57505080f35b90602060649251917f08c379a0000000000000000000000000000000000000000000000000000000008352820152601c60248201527f5061796f75743a205472616e7366657220636f696e206661696c6564000000006044820152fd5b9193509150610728935060075416906123a2565b8585517fda89fe91000000000000000000000000000000000000000000000000000000008152fd5b602491506020908751928380927f70a08231000000000000000000000000000000000000000000000000000000008252308c8301525afa80156111a8578890611171575b611169915060085490612336565b841138611054565b506020813d82116111a0575b8161118a60209383611eef565b8101031261119c57611169905161115b565b8780fd5b3d915061117d565b86513d8a823e3d90fd5b84833461029957817ffffffffffffffffffffffffffffffffffffffffffffffffffffffffffffffffc360112610299576020905160648152f35b925050346103d7576111fd36611fbf565b9092611208846124a4565b90838501359273ffffffffffffffffffffffffffffffffffffffff918284169485895260209460058652878a209085600754168b5282898c209161124b9061328c565b9161125593613987565b338952600585528689208181549061126c91613952565b905586519081527fddf252ad1be2c89b69c2b068fc378daa952ba7f163c4a11628f55a4df523b3ef9586863393a38551848101917f45e2530d9b4b4107e164312ecbeec8bc5b2dd6807350344929778fb1a8dde05a83528782016112d0908a6134ea565b81526112db81611eb6565b5190206112e790613547565b906112f1876124a4565b6112fa886124a4565b8589013591611308946136af565b5080611313866124a4565b16865260058252808487209481600754168852808820956080880135968761133a8a6124a4565b6113439061328c565b9161134d93613987565b60608701968261135c896124a4565b168952600585528189208781549061137391613952565b905561137e816124a4565b611387896124a4565b848085519233845260a08601358a8501528b878501521692169060607f0b909c3b107998af1a2c39db9ce7d90ac92ee73043353dea81a86efd42b7ed4291a36113cf906124a4565b966113d9906124a4565b905195865216941692a380f35b843461022757807ffffffffffffffffffffffffffffffffffffffffffffffffffffffffffffffffc3601126102275761141d612071565b8073ffffffffffffffffffffffffffffffffffffffff6002547fffffffffffffffffffffffff00000000000000000000000000000000000000008116600255167f8be0079c531659141344cd1fd0a4f28419497f9722a3daafe3b4186f6b6457e08280a380f35b8483346102995760207ffffffffffffffffffffffffffffffffffffffffffffffffffffffffffffffffc3601126102995760209173ffffffffffffffffffffffffffffffffffffffff6114d5611dd1565b168152600583526114e7828220613b4b565b5090808213156114fa5750905b51908152f35b9050906114f4565b925050346103d75761161461156a916115f661151d36611fbf565b929095611529876124a4565b888389013597889273ffffffffffffffffffffffffffffffffffffffff9981610502888d80951696878152600560205281812095600754168152209161328c565b338a526005602052838a20611580838254613952565b905583519182527fddf252ad1be2c89b69c2b068fc378daa952ba7f163c4a11628f55a4df523b3ef60203393a38151906115e360208301937fc2eeead625770800ba2549bf3ea57d36d80f4e01dc7994148ee2ba1629b3a68885528301896134ea565b81526115ee81611eb6565b519020613547565b6115ff856124a4565b611608866124a4565b906020870135926136af565b5061161e826124a4565b9061163b6060840192611630846124a4565b608086013591612f86565b8060a061165061164a866124a4565b946124a4565b940135931691167f9d48c8374928935f162c75d7310b15fb1040c13fd2f8725698fd7e66cecc0a138480a480f35b84833461029957817ffffffffffffffffffffffffffffffffffffffffffffffffffffffffffffffffc360112610299576020905160ff7f0000000000000000000000000000000000000000000000000000000000000000168152f35b84833461029957817ffffffffffffffffffffffffffffffffffffffffffffffffffffffffffffffffc3601126102995760209051468152f35b84833461029957817ffffffffffffffffffffffffffffffffffffffffffffffffffffffffffffffffc360112610299576020905160128152f35b509150346103d7577ffffffffffffffffffffffffffffffffffffffffffffffffffffffffffffffffc3601126102995760243573ffffffffffffffffffffffffffffffffffffffff811681036103d75761072891359033612889565b509150346103d757602090817ffffffffffffffffffffffffffffffffffffffffffffffffffffffffffffffffc360112610688576117e5611dd1565b9173ffffffffffffffffffffffffffffffffffffffff8084169485875260058352838720946118138161328c565b8861181d88613a6c565b501290816119b4575b501561198c5790879594939291878752600684528487209283548060028601915b6118925750505050505060059033855252822061186682548254613952565b90555533907fc3d81b2125598b9a2b024afe09e33981f0aa5b7bcbe3e30c4303a4dec209ddb48380a380f35b909192939495969798507fffffffffffffffffffffffffffffffffffffffffffffffffffffffffffffffff8101818111611960578b846bffffffffffffffffffffffff8b6118e36118fc958c612835565b90549060031b1c93848152878d52205416911686612cdb565b8015611934577fffffffffffffffffffffffffffffffffffffffffffffffffffffffffffffffff0190818b9998979695949392611847565b60248b6011877f4e487b7100000000000000000000000000000000000000000000000000000000835252fd5b60248c6011887f4e487b7100000000000000000000000000000000000000000000000000000000835252fd5b5083517fddeb79ba000000000000000000000000000000000000000000000000000000008152fd5b90506119bf87613ab5565b501238611826565b93505034611a985760207ffffffffffffffffffffffffffffffffffffffffffffffffffffffffffffffffc360112611a985735903383526005602052611a3181842073ffffffffffffffffffffffffffffffffffffffff600754168552838386206105023361328c565b611a3d82600854612336565b600855611a6b82337f00000000000000000000000000000000000000000000000000000000000000006123a2565b519081527fddf252ad1be2c89b69c2b068fc378daa952ba7f163c4a11628f55a4df523b3ef60203392a380f35b5050fd5b848334610299577ffffffffffffffffffffffffffffffffffffffffffffffffffffffffffffffffc36011261022757611ad3611dd1565b611af56bffffffffffffffffffffffff611aed8333612c30565b168233612cdb565b73ffffffffffffffffffffffffffffffffffffffff6024359116337f373c591f0f8b71e8af368873ce91220bb01eaf58ab25191225215a0a01a5fd618480a480f35b509150346103d7577ffffffffffffffffffffffffffffffffffffffffffffffffffffffffffffffffc360160c08112610688576080136103d75767ffffffffffffffff9060843582811161068c57611b929036908501611e3d565b93909260a4359081116106845761072894611c9f611bb9611cd094611c5094369101611e3d565b9687949193611bc661245e565b8b611c068a604435809461050273ffffffffffffffffffffffffffffffffffffffff9384831696878152600560205281812095600754168152209161328c565b338d526005602052898d20611c1c838254613952565b905589519182527fddf252ad1be2c89b69c2b068fc378daa952ba7f163c4a11628f55a4df523b3ef60203393a33691611f6a565b6105bf865196611c8860208901917fe8d1c597a62d6e2ab3b9ea9b09215a043159e6e592d246bd34e13b334ab14ecd835289016134b5565b606435978860a082015260a081526115ee81611e6b565b50611ca861245e565b30907f00000000000000000000000000000000000000000000000000000000000000006124c5565b50611cd961245e565b611ce161245e565b9060608414938415611cf4575b506129e7565b61016014935038611cee565b8482346102995760207ffffffffffffffffffffffffffffffffffffffffffffffffffffffffffffffffc3601126102995773ffffffffffffffffffffffffffffffffffffffff611d4e611dd1565b611d56612071565b167fffffffffffffffffffffffff000000000000000000000000000000000000000082541617905580f35b85903461029957817ffffffffffffffffffffffffffffffffffffffffffffffffffffffffffffffffc3601126102995760209073ffffffffffffffffffffffffffffffffffffffff600754168152f35b6004359073ffffffffffffffffffffffffffffffffffffffff82168203611df457565b600080fd5b6064359073ffffffffffffffffffffffffffffffffffffffff82168203611df457565b359073ffffffffffffffffffffffffffffffffffffffff82168203611df457565b9181601f84011215611df45782359167ffffffffffffffff8311611df45760208381860195010111611df457565b60c0810190811067ffffffffffffffff821117611e8757604052565b7f4e487b7100000000000000000000000000000000000000000000000000000000600052604160045260246000fd5b610100810190811067ffffffffffffffff821117611e8757604052565b6040810190811067ffffffffffffffff821117611e8757604052565b90601f7fffffffffffffffffffffffffffffffffffffffffffffffffffffffffffffffe0910116810190811067ffffffffffffffff821117611e8757604052565b67ffffffffffffffff8111611e8757601f017fffffffffffffffffffffffffffffffffffffffffffffffffffffffffffffffe01660200190565b929192611f7682611f30565b91611f846040519384611eef565b829481845281830111611df4578281602093846000960137010152565b9080601f83011215611df457816020611fbc93359101611f6a565b90565b907ffffffffffffffffffffffffffffffffffffffffffffffffffffffffffffffffc820160e08112611df45760c013611df45760049160c4359067ffffffffffffffff8211611df457611fbc918401611fa1565b919082519283825260005b84811061205d5750507fffffffffffffffffffffffffffffffffffffffffffffffffffffffffffffffe0601f8460006020809697860101520116010190565b60208183018101518483018201520161201e565b73ffffffffffffffffffffffffffffffffffffffff60025416330361209257565b60646040517f08c379a000000000000000000000000000000000000000000000000000000000815260206004820152602060248201527f4f776e61626c653a2063616c6c6572206973206e6f7420746865206f776e65726044820152fd5b60ff81146121465760ff811690601f821161211c576040519161211283611ed3565b8252602082015290565b60046040517fb3512b0c000000000000000000000000000000000000000000000000000000008152fd5b506040516000805490600182811c90808416938415612259575b602094858410811461222c57838752869493929181156121ed5750600114612191575b5050611fbc92500382611eef565b60008080527f290decd9548b62a8d60345a988386fc84ba6bc95484008f6362f93160ef3e56395935091905b8183106121d5575050611fbc93508201013880612183565b855487840185015294850194869450918301916121bd565b9050611fbc9593507fffffffffffffffffffffffffffffffffffffffffffffffffffffffffffffff0091501682840152151560051b8201013880612183565b6024857f4e487b710000000000000000000000000000000000000000000000000000000081526022600452fd5b91607f1691612160565b60ff81146122855760ff811690601f821161211c576040519161211283611ed3565b50604051600060019081549182811c9080841693841561232c575b602094858410811461222c57838752869493929181156121ed57506001146122d0575050611fbc92500382611eef565b60008181527fb10e2d527612073b26eecdfd717e6a320cf44b4afac2b0732d9fcbe2b7fa0cf695935091905b818310612314575050611fbc93508201013880612183565b855487840185015294850194869450918301916122fc565b91607f16916122a0565b9190820391821161234357565b7f4e487b7100000000000000000000000000000000000000000000000000000000600052601160045260246000fd5b3d1561239d573d9061238382611f30565b916123916040519384611eef565b82523d6000602084013e565b606090565b916044602092600092604051917fa9059cbb0000000000000000000000000000000000000000000000000000000083526004830152602482015282855af19081612419575b50156123ef57565b60046040517ffb7f5079000000000000000000000000000000000000000000000000000000008152fd5b90503d156124345750600160005114601f3d11165b386123e7565b3b151561242e565b60c43561ffff81168103611df45790565b60a43561ffff81168103611df45790565b60043573ffffffffffffffffffffffffffffffffffffffff81168103611df45790565b60643573ffffffffffffffffffffffffffffffffffffffff81168103611df45790565b3573ffffffffffffffffffffffffffffffffffffffff81168103611df45790565b929160009360405195928360641461278057836048146126bf578360e0146126845783610100146126475783606014612572575050506101601461252b576004837f68275857000000000000000000000000000000000000000000000000000000008152fd5b82610160610164927f2b67b570000000000000000000000000000000000000000000000000000000008596526004830137826e22d473030f116ddee9f6b43ac78ba35af190565b86935093602092604092610164967f2b67b57000000000000000000000000000000000000000000000000000000000899a526004870152602486015260148260508701377fffffffffffffffffffffffffffffffffffffffffffffffffffffffffffffffff65ffffffffffff9181601485013560e01c0183166064880152601884013560e01c608488015260a4870152601c83013560e01c011660c485015261010060e4850152816101048501528280820161012486013701610144830137826e22d473030f116ddee9f6b43ac78ba35af190565b508592508495859250610104947f8fcbaf0c00000000000000000000000000000000000000000000000000000000610100925260048501375af190565b50859250849585925060e4947fd505accf0000000000000000000000000000000000000000000000000000000060e0925260048501375af190565b869350610104948697937f7fffffffffffffffffffffffffffffffffffffffffffffffffffffffffffffff927f8fcbaf0c000000000000000000000000000000000000000000000000000000008996526004870152602486015260206008602883013592803560e01c60448901527fffffffffffffffffffffffffffffffffffffffffffffffffffffffffffffffff600482013560e01c016064890152600160848901528360ff1c601b0160a48901520160c48701371660e48401525af190565b86935060e4948697937f7fffffffffffffffffffffffffffffffffffffffffffffffffffffffffffffff927fd505accf000000000000000000000000000000000000000000000000000000008996526004870152602486015260206024604483013592828160448a01377fffffffffffffffffffffffffffffffffffffffffffffffffffffffffffffffff8382013560e01c0160648901528360ff1c601b0160848901520160a48701371660c48401525af190565b805482101561284d5760005260206000200190600090565b7f4e487b7100000000000000000000000000000000000000000000000000000000600052603260045260246000fd5b9190820180921161234357565b919073ffffffffffffffffffffffffffffffffffffffff8091169260008481526005602052604081206128bd858254613952565b90556128cb8460085461287c565b6008557f000000000000000000000000000000000000000000000000000000000000000060208260646040517f23b872dd00000000000000000000000000000000000000000000000000000000815286600482015230602482015288604482015282855af191826129c2575b505015612998577fddf252ad1be2c89b69c2b068fc378daa952ba7f163c4a11628f55a4df523b3ef91602091857fe1fffcc4923d04b559f4d29a8bfc6cda04eb5b0d3c460751c2402c5c5cc9109c84604051888152a26040519485521692a3565b60046040517ff4059071000000000000000000000000000000000000000000000000000000008152fd5b9091503d156129de57600191505114601f3d11165b3880612937565b503b15156129d7565b73ffffffffffffffffffffffffffffffffffffffff8092169360008581526005602052604091828220612a1b878254613952565b9055612a298660085461287c565b60085515612b7157838511612b48578151907f36c785160000000000000000000000000000000000000000000000000000000082528360048301523060248301528560448301527f000000000000000000000000000000000000000000000000000000000000000060648301528060846e22d473030f116ddee9f6b43ac78ba39382855af19081612b3d575b5015612b1457916020917fddf252ad1be2c89b69c2b068fc378daa952ba7f163c4a11628f55a4df523b3ef935b867fe1fffcc4923d04b559f4d29a8bfc6cda04eb5b0d3c460751c2402c5c5cc9109c858351898152a2519485521692a3565b600490517ff4059071000000000000000000000000000000000000000000000000000000008152fd5b90503b151538612ab5565b600482517f8112e119000000000000000000000000000000000000000000000000000000008152fd5b7f0000000000000000000000000000000000000000000000000000000000000000602082606485517f23b872dd00000000000000000000000000000000000000000000000000000000815287600482015230602482015289604482015282855af19182612c0b575b505015612b1457916020917fddf252ad1be2c89b69c2b068fc378daa952ba7f163c4a11628f55a4df523b3ef93612ae2565b9091503d15612c2757600191505114601f3d11165b3880612bd9565b503b1515612c20565b90612c629173ffffffffffffffffffffffffffffffffffffffff80911660005260066020526040600020911690612c95565b9015612c6b5790565b60046040517f237e6c28000000000000000000000000000000000000000000000000000000008152fd5b91908060005260028301602052604060002054928315600014612cd357612ccd92935060019160005201602052604060002054151590565b90600090565b505060019190565b9291909273ffffffffffffffffffffffffffffffffffffffff80911693600090858252600560205260409260026bffffffffffffffffffffffff8585209683600754168652612d2c87872089613c3b565b169501612d3a868254612336565b9055808216948584526005602052612d548585209361328c565b916007541684526005602052612d6c85852084613c3b565b612d7b60018401918254612336565b905582612d8783613a6c565b50129182612de4575b5050612dbb57612db89394815260066020528181209183825260028301602052812055612df8565b50565b600482517fe9e3f12e000000000000000000000000000000000000000000000000000000008152fd5b612def919250613bc5565b50123880612d90565b90600182019060009281845282602052604084205490811515600014612f7f577fffffffffffffffffffffffffffffffffffffffffffffffffffffffffffffffff91828101818111612f5257825490848201918211612f2557808203612ebb575b50505080548015612e8e57820191612e718383612835565b909182549160031b1b191690555582526020526040812055600190565b6024867f4e487b710000000000000000000000000000000000000000000000000000000081526031600452fd5b612f10612ecb612edb9386612835565b90549060031b1c92839286612835565b81939154907fffffffffffffffffffffffffffffffffffffffffffffffffffffffffffffffff9060031b92831b921b19161790565b90558652846020526040862055388080612e59565b6024887f4e487b710000000000000000000000000000000000000000000000000000000081526011600452fd5b6024877f4e487b710000000000000000000000000000000000000000000000000000000081526011600452fd5b5050505090565b92919273ffffffffffffffffffffffffffffffffffffffff938482169160008381526020936006855260409283832096612fc38a82168099612c95565b9190613130575b5050818352600686526064848420541461310757868352600586526bffffffffffffffffffffffff60048585200154169485116130de57818352600586526130148484209161328c565b896007541684526005875261302b85852083613c3b565b6002820161303a87825461287c565b90558361304683613a6c565b501291826130ca575b50506130a1576001612db89798878452600587528484209060075416845261307985852082613c3b565b0161308585825461287c565b9055815260068452818120938582526002850190522055613150565b600483517fe9e3f12e000000000000000000000000000000000000000000000000000000008152fd5b6130d5919250613bc5565b5012388061304f565b600484517fd83a01fa000000000000000000000000000000000000000000000000000000008152fd5b600484517fa3f01687000000000000000000000000000000000000000000000000000000008152fd5b6bffffffffffffffffffffffff61314992169083612cdb565b3880612fca565b60008281526001820160205260409020546131a55780549068010000000000000000821015611e87578261318e612edb846001809601855584612835565b905580549260005201602052604060002055600190565b5050600090565b519069ffffffffffffffffffff82168203611df457565b908160a0910312611df4576131d7816131ac565b91602082015191604081015191611fbc6080606084015193016131ac565b8181029291811591840414171561234357565b811561325d577fffffffffffffffffffffffffffffffffffffffffffffffffffffffffffffffff82147f8000000000000000000000000000000000000000000000000000000000000000821416612343570590565b7f4e487b7100000000000000000000000000000000000000000000000000000000600052601260045260246000fd5b906040517ffeaf968c0000000000000000000000000000000000000000000000000000000080825260a09060049473ffffffffffffffffffffffffffffffffffffffff9183858881867f0000000000000000000000000000000000000000000000000000000000000000165afa94851561348557600095613491575b5060405190815283818881867f0000000000000000000000000000000000000000000000000000000000000000165afa93841561348557600094613451575b5050166000526006602052604060002054611f409080820291820403613423576201d4c0908101809111613423579061338361338892486131f5565b6131f5565b7f000000000000000000000000000000000000000000000000000000000000000060ff169190601283101561341557906133c191613208565b9060120360ff81116133e75760ff16604d81116133e757611fbc929350600a0a90613208565b6011847f4e487b71000000000000000000000000000000000000000000000000000000006000525260246000fd5b909150611fbc929350613208565b6011857f4e487b71000000000000000000000000000000000000000000000000000000006000525260246000fd5b613471929450803d1061347e575b6134698183611eef565b8101906131c3565b5050509050913880613347565b503d61345f565b6040513d6000823e3d90fd5b6134a9919550843d861161347e576134698183611eef565b50505090509338613308565b60043573ffffffffffffffffffffffffffffffffffffffff8116809103611df457815260243560208201526040604435910152565b60a0809173ffffffffffffffffffffffffffffffffffffffff8061350d83611e1c565b168552602082013560208601526040820135604086015261353060608301611e1c565b166060850152608081013560808501520135910152565b604290613552613588565b90604051917f19010000000000000000000000000000000000000000000000000000000000008352600283015260228201522090565b73ffffffffffffffffffffffffffffffffffffffff7f000000000000000000000000000000000000000000000000000000000000000016301480613686575b156135f0577f000000000000000000000000000000000000000000000000000000000000000090565b60405160208101907f8b73c3c69bb8fe3d512ecc4cf759cc79239f7b179b0ffacaa9a75d522b39400f82527f000000000000000000000000000000000000000000000000000000000000000060408201527f000000000000000000000000000000000000000000000000000000000000000060608201524660808201523060a082015260a0815261368081611e6b565b51902090565b507f000000000000000000000000000000000000000000000000000000000000000046146135c7565b9193929073ffffffffffffffffffffffffffffffffffffffff8095169360009480865260209360038552604087205403613854578552600383526040852080547fffffffffffffffffffffffffffffffffffffffffffffffffffffffffffffffff8114612f52576001019055613725818561387e565b600581101561382757159687613818575b50508515613747575b505050505090565b8495509084929394916040516137c581613799888201947f1626ba7e000000000000000000000000000000000000000000000000000000009a8b87526024840152604060448401526064830190612013565b037fffffffffffffffffffffffffffffffffffffffffffffffffffffffffffffffe08101835282611eef565b51915afa926137d2612372565b908461380b575b846137ed575b50505050388080808061373f565b909180939450828051810103126102275750015114388080806137df565b93508181511015936137d9565b83811691161495503880613736565b6024877f4e487b710000000000000000000000000000000000000000000000000000000081526021600452fd5b60046040517f756688fe000000000000000000000000000000000000000000000000000000008152fd5b9060418151146000146138ac576138a8916020820151906060604084015193015160001a906138b6565b9091565b5050600090600290565b9291907f7fffffffffffffffffffffffffffffff5d576e7357a4501ddfe92f46681b20a083116139465791608094939160ff602094604051948552168484015260408301526060820152600093849182805260015afa1561393957815173ffffffffffffffffffffffffffffffffffffffff811615613933579190565b50600190565b50604051903d90823e3d90fd5b50505050600090600390565b9190916000838201938412911290801582169115161761234357565b8181039291600013801582851316918412161761234357565b9291906139949084613c3b565b825490808212613a03576139a79161396e565b825560006139b483613a6c565b501291826139ef575b50506139c557565b60046040517fb2285767000000000000000000000000000000000000000000000000000000008152fd5b6139fa919250613bc5565b501238806139bd565b60046040517fda89fe91000000000000000000000000000000000000000000000000000000008152fd5b8181029291600082127f800000000000000000000000000000000000000000000000000000000000000082141661234357818405149015171561234357565b90600182015491613ab160048201549361271092613aa661ffff91600286613a9c858b60601c1660010b87613a2d565b059101549061396e565b9560701c16906131f5565b0490565b9064ffffffffff60038301541665ffffffffffff421681148015613b43575b613b3a57613ae183613a6c565b939091821580613b32575b613b2757613afa9042612336565b9062015180820180921161234357611fbc92613b1b83613b21935492613a2d565b90613952565b936131f5565b505492506000919050565b508415613aec565b50905490600090565b508015613ad4565b9064ffffffffff6003830154169165ffffffffffff421683148015613bbd575b613bb557613b7881613a6c565b93811580613bad575b613ba357611fbc9291613b1b613b9a613b219342612336565b80945492613a2d565b5050549150600090565b508415613b81565b549150600090565b508215613b6b565b9064ffffffffff60038301541665ffffffffffff421681148015613c33575b613b3a57613bf183613a6c565b939091821580613c2b575b613b2757613c0a9042612336565b906202a300820180921161234357611fbc92613b1b83613b21935492613a2d565b508415613bfc565b508015613be4565b600391613c4782613b4b565b9083548103613ca0575b5080613c8c575b50500164ffffffffff42167fffffffffffffffffffffffffffffffffffffffffffffffffffffff0000000000825416179055565b613c97908254613952565b90553880613c58565b835538613c5156fea26469706673582212202baaa08981af2448509ee18b88cf14a6c32b2e6513a913600b81303aaffbb9d364736f6c63430008130033",
  "devdoc": {
    "events": {
      "EIP712DomainChanged()": {
        "details": "MAY be emitted to signal that the domain could have changed."
      }
    },
    "kind": "dev",
    "methods": {
      "eip712Domain()": {
        "details": "See {EIP-5267}. _Available since v4.9._"
      },
      "owner()": {
        "details": "Returns the address of the current owner."
      },
      "renounceOwnership()": {
        "details": "Leaves the contract without owner. It will not be possible to call `onlyOwner` functions. Can only be called by the current owner. NOTE: Renouncing ownership will leave the contract without an owner, thereby disabling any functionality that is only available to the owner."
      },
      "transferOwnership(address)": {
        "details": "Transfers ownership of the contract to a new account (`newOwner`). Can only be called by the current owner."
      }
    },
    "version": 1
  },
  "userdoc": {
    "kind": "user",
    "methods": {},
    "version": 1
  },
  "storageLayout": {
    "storage": [
      {
        "astId": 1893,
        "contract": "contracts/Payout.sol:Payout",
        "label": "_nameFallback",
        "offset": 0,
        "slot": "0",
        "type": "t_string_storage"
      },
      {
        "astId": 1895,
        "contract": "contracts/Payout.sol:Payout",
        "label": "_versionFallback",
        "offset": 0,
        "slot": "1",
        "type": "t_string_storage"
      },
      {
        "astId": 656,
        "contract": "contracts/Payout.sol:Payout",
        "label": "_owner",
        "offset": 0,
        "slot": "2",
        "type": "t_address"
      },
      {
        "astId": 6199,
        "contract": "contracts/Payout.sol:Payout",
        "label": "nonces",
        "offset": 0,
        "slot": "3",
        "type": "t_mapping(t_address,t_uint256)"
      },
      {
        "astId": 6201,
        "contract": "contracts/Payout.sol:Payout",
        "label": "protocolSigner",
        "offset": 0,
        "slot": "4",
        "type": "t_address"
      },
      {
        "astId": 5061,
        "contract": "contracts/Payout.sol:Payout",
        "label": "users",
        "offset": 0,
        "slot": "5",
        "type": "t_mapping(t_address,t_struct(User)6684_storage)"
      },
      {
        "astId": 5066,
        "contract": "contracts/Payout.sol:Payout",
        "label": "_subscriptions",
        "offset": 0,
        "slot": "6",
        "type": "t_mapping(t_address,t_struct(AddressToUintMap)3900_storage)"
      },
      {
        "astId": 5068,
        "contract": "contracts/Payout.sol:Payout",
        "label": "protocolWallet",
        "offset": 0,
        "slot": "7",
        "type": "t_address"
      },
      {
        "astId": 5070,
        "contract": "contracts/Payout.sol:Payout",
        "label": "totalBalance",
        "offset": 0,
        "slot": "8",
        "type": "t_uint256"
      }
    ],
    "types": {
      "t_address": {
        "encoding": "inplace",
        "label": "address",
        "numberOfBytes": "20"
      },
      "t_array(t_bytes32)dyn_storage": {
        "base": "t_bytes32",
        "encoding": "dynamic_array",
        "label": "bytes32[]",
        "numberOfBytes": "32"
      },
      "t_bytes32": {
        "encoding": "inplace",
        "label": "bytes32",
        "numberOfBytes": "32"
      },
      "t_int256": {
        "encoding": "inplace",
        "label": "int256",
        "numberOfBytes": "32"
      },
      "t_mapping(t_address,t_struct(AddressToUintMap)3900_storage)": {
        "encoding": "mapping",
        "key": "t_address",
        "label": "mapping(address => struct EnumerableMap.AddressToUintMap)",
        "numberOfBytes": "32",
        "value": "t_struct(AddressToUintMap)3900_storage"
      },
      "t_mapping(t_address,t_struct(User)6684_storage)": {
        "encoding": "mapping",
        "key": "t_address",
        "label": "mapping(address => struct UserLib.User)",
        "numberOfBytes": "32",
        "value": "t_struct(User)6684_storage"
      },
      "t_mapping(t_address,t_uint256)": {
        "encoding": "mapping",
        "key": "t_address",
        "label": "mapping(address => uint256)",
        "numberOfBytes": "32",
        "value": "t_uint256"
      },
      "t_mapping(t_bytes32,t_bytes32)": {
        "encoding": "mapping",
        "key": "t_bytes32",
        "label": "mapping(bytes32 => bytes32)",
        "numberOfBytes": "32",
        "value": "t_bytes32"
      },
      "t_mapping(t_bytes32,t_uint256)": {
        "encoding": "mapping",
        "key": "t_bytes32",
        "label": "mapping(bytes32 => uint256)",
        "numberOfBytes": "32",
        "value": "t_uint256"
      },
      "t_string_storage": {
        "encoding": "bytes",
        "label": "string",
        "numberOfBytes": "32"
      },
      "t_struct(AddressToUintMap)3900_storage": {
        "encoding": "inplace",
        "label": "struct EnumerableMap.AddressToUintMap",
        "members": [
          {
            "astId": 3899,
            "contract": "contracts/Payout.sol:Payout",
            "label": "_inner",
            "offset": 0,
            "slot": "0",
            "type": "t_struct(Bytes32ToBytes32Map)3150_storage"
          }
        ],
        "numberOfBytes": "96"
      },
      "t_struct(Bytes32Set)4597_storage": {
        "encoding": "inplace",
        "label": "struct EnumerableSet.Bytes32Set",
        "members": [
          {
            "astId": 4596,
            "contract": "contracts/Payout.sol:Payout",
            "label": "_inner",
            "offset": 0,
            "slot": "0",
            "type": "t_struct(Set)4403_storage"
          }
        ],
        "numberOfBytes": "64"
      },
      "t_struct(Bytes32ToBytes32Map)3150_storage": {
        "encoding": "inplace",
        "label": "struct EnumerableMap.Bytes32ToBytes32Map",
        "members": [
          {
            "astId": 3145,
            "contract": "contracts/Payout.sol:Payout",
            "label": "_keys",
            "offset": 0,
            "slot": "0",
            "type": "t_struct(Bytes32Set)4597_storage"
          },
          {
            "astId": 3149,
            "contract": "contracts/Payout.sol:Payout",
            "label": "_values",
            "offset": 0,
            "slot": "2",
            "type": "t_mapping(t_bytes32,t_bytes32)"
          }
        ],
        "numberOfBytes": "96"
      },
      "t_struct(Set)4403_storage": {
        "encoding": "inplace",
        "label": "struct EnumerableSet.Set",
        "members": [
          {
            "astId": 4398,
            "contract": "contracts/Payout.sol:Payout",
            "label": "_values",
            "offset": 0,
            "slot": "0",
            "type": "t_array(t_bytes32)dyn_storage"
          },
          {
            "astId": 4402,
            "contract": "contracts/Payout.sol:Payout",
            "label": "_indexes",
            "offset": 0,
            "slot": "1",
            "type": "t_mapping(t_bytes32,t_uint256)"
          }
        ],
        "numberOfBytes": "64"
      },
      "t_struct(Settings)6180_storage": {
        "encoding": "inplace",
        "label": "struct PayoutSigVerifier.Settings",
        "members": [
          {
            "astId": 6175,
            "contract": "contracts/Payout.sol:Payout",
            "label": "subscriptionRate",
            "offset": 0,
            "slot": "0",
            "type": "t_uint96"
          },
          {
            "astId": 6177,
            "contract": "contracts/Payout.sol:Payout",
            "label": "userFee",
            "offset": 12,
            "slot": "0",
            "type": "t_uint16"
          },
          {
            "astId": 6179,
            "contract": "contracts/Payout.sol:Payout",
            "label": "protocolFee",
            "offset": 14,
            "slot": "0",
            "type": "t_uint16"
          }
        ],
        "numberOfBytes": "32"
      },
      "t_struct(User)6684_storage": {
        "encoding": "inplace",
        "label": "struct UserLib.User",
        "members": [
          {
            "astId": 6674,
            "contract": "contracts/Payout.sol:Payout",
            "label": "balance",
            "offset": 0,
            "slot": "0",
            "type": "t_int256"
          },
          {
            "astId": 6676,
            "contract": "contracts/Payout.sol:Payout",
            "label": "incomeRate",
            "offset": 0,
            "slot": "1",
            "type": "t_uint256"
          },
          {
            "astId": 6678,
            "contract": "contracts/Payout.sol:Payout",
            "label": "outgoingRate",
            "offset": 0,
            "slot": "2",
            "type": "t_uint256"
          },
          {
            "astId": 6680,
            "contract": "contracts/Payout.sol:Payout",
            "label": "updTimestamp",
            "offset": 0,
            "slot": "3",
            "type": "t_uint40"
          },
          {
            "astId": 6683,
            "contract": "contracts/Payout.sol:Payout",
            "label": "settings",
            "offset": 0,
            "slot": "4",
            "type": "t_struct(Settings)6180_storage"
          }
        ],
        "numberOfBytes": "160"
      },
      "t_uint16": {
        "encoding": "inplace",
        "label": "uint16",
        "numberOfBytes": "2"
      },
      "t_uint256": {
        "encoding": "inplace",
        "label": "uint256",
        "numberOfBytes": "32"
      },
      "t_uint40": {
        "encoding": "inplace",
        "label": "uint40",
        "numberOfBytes": "5"
      },
      "t_uint96": {
        "encoding": "inplace",
        "label": "uint96",
        "numberOfBytes": "12"
      }
    }
  }
}